:1025B400123DAE12357D123E38123C37122C611298
:1025C400341D123CD2123212123ED4123E8E121C10
:1025D4005ED2AF123ED8900256E4F0A3741EF012FD
:1025E4003ED01213E4122D05122F3C900236E0FF68
:1025F4007E00EF4E70E9900253E0FF7E00EF4E70D4
:10260400DE900244E0FFEFC4135407FFEF5401FFD0
:102614007E00EF64014E70C790023EE0FEA3E0FF2F
:10262400EF64024E60B9900244E0FFEF5401FF7E74
:1026340000EF4E70AA900244E0FFEF54DFFF9002D7
:1026440044EFF0C2E8900225E0FFEF4420FF90023F
:1026540025EFF0900225E0FFEFC41313135401FF9C
:10266400EF5401FF7E00EF64014E7005123ED080EE
:10267400E2900225E0FFEFC41313135401FFEF545B
:1026840001FF7E00EF4E70CB900242E0FF7E00C35C
:10269400EF9401EE6480948040B9900242E0FF7EA2
:1026A40000D3EF9404EE6480948050A71213E412D4
:0826B4003ED0809F0225E322C5
:10357D0075E78075E30075E44075E50475E2107537
:10358D00E64675E6B90075E50075E7007F64123D06
:10359D00D475E78075E30075E44175E50475E20ABD
:1035AD0075E64675E6B90075E50075E7007F6412AE
:0335BD003DD422D8
:103DAE00439701E5E154F8FFEF4404F5E143E18068
:043DBE0043E120229B
:043ED00043E1102298
:10341D005391F1D291D292D29343B4045395FDD2EC
:10342D00A14395815395DFD2A543B41043B420C277
:10343D00A053B1CF43B23043B301C2B4C2A7C2E867
:10344D00D2B55395A3D2A2D2A3D2A4D2A643B1048E
:09345D0053B2FB53B3FDD2E92286
:0C0016004391B05391BFD29643B408222E
:0C3E140053910FD296D294D295D29722EF
:0C3E200053C1CFD28853A1FE43C1012240
:0C3E2C0053C13FD28A53A1FD43C10222C2
:030003000236FDC5
:1036FD00C0E0C0F0C083C082C0D075D000C000C093
:10370D0001C002C003C004C005C006C0071226BC1C
:10371D00D007D006D005D004D003D002D001D00000
:0B372D00D0D0D082D083D0F0D0E032AA
:03001300020022C6
:0100220032AB
:063E8E00123E20D2A82222
:09119D0042038000000230000052
:103C3700E58954FCFFEF4401F58953A1EF43A30441
:103C47005389FB5389F7758A48758CF4D28CD2A9AE
:013C5700224A
:03000B00022B05C0
:102B0500C0E0C083C082C0D075D000C006C00775C4
:102B15008CF4758A48900244E0FFEF4440FF900230
:102B250044EFF00531E5317002053090026AE0FFAF
:102B3500EF600890026AE014F0801490026A7464F1
:102B4500F0900244E0FFEF4480FF900244EFF090E4
:102B55000380E0FEA3E0FFEF4E600E900381E024CA
:102B6500FFF0900380E034FFF090026FE0FEA3E0F9
:102B7500FFEF4E6025900245E0FFEFC313FFEF54D2
:102B850001FF7E00EF64014E701E900270E024FF8D
:102B9500F090026FE034FFF0800E90024BE0FFEF03
:102BA500600690024BE014F0D007D006D0D0D0825A
:052BB500D083D0E032E6
:1034F400E5D954F1FFEF440AF5D975AC0175DA0248
:1035040075AC0075AC01E5F244C0F5F275AC00533E
:10351400BC7F75AC01800543F203800975EA12751E
:10352400FAFD53F2FC75AC0075F9FA75E92475CF10
:05353400FA75CE24220F
:043ED4001234F4228E
:033EDC00D2DE2211
:05000600C2DEC2A022D1
:103DD4008F3EAF3E7E00EF4E60060000153E80F23F
:013DE40022BC
:103D6D008F3FAF3F153FEF600C7F64123DD47F64F2
:063D7D00123DD480ED228E
:023B72008F4082
:103B7400AF407E64EF8EF0A4FFAEF0E4FCFD900352
:103B840078120BA590037874FF120B72EC4D4E4F14
:053B940060030080EF5A
:013B99002209
:023B1B008F41D8
:103B1D00AF417E0AEF8EF0A4FFAEF0E4FCFD900302
:103B2D007C120BA590037C74FF120B72EC4D4E4F63
:093B3D0060077F01123B7280EB6E
:013B4600225C
:1011A600410234004102350048020C0000000000F4
:1011B6000000004402381965637841024400410288
:1011C6004500410240004102250041024C00410217
:1011D6004E006028028500000000000000000000AC
:1011E60000000000000000000000000000000000F9
:1011F60000000000000000000000000000004402A3
:101206001A0000000044022A0000000041025400B7
:1012160042021400004102470041024D00420232E0
:10122600000042026F000041024B0042026B0000C8
:1012360041024A00410246004102190041026A0089
:1012460041023600410227005002750000000000EE
:10125600000000000000000000000050025A0000DC
:101266000000000000000000000000000000410235
:101276003700410243004102300042023C00004276
:1012860002B900004102420041025300410231000E
:1012960041020B0042022E000042022800004102D9
:1012A6002400420248000042026D0000410216007E
:1012B6004102AD004902B00000000000000000003D
:1012C600410252004202AE000042021700004402F0
:1012D600710000000042024F00004102510041022D
:1012E60026004402200000000042021E00004202C6
:1012F60058000042023E00004102550042025600DC
:0513060000410241005E
:1032120090026A7464F090024C741AF090024CE0CE
:10322200FFEF14FF900236EFF0123DC290023074AD
:10323200FFF090023774FFF0900243E4F0900240F6
:10324200E0FFEF4440FF900240EFF0900240E0FFC9
:10325200EF547FFF900240EFF01234669002B9E41F
:0D326200F0A3E4F090026DE4F0A3E4F0228C
:103DE500FBBFDFEFF79FAFB7BBCFDBEBE7F3FDFE25
:013DF500FFCE
:1013E400900244E0FFEF20E60302161E900244E060
:1013F400FFEF54BFFF900244EFF0900256E0FEA3CB
:10140400E0FFEF4E600E900257E024FFF09002568A
:10141400E034FFF09002AEE0FEA3E0FFEF4E600E7A
:101424009002AFE024FFF09002AEE034FFF09002AF
:1014340028E0FEA3E0FFEF4E600E900229E024FFB7
:10144400F0900228E034FFF090026DE0FEA3E0FF8C
:10145400EF4E600E90026EE024FFF090026DE034D7
:10146400FFF090022EE0FEA3E0FFEF4E601090022A
:101474002FE024FFF090022EE034FFF0800E900263
:1014840025E0FFEF54F7FF900225EFF0900225E0EE
:10149400FFEF30E33590022EE0FEA3E0FFEF4E6055
:1014A40029900249E004F07006900248E004F090AC
:1014B4000248E0FEA3E0FFC3EF945AEE9400400A12
:1014C400900248E4F0A3E4F0B2A79002B9E0FEA3CE
:1014D400E0FFEF4E600E9002BAE024FFF09002B9F4
:1014E400E034FFF090026FE0FEA3E0FFEF4E6046B1
:1014F400900245E0FFEFC313FFEF5401FF7E00EFBE
:101504004E60030215FB900245E0FFEF4402FF909A
:101514000245EFF0900245E0FFEF54FBFF900245D7
:10152400EFF0123EDC900245E0FFEF20E3030215EA
:10153400FBD2A70215FB90024BE0FFEF6044900240
:1015440045E0FFEF1313543FFFEF5401FF7E00EF1C
:101554004E60030215FB900245E0FFEF4404FF9048
:101564000245EFF0900245E0FFEF54FDFF90024585
:10157400EFF0120006900245E0FFEF30E379C2A7D6
:101584008075900246E0FFEF605F900246E014F041
:1015940090026BE0FEA3E0FF90026FEEF0A3EFF089
:1015A40090024AE0FF90024BEFF0900245E0FFEF1B
:1015B400C313FFEF5401FF7E00EF4E703A900245D3
:1015C400E0FFEF4402FF900245EFF0900245E0FF98
:1015D400EF54FBFF900245EFF0123EDC900245E031
:1015E400FFEF30E312D2A7800E900245E0FFEF54E4
:1015F400F7FF900245EFF0120C08900225E0FFEF90
:10160400C4135407FFEF5401FF7E00EF64014E60E2
:0B161400091221661204B5123ED0221C
:102D0500900244E0FFEF30E74C900244E0FFEF54BF
:102D15007FFF900244EFF0900255E0FFEF600690D0
:102D25000255E014F0900244E0FFEFC4135407FF8E
:102D3500EF5401FF7E00EF64014E7019900236E0FA
:102D4500FFEF6011900253E0FF7E00EF4E7006909A
:102D55000236E014F0900380E0FEA3E0FFEF4E7032
:102D65003B900244E0FFEF5401FF7E00EF64014E0B
:102D7500702A900244E0FFEF54FEFF900244EFF00A
:102D8500900225E0FFEF131313541FFFEF5401FFCB
:0D2D95007E00EF4E7002C2A7D2B5C2B3227D
:100C0800900243E4F090023774FFF0900226E0FF70
:100C18007E00EF64024E7003020F10A292E433FFCD
:100C2800120026A291E433FF120026A2A5E433FFA6
:100C38001200267F01120026A2A1E433FF1200262B
:100C48007F011200267F01120026900230E0FF90FB
:100C58000237E0FEEE6F6025900237E0FF90023029
:100C6800EFF0123DC212346690021E7413F0A374A2
:100C780088F09002587427F0A37474F02290023C14
:100C880074FF75F0FF120A16AFF0FEEF4E60030214
:100C98000F1090023CE4F0A37401F0900237E0FFDB
:100CA8007E00EF64FF4E7003020D9690021EE0FE78
:100CB800A3E0FFEF4E600E90021FE024FFF09002C9
:100CC8001EE034FFF0900258E0FEA3E0FFEF4E6014
:100CD8000E900259E024FFF0900258E034FFF090A3
:100CE8000226E0FF7E00EF64014E6018900225E0C6
:100CF800FFEF20E60F900258E0FEA3E0FFEF4E6002
:100D080003020D96900225E0FFEFC413135403FF6E
:100D1800EF5401FF7E00EF4E705C900225E0FFEF7C
:100D28004440FF900225EFF0900258E0FEA3E0FF58
:100D3800EF4E701190026BE4F0A37467F090024AD2
:100D48007467F0800F90026BE4F0A37428F09002AF
:100D58004A743CF090026BE0FEA3E0FF90026FEE55
:100D6800F0A3EFF090024AE0FF90024BEFF0900200
:100D7800467402F08018900246E0FF7E00D3EF949C
:100D880001EE6480948050069002467402F090034D
:100D98008CE4F090038CE0FF7E00C3EF9411EE64C6
:100DA800809480502890038CE0FFEF903DE593FFFE
:100DB800900237E0FEEEB5070C90038CE0FF90023E
:100DC80042EFF0800890038CE004F080C690038C1A
:100DD800E0FF7E0090023EEEF0A3EFF0900225E0E7
:100DE800FFEFC4135407FFEF5401FF7E00EF6401C7
:100DF8004E7003020F1090038CE0FF7E00EF641129
:100E08004E7023900240E0FFEF54BFFF900240EF86
:100E1800F0123466900240E0FFEF4480FF900240F9
:100E2800EFF0123C1122900240E0FFEF30E76390B0
:100E38000237E0FF7E00EF64FF4E605690038CE0BF
:100E4800FF7E00EF64054E603790038CE0FF7E0064
:100E5800EF64064E602A90038CE0FF7E00EF640783
:100E68004E601D90038CE0FF7E00EF64094E601019
:100E780090038CE0FF7E00EF640C4E6003020F10BD
:100E8800900244E0FFEF5401FF7E00EF4E7079803E
:100E9800012290038CE0FFEF120BE20EDA000EDE67
:100EA800010EDE020EDE030EDE040EF1050EF10663
:100EB8000EF1070EF5080EF1090EF90A0EFD0B0EDC
:100EC800F10C0F010D0F050E0F090F0F0D1000008B
:100ED8000F101227AF22900244E0FFEF5401FF7E6B
:100EE80000EF4E7023120F11221239312212308F67
:100EF80022123378221232CC2212332222120049D3
:080F08002212004A22123156A8
:010F100022BE
:10393100123C11900243E4F0900242E0FF900242F7
:10394100E0FD121E2F123466900240E0FFEF54BFDB
:10395100FF900240EFF0900240E0FFEF4480FF90C3
:053961000240EFF0221E
:10308F00123C11900240E0FFEF54BFFF900240EF5F
:10309F00F0900240E0FFEF20E244900240E0FFEFAB
:1030AF004404FF900240EFF09002B9740BF0A37448
:1030BF00B8F0900244E0FFEFC4135407FFEF540140
:1030CF00FF7E00EF4E701C900244E0FFEF4420FFA4
:1030DF00900244EFF0D2E8900236744EF0227F084F
:0430EF001238FB2276
:1032CC00123C11900240E0FFEF20E344900240E0FA
:1032DC00FFEF4408FF900240EFF09002B9740BF03E
:1032EC00A374B8F0900244E0FFEFC4135407FFEF4F
:1032FC005401FF7E00EF4E701C900244E0FFEF443F
:10330C0020FF900244EFF0D2E8900236744EF02287
:06331C007F0B1238FB22BA
:10332200123C11900240E0FFEF20E444900240E0A2
:10333200FFEF4410FF900240EFF09002B9740BF0DF
:10334200A374B8F0900244E0FFEFC4135407FFEFF8
:103352005401FF7E00EF4E701C900244E0FFEF44E8
:1033620020FF900244EFF0D2E8900236744EF02231
:063372007F0D1238FB2262
:10337800123C11900240E0FFEF20E144900240E04F
:10338800FFEF4402FF900240EFF09002B9740BF097
:10339800A374B8F0900244E0FFEFC4135407FFEFA2
:1033A8005401FF7E00EF4E701C900244E0FFEF4492
:1033B80020FF900244EFF0D2E8900236744EF022DB
:0633C8007F0A1238FB220F
:1038FB008F429002B9E0FEA3E0FFEF4E60279002EB
:10390B00B974FF75F0FF120A16AFF0FEEF4E70158B
:10391B007D00AF42121E2F900225E0FFEF4480FF87
:06392B00900225EFF022DE
:1027AF00123C11900240E0FFEF20E6030228589000
:1027BF000240E0FFEF54BFFF900240EFF090024362
:1027CF007405F0123466900240E0FFEF4401FF9071
:1027DF000240EFF09002B9740BF0A374B8F09002BE
:1027EF006DE0FEA3E0FFEF4E703C900244E0FFEF80
:1027FF00C4135407FFEF5401FF7E00EF4E70169085
:10280F000244E0FFEF4420FF900244EFF0D2E89043
:10281F0002367433F090026D7427F0A37410F090A9
:10282F0002167402F022900216E014FFF0EF7058B7
:10283F007F01123BEA900243E4F0900240E0FFEF89
:10284F004480FF900240EFF022900240E0FFEF3013
:10285F00E0369002B9E0FEA3E0FFEF4E602A90024F
:10286F00B974FF75F0FF120A16AFF0FEEF4E701835
:10287F007F02123BEA900243E4F0900240E0FFEF48
:09288F004480FF900240EFF022AA
:100F1100123B9AEF700302103E900225E0FFEF2092
:100F2100E015900225E0FFEF20E10C900225E0FFA3
:100F3100EF20E20302119C9002B9E0FEA3E0FFEF73
:100F41004E600302119C900225E0FFEFC41313547D
:100F510003FFEF5401FF7E00EF4E600302119C90EE
:100F6100021EE0FEA3E0FFEF4E600302119C90021F
:100F710025E0FFEF20E009900225E0FFEF30E21AC3
:100F8100900253740AF0900243E4F0900240E0FFB3
:100F9100EF4480FF900240EFF0229002537401F081
:100FA1007B017D677F677E001233CE900245E0FFB3
:100FB100EF4408FF900245EFF0900244E0FFEFC4D8
:100FC100135407FFEF5401FF7E00EF4E701A900299
:100FD10044E0FFEF4420FF900244EFF0D2E890029A
:100FE1004CE0FF900236EFF0900228740FF0A374EA
:100FF100A0F0900243E4F0900240E0FFEF54BFFF05
:10100100900240EFF0900240E0FFEF4480FF900239
:1010110040EFF0900240E0FFEF4420FF900240EFEC
:10102100F0900225E0FFEF20E00302119C900240C6
:10103100E0FFEF54DFFF900240EFF02222900242E6
:10104100E0FF900243EFF0900253E0FFEF600302F4
:10105100119C9002ADE0FFEF600122900243E0FF9E
:10106100EF120BE2107201108C0210A603000010A7
:10107100BE900225E0FFEF4401FF900225EFF090C2
:1010810002B97413F0A37488F08032900225E0FF56
:10109100EF4402FF900225EFF09002B97413F0A320
:1010A1007488F08018900225E0FFEF4404FF90025D
:1010B10025EFF09002B97413F0A37488F090022424
:1010C100E0FFEF600D900243E0FF7E00EF64044E0D
:1010D1007019123C11900242E0FF900242E0FD12B1
:1010E1001E2F90026DE4F0A3E4F022900253E0FF82
:1010F100EF600302119C9002ADE0FFEF60012290CE
:101101000243E0FF7E00EF64024E7039123C119001
:101111000242E0FF900242E0FD121E2F90026DE4B8
:10112100F0A3E4F0900225E0FFEF4408FF900225D0
:10113100EFF090022E740BF0A374B8F0900248E423
:10114100F0A3E4F022900243E0FFEF120BE2115909
:10115100011159030000119C900225E0FFEF30E3DB
:101161003A90022EE0FEA3E0FFEF4E602E900225A2
:10117100E0FFEF54F7FF900225EFF090022EE4F02C
:10118100A3E4F0900242E0FF900242E0FD121E2F24
:0C11910090026DE4F0A3E4F0123C112287
:010049002294
:01004A002293
:10315600900225E0FFEF54FEFF900225EFF090026B
:1031660025E0FFEF54FDFF900225EFF0900225E0E9
:10317600FFEF54FBFF900225EFF0900225E0FFEFF2
:1031860054BFFF900225EFF0123466900240E0FF34
:10319600EF4440FF900240EFF0900240E0FFEF5412
:0E31A6007FFF900240EFF090024374FFF02292
:103DC20090023CE4F0A3740AF09002B9E4F0A3E498
:023DD200F022DD
:10346600900240E0FFEF54FEFF900240EFF0900222
:1034760040E0FFEF54FDFF900240EFF0900240E085
:10348600FFEF54FBFF900240EFF0900240E0FFEFA9
:1034960054F7FF900240EFF0900240E0FFEF54EF48
:0734A600FF900240EFF0224D
:103C1100900253E4F09002317402F090020B7402AE
:103C2100F090022EE0FEA3E0FFEF4E600890022E1E
:063C3100E4F0A3E4F02220
:103B9A00900240E0FFEF20E6037F0122900240E01E
:103BAA00FFEF54BFFF900240EFF09002B9E4F0A398
:083BBA00E4F01234667F0022E2
:041E2F008F328D332E
:101E330090024EE0FF7E00C3EF9445EE64809480F1
:101E43005063900244E0FFEFC4135407FFEF5401C3
:101E5300FF7E00EF64014E704C900236E0FF7E007F
:101E6300C3EF9419EE64809480503A900236E0FFF9
:101E7300C374199FFF90038DEFF090038DE0FF90E3
:101E8300024EE02FF090024EE0FF7E00C374459FA8
:101E9300FFE49EFEC3EF941BEE64809480400690A3
:101EA30002367419F0900236E0FF7E00C3EF9419F6
:101EB300EE64809480500E900255E0FF7E00EF4E5A
:101EC3006003021FDA900244E0FFEFC4135407FFDC
:101ED300EF5401FF7E00EF4E701A900244E0FFEFD3
:101EE3004420FF900244EFF0D2E890024CE0FF90D0
:101EF3000236EFF0E532120BE21F1E011F26021F0E
:101F03002E031F36041F46051F4E061F56071F5E6E
:101F1300091F3E0A1F660C00001F6C9002547408D0
:101F2300F080469002547404F0803E900254740290
:101F3300F080369002547401F0802E900254741491
:101F4300F08026900254740CF0801E900254740AA0
:101F5300F080169002547409F0800E9002547406B7
:101F6300F080069002547403F0E533120BE21F84F1
:101F7300011F91021F9E031FAB041FB81400001F13
:101F8300C37B007D677F677E001233CE80327B0187
:101F93007D677F677E001233CE80257B027D677F5E
:101FA300677E001233CE80187B007D0A7FF47E01AA
:101FB3001233CE800B7B007D0A7FE87E031233CE83
:101FC30030B507C2B57F02123D6D122BBA1222ED56
:091FD3009002557419F022C2A716
:011FDC0022E2
:1004B500900253E0FFEF120BE204E0010510020584
:1004C500670305E204061B0506A40606DD070766A5
:1004D5000807660908BB0A000008C7900240E0FF4C
:1004E500EF20E7119002287403F0A374E8F090025E
:1004F50053E004F022900228E0FEA3E0FFEF4E60F7
:10050500030208C7900253740AF022900228E0FE05
:10051500A3E0FFEF4E7029900253E004F09002280B
:10052500740BF0A374B8F07B007D677F677E0012C3
:1005350033CE900245E0FFEF4408FF900245EFF00F
:10054500900243E0FF7E00EF4E70030208C7900261
:1005550043E0FF7E00EF64FF4E70030208C7123CC4
:100565001122900228E0FEA3E0FFEF4E7004123C3A
:100575001122900243E0FF7E00EF4E70030208C790
:10058500900243E0FF7E00EF64FF4E70012290026F
:1005950040E0FFEF30E523900243E0FF7E00EF648B
:1005A500024E70119002287403F0A374E8F09002D3
:1005B50053E004F022123C112222900243E0FF7E18
:1005C50000EF64014E70119002287403F0A374E8E3
:1005D500F0900253E004F022123C112222900228EE
:1005E500E0FEA3E0FFEF4E60030208C7900253E070
:1005F50004F0900228740BF0A374B8F07B007D67BB
:100605007F677E001233CE900245E0FFEF4408FF7E
:10061500900245EFF022900228E0FEA3E0FFEF4EA6
:100625007004123C1122900243E0FF7E00EF4E70F1
:10063500030208C7900243E0FF7E00EF64FF4E709F
:100645000122900240E0FFEF30E531900243E0FFE8
:100655007E00EF64024E701F9002287403F0A374AD
:10066500E8F0900253E004F0900240E0FFEF448090
:10067500FF900240EFF022123C112222900243E04B
:10068500FF7E00EF64014E70119002287403F0A301
:1006950074E8F0900253E004F022123C11222290FB
:1006A5000228E0FEA3E0FFEF4E60030208C79002B8
:1006B50053E004F0900228740BF0A374B8F07B02A9
:1006C5007D677F677E001233CE900245E0FFEF44E1
:1006D50008FF900245EFF022900228E0FEA3E0FF1C
:1006E500EF4E7004123C1122900243E0FF7E00EFB2
:1006F5004E70030208C7900243E0FF7E00EF64FFDF
:100705004E700122900240E0FFEF30E53190024348
:10071500E0FF7E00EF64024E701F9002287427F000
:10072500A37410F0900253E004F0900240E0FFEF54
:100735004480FF900240EFF022123C1122229002E9
:1007450043E0FF7E00EF64014E701190022874278C
:10075500F0A37410F0900253E004F022123C112231
:1007650022900228E0FEA3E0FFEF4E7004123C1138
:1007750022900243E0FF7E00EF4E70030208C7900F
:100785000243E0FF7E00EF64FF4E700122900240BD
:10079500E0FFEF20E503020831900243E0FF7E0011
:1007A500EF64024E600302082C900253E0FF7E00C6
:1007B500EF64094E706A900224E0FF90038EEFF01B
:1007C50090038EE0FFEF600790038EE4F0800690C3
:1007D500038E7401F090038EE0FF900224EFF07B0E
:1007E500017A0279247513017FF97E7F12161F7B2A
:1007F500047D677F677E001233CE900245E0FFEFF0
:100805004408FF900245EFF0900225E0FFEF54F712
:10081500FF900225EFF09002367414F0123C11227D
:10082500900253E004F022123C112222900243E090
:10083500FF7E00EF64014E7078900253E0FF7E006A
:10084500EF64094E7064900224E0FF90038EEFF090
:1008550090038EE0FFEF600790038EE4F080069032
:10086500038E7401F090038EE0FF900224EFF07B7D
:10087500017A0279247513017FF97E7F12161F7B99
:10088500047D677F677E001233CE900245E0FFEF5F
:100895004408FF900245EFF0900225E0FFEF54F782
:1008A500FF900225EFF0123C1122900253E004F074
:1008B50022123C112222900240E0FFEF20E70312B2
:0208C5003C11E4
:0108C700220E
:10216600123E94EF70030222EC900244E0FFEFC4AB
:10217600135407FFEF5401FF7E00EF4E70109002DC
:1021860044E0FFEF4420FF900244EFF0D2E89002D3
:10219600AEE0FEA3E0FFEF4E60319002367433F0FE
:1021A600900249E004F07006900248E004F09002C4
:1021B60048E0FEA3E0FFC3EF94F4EE9401401E90C6
:1021C6000248E4F0A3E4F0B2A780127B027DFA7F16
:1021D600F47E011233CEC2A79002ADE4F090024322
:1021E600E0FFEF120BE221FC01223D02226F0322E7
:1021F6008805000022EC900252E0FF74B02FF582B1
:10220600E43402F583E004FFF0EFD39439401290F2
:102216000252E0FF74B02FF582E43402F583743085
:10222600F07B007D677F677E001233CE9002AE742E
:10223600C3F0A37450F022900252E004FFF07E0037
:10224600D3EF9408EE64809480400890025274089C
:10225600F0800B7B017D677F677E001233CE900294
:10226600AE74C3F0A37450F022123A607B007D0A6C
:102276007FE87E031233CE9002AE74C3F0A374508F
:10228600F022900252E0FF7E00C3EF9408EE6480D5
:10229600948040527B017A0279B0122E2E900391DF
:1022A600E0FCA3E0FDA3E0FEA3E0FF90022A120BF0
:1022B600A57FFE7EFF7DFF7C0090022AE0F8A3E06A
:1022C600F9A3E0FAA3E0FBD3120B5F400D7B037D7D
:1022D600647F647E001233CE80077D147F14121E45
:0722E6002F9002ADE4F0228D
:062E2E008B1D8A1E891FA6
:102E3400900391120BB10000000090038FE4F09016
:102E4400038FE0FF7E00C3EF9408EE64809480500B
:102E540061AB1DAA1EA91F90038FE0FF8F827583AB
:102E6400001209D7FFEF24D0FF900390EFF07F0A00
:102E74007E007D007C00900391E0F8A3E0F9A3E0DC
:102E8400FAA3E0FB120A42A804A905AA06AB07901C
:102E94000390E0FFE4FCFDFEEB2FFFEA3EFEE93D7C
:102EA400FDE83CFC900391120BA590038FE004F025
:022EB400808D0F
:012EB60022F9
:103BEA008F43123E94EF701E9002ADE543F0123AF5
:103BFA00607B007D0A7FE87E031233CE9002AE74AA
:073C0A00C3F0A37450F02287
:063E94009002ADE0FF22E8
:103A6000900252E4F0754400AF447E00C3EF940826
:103A7000EE648094805013AF4474B02FF582E43428
:0F3A800002F5837430F0054480DE9002B8E4F064
:013A8F002214
:100026008F45900237E0FFEF25E0FF900237EFF0B3
:10003600E545600E900237E0FFEF4401FF9002377E
:03004600EFF022B6
:1033CE008E198F1A8D1B8B1C900225E0FFEFC413F4
:1033DE00135403FFEF5401FF7E00EF4E7030900246
:1033EE006BE519F0A3E51AF090024AE51BF0900286
:1033FE006BE0FEA3E0FF90026FEEF0A3EFF0900201
:0F340E004AE0FF90024BEFF0900246E51CF022DF
:101C5E00309303021DDE900235E0FFEF5401FF7E4C
:101C6E0000EF4E702E900235E0FFEF4401FF900220
:101C7E0035EFF0D2E8D2A7123966D2AF90024B748C
:101C8E00C8F0123EDC900235E0FFEF54DFFF900209
:101C9E0035EFF090024BE0FF7E00EF4E7026900283
:101CAE0035E0FFEFC4135407FFEF5401FF7E00EF42
:101CBE004E7011900235E0FFEF4420FF900235EF99
:101CCE00F0120006123ED0209246900244E0FFEF42
:101CDE00C313FFEF5401FF7E00EF4E7033900244AA
:101CEE00E0FFEF4402FF900244EFF030B507C2B5BB
:101CFE007F02123D6D122BBA7F01123E61123EBE63
:101D0E00C2B3900245E0FFEF547FFF900245EFF023
:101D1E0030920E900244E0FFEF54FDFF900244EF2C
:101D2E00F0209138900244E0FFEF1313543FFFEF81
:101D3E005401FF7E00EF4E7023900244E0FFEF440B
:101D4E0004FF900244EFF0123EA6D2B5C2B3900249
:101D5E0045E0FFEF547FFF900245EFF030910E907B
:101D6E000244E0FFEF54FBFF900244EFF020A54940
:101D7E00900244E0FFEF131313541FFFEF5401FFC3
:101D8E007E00EF4E7033900244E0FFEF4408FF9068
:101D9E000244EFF030B507C2B57F02123D6D122B33
:101DAE00BA7F00123E61123EBEC2B3900245E0FF02
:101DBE00EF4480FF900245EFF030A50E900244E014
:101DCE00FFEF54F7FF900244EFF012004E021C5E3C
:101DDE00900235E0FFEF5401FF7E00EF64014E707C
:101DEE0011900235E0FFEF54FEFF900235EFF01236
:101DFE00000EC2E8C2A7900244E0FFEF54FDFF9030
:101E0E000244EFF0900244E0FFEF54FBFF900244D7
:101E1E00EFF0900244E0FFEF54F7FF900244EFF032
:011E2E002291
:1026BC00900244E0FFEF5401FF7E00EF64014E6096
:1026CC0003022793900214E0FEA3E0FF7E00EF5478
:1026DC0007FFEF4E7024900214E0FEA3E0FFEF78AA
:1026EC0003CEC313CE13D8F9FF74852FF582740271
:1026FC003EF583E0FF90024DEFF090024DE0FFEFCE
:10270C0030E704D2B38002C2B390024DE0FFEF2554
:10271C00E0FF90024DEFF0900215E004F07006908F
:10272C000214E004F0900232E0FEA3E0FF900214E9
:10273C00E0FCA3E0FDC3ED9FEC9E4066900214E428
:10274C00F0A3E4F0900247E004F0900247E0FF7E33
:10275C0000C3EF9403EE648094804046900244E002
:10276C00FFEF54FEFF900244EFF0900225E0FFEFE4
:10277C00131313541FFFEF5401FF7E00EF4E700232
:10278C00C2A7D2B5C2B322900245E0FFEFC4131327
:10279C00135401FFEF5401FF7E00EF64014E7002F1
:0327AC00B2B322A3
:1022ED0090028574FFF09003827401F0900382E0F8
:1022FD00FF7E00D3EF940CEE64809480501A90030F
:10230D0082E0FF74852FF582E43402F5837455F075
:10231D00900382E004F080D49002927454F0900205
:10232D00937456F0D2A79002ADE0FF7E00EF4E7091
:10233D0043900232E4F0A374E0F07B017A02791A43
:10234D00C003C002C0017B007A007909A801AC026C
:10235D00AD03D001D002D0037E007F041209989006
:10236D000254E0FF8F0D7F0F121FDD9002A074FF4E
:10237D00F00224279002327401F0A37440F07B0127
:10238D007A02791AC003C002C0017B007A00790974
:10239D00A801AC02AD03D001D002D0037E007F04B2
:1023AD00120998750D807F0F121FDD9002ADE0FFB1
:1023BD007E00EF64014E702F7B017A02792AC003F3
:1023CD00C002C0017B007A007909A801AC02AD03FF
:1023DD00D001D002D0037E007F04120998750DFF45
:1023ED007F1B121FDD802D7B017A02792AC003C06D
:1023FD0002C0017B007A007909A801AC02AD03D0BF
:10240D0001D002D0037E007F04120998750D007F64
:10241D001B121FDD9002AC74FFF0900214E4F0A3C8
:10242D00E4F0900247E4F090024DE4F0123EBE90CD
:10243D000244E0FFEF4401FF900244EFF09002AD43
:10244D00E0FF7E00EF4E700B9003807402F0A374DA
:0D245D0026F0229003807403F0A37420F099
:01246A00224F
:021FDD008F086B
:101FDF00AF0C123021900383EEF0A3EFF090038348
:101FEF00E0FFAE08050874852EF582E43402F58310
:101FFF00EFF0900384E0FFAE08050874852EF5829C
:10200F00E43402F583EFF0AF0B123021900383EE2F
:10201F00F0A3EFF0900383E0FFAE08050874852E60
:10202F00F582E43402F583EFF0900384E0FFAE080D
:10203F00050874852EF582E43402F583EFF0AF0ABC
:10204F00123021900383EEF0A3EFF0900383E0FFB3
:10205F00AE08050874852EF582E43402F583EFF09F
:10206F00900384E0FFAE08050874852EF582E434F2
:10207F0002F583EFF0AF0D123021900383EEF0A342
:10208F00EFF0900383E0FFAE08050874852EF5820C
:10209F00E43402F583EFF0900384E0FFAE08050807
:1020AF0074852EF582E43402F583EFF0900384E516
:1020BF000AF0900383E50DF0900386E50CF0900392
:1020CF0085E50BF0900385E0FEA3E0FF900383E02E
:1020DF00FCA3E0FDED2FFFEC3EFE900387EEF0A397
:1020EF00EFF0900388E0FF123021900383EEF0A30E
:1020FF00EFF0900383E0FFAE08050874852EF5829C
:10210F00E43402F583EFF0900384E0FFAE08050896
:10211F0074852EF582E43402F583EFF0900387E0A7
:10212F00FF123021900383EEF0A3EFF0900383E0D2
:10213F00FFAE08050874852EF582E43402F583EFAF
:10214F00F0900384E0FFAE08050874852EF582E455
:06215F003402F583EFF0ED
:012165002257
:023021008F46D8
:1030230090038BE4F090038BE0FF7E00C3EF9408E2
:10303300EE64809480504C900389E0FEA3E0FFEFA0
:103043007802C333CE33CED8F9FF900389EEF0A3D1
:10305300EFF0E54630E01090038AE0FFEF4402FF13
:1030630090038AEFF0800E90038AE0FFEF4401FFA4
:1030730090038AEFF0E546C313F54690038BE00413
:0B308300F080A2900389E0FEA3E0FFB4
:01308E00221F
:103CD20043920143C48053C31F53C3FC43C31053D5
:0C3CE200C3FB53BB9F53C4D843AD022268
:03004B00022898F0
:10289800C0E0C0F0C083C082C0D075D000C000C006
:0D28A80001C002C003C004C005C006C00787
:1028B50090039CE5C6F090039DE5C5F0900271E09C
:1028C500F8A3E0F9A3E0FAA3E0FB90039CE0FEA3E4
:1028D500E0FFEE540FFEE4FCFDEB2FFFEA3EFEE9C0
:1028E5003DFDE83CFC900271120BA5900251E004FD
:1028F500F053C4EF43C408900251E0FF7E00C3EFDC
:102905009414EE64809480405653ADFD53C47F907B
:102915000251E4F07B147A0079007800900271E0AE
:10292500FCA3E0FDA3E0FEA3E0FF120ACD90024F59
:10293500EEF0A3EFF090024FE0FEA3E0FFAB07AA95
:1029450006E4F9F87F007E107D0E7C001235399083
:0F2955000220120BA5900271120BB100000000BE
:10296400D007D006D005D004D003D002D001D000C7
:0B297400D0D0D082D083D0F0D0E03271
:043ED80043C40822B5
:102F3C00900256E0FEA3E0FFEF4E60677F607E09D3
:102F4C007D007C00900220E0F8A3E0F9A3E0FAA356
:102F5C00E0FBD3120B5F4006900226E4F0227F6068
:102F6C007E097D007C00900220E0F8A3E0F9A3E04C
:102F7C00FAA3E0FBD3120B5F50237F987E087D00F1
:102F8C007C00900220E0F8A3E0F9A3E0FAA3E0FBB8
:102F9C00D3120B5F40079002267401F02290022698
:042FAC007402F02299
:04130B0041020A0091
:0B3E380075BF0B7D7C7F03123B47220F
:043B47008F348D35F5
:103B4B00A2AF9200C2AF75E3008534E48535E27510
:103B5B00E50475E78075E64675E6B90075E5007511
:063B6B00E700A20092AF8A
:013B71002231
:0A161F008E0E8F0F8B108A118912B6
:10162900A2AF9201C2AF900202E4F0E50E54FEFEB1
:101639007F00900203EEF0A3EFF0900200E4F0A324
:10164900E4F0900200E0FEA3E0FFC3EE94025056DE
:10165900900203E0FF8FE3900204E0FF8FE475E559
:101669000175E78075E64675E6B975E50075E70029
:10167900900204E004F07006900203E004F0900286
:1016890000E0FEA3E0FF74002FF58274003EF583AD
:10169900E5E2F0123ED0900201E004F070069002FB
:1016A90000E004F0809CE50E5401FEAF0F900200AB
:1016B900EEF0A3EFF0AF137E00EF4E603BAB10AA44
:1016C90011A9121209BEFF900200E0FCA3E0FD740B
:1016D900002DF58274003CF583EFF074012512F5B5
:1016E90012E43511F511900201E004F07006900240
:1016F90000E004F0151380BDE50E54FEFE7F009056
:101709000203EEF0A3EFF0900203E0FF8FE375E42C
:101719000075E50375E78075E64675E6B90075E578
:101729000075E700900200E4F0A3E4F0900200E005
:10173900FEA3E0FFC3EE94025058900200E0FEA31E
:10174900E0FF74002FF58274003EF583E0FF8FE21D
:10175900900203E0FF8FE3900204E0FF8FE475E558
:101769000275E78075E64675E6B90075E50075E727
:1017790000900204E004F07006900203E004F01205
:101789003ED0900201E004F07006900200E004F0FF
:10179900809AE50E54FEFE7F00900203EEF0A3EF5F
:1017A900F0900200E4F0A3E4F0900200E0FEA3E070
:1017B900FFC3EE94025078900203E0FF8FE390029A
:1017C90004E0FF8FE475E50175E78075E64675E687
:1017D900B975E50075E700900204E004F070069021
:1017E9000203E004F0123ED0900200E0FEA3E0FF05
:1017F90074002FF58274003EF583E0FFEF65E26027
:101809001D900202E004F0900202E0FF7E00C3EFA7
:101819009403EE64809480501B0217018016900295
:1018290001E004F07006900200E004F00217B290A3
:0D1839000202E4F0A20192AF900202E0FF73
:01184600227F
:102C6100900209E4F0907FF9E493FF900224EFF0E1
:102C7100900224E0FF7E00D3EF9401EE6480948003
:102C81004005900224E4F0900205E4F0907FFBE41B
:102C910093FF900206EFF0907FFCE493FF90020710
:102CA100EFF0907FFDE493FF900208EFF07F007E4C
:102CB100007D007C00900205E0F8A3E0F9A3E0FAB2
:102CC100A3E0FBC3120B5F601C7FFF7EFF7DFF7CD7
:102CD10000900205E0F8A3E0F9A3E0FAA3E0FBC34A
:102CE100120B5F700A900205120BB10000000090F8
:102CF1000205E0FCA3E0FDA3E0FEA3E0FF90021AC1
:032D0100120BA50D
:012D040022AC
:0E3E0600284F4B2928574729000000000000D4
:10130F00410335004103370041032B0041032D00FA
:10131F0041032C00602902D80000000000000000EB
:10132F0000000000000000000000000000000000AE
:10133F00000000000000000000000000000000009E
:10134F000060290301000000000000000000000001
:10135F00000000000000000000000000000000007E
:10136F000000000000000000000000000000440228
:10137F00D2000000004103390043032E0203004155
:10138F00032A0041033800410336004102D60041D1
:0A139F0002D70044033100000000F3
:10396600539CEFC29FD29ED29CC2CDC2CC539C7FA9
:10397600438780539CBFE58954CFFFEF4420F589E8
:1039860043A3085389BF53897F758DED758BEDD29F
:043996008ED2AC22FF
:05000E00C28EC2AC220D
:0300230002297F30
:0F297F00C0E0C083C082C0D075D000C006C007C2
:10298E009002BBE4F0C0AC75AC00309902C2992045
:10299E009803022A36C2989002BBE599F09002BBCA
:1029AE00E0FFEFB42805900227E4F09002BBE0FFB1
:1029BE00900227E0FE74752EF582E43402F583EF63
:1029CE00F0900227E0FFEF04FFEF541FFF90022765
:1029DE00EFF09002BBE0FFEF6429704C9002BBE475
:1029EE00F0900227E0FF9002BBE0FEEEC39F502A5C
:1029FE009002BBE0FF74752FF582E43402F583E09C
:102A0E00FF9002BBE0FE745A2EF582E43402F58389
:102A1E00EFF09002BBE004F080C7900225E0FFEFDC
:0A2A2E004410FF900225EFF0D0AC39
:0D2A3800D007D006D0D0D082D083D0E032BD
:023D99008F4752
:103D9B00A2AC9202C2AC8547993099FDC299A2029E
:023DAB0092ACD8
:013DAD0022F3
:083684008B218A2289238D2489
:10368C009002BCE4F09002BCE4F09002BCE0FFEFCE
:10369C00C39524501FAB21AA22A9239002BCE0FFA2
:1036AC008F827583001209D7FF123D999002BCE0FE
:0436BC0004F080D6C0
:0136C00022E7
:023AEE008F48FF
:103AF000AF487E00C3EF943AEE64809480500CE5AA
:103B000048540FFF9002BDEFF0800AE54824C9FF3A
:0A3B10009002BDEFF09002BDE0FF4F
:013B1A002288
:023A90008F495C
:103A920053490FAF497E00C3EF940AEE64809480CD
:103AA200500CE5494430FF9002BEEFF0800AE54930
:0D3AB2002437FF9002BEEFF09002BEE0FF4F
:013ABF0022E4
:043C97008F2D8D2EB2
:103C9B00AF2D123AEEEFC454F0FDAF2E123AEEEF09
:093CAB00540FFFED2FF52FAF2F90
:013CB40022ED
:10004E007BFF7A3E7906C003C002C0017B017A02B3
:10005E0079C3A801AC02AD03D001D002D0037E005B
:10006E007F041209989002C7E4F07BFF7A3E790A6A
:10007E00C003C002C0017B017A0279C8A801AC029C
:10008E00AD03D001D002D0037E007F0A12099890F2
:10009E000225E0FFEF20E4030204B4900225E0FF06
:1000AE00EF54EFFF900225EFF090025BE0FFEF12AE
:1000BE000BE201445200CA57000001DD90025CE0E1
:1000CE00FFEF644760030201DD9002BFE4F090028F
:1000DE0078E0FF900279E0FD123C979002C0EFF0BD
:1000EE0090027AE0FF90027BE0FD123C979002C1F5
:1000FE00EFF090027CE0FF90027DE0FD123C9790C5
:10010E0002C2EFF09002BFE0FCA3E0FDA3E0FEA36D
:10011E00E0FF90021A120BA57B017A0279C07513CB
:10012E00037FFB7E7F12161F7B017A0279C37D044B
:10013E001236840201DD90025CE0FFEF644760033B
:10014E000201DD9002C87428F09002C97452F0903A
:10015E0002CA7447F09002CB7429F090021BE0FFA4
:10016E00EFC4540FFF123A909002CCEFF090021BA6
:10017E00E0FFEF540FFF123A909002CDEFF0900295
:10018E001CE0FFEFC4540FFF123A909002CEEFF036
:10019E0090021CE0FFEF540FFF123A909002CFEF47
:1001AE00F090021DE0FFEFC4540FFF123A90900240
:1001BE00D0EFF090021DE0FFEF540FFF123A909037
:1001CE0002D1EFF07B017A0279C87D0A1236849053
:1001DE00025BE0FFEF6454705290025CE0FFEF644C
:1001EE0045704890025DE0FFEF6453703E90025EF2
:1001FE00E0FFEF6454703490025FE0FFEFB4292B00
:10020E00900235E0FFEF4408FF900235EFF09002C8
:10021E0045E0FFEF547FFF900245EFF0C2A7C2A06A
:10022E007B017A0279C37D04123684900235E0FF99
:10023E00EF131313541FFFEF5401FF7E00EF640101
:10024E004E60030204B490025BE0FFEF120BE20279
:10025E00A14502EA4603284B040B500270530000DE
:10026E0004B430B507C2B57F02123D6D122BBA7FB2
:10027E0001123E61123EBEC2B3900245E0FFEF5442
:10028E007FFF900245EFF07B017A0279C37D041265
:10029E0036842290025CE0FFEF644E60030204B4E9
:1002AE0090025DE0FFEF644460030204B4900235F7
:1002BE00E0FFEF54F7FF900235EFF0123EA6D2B5F5
:1002CE00C2B3900245E0FFEF547FFF900245EFF07E
:1002DE007B017A0279C37D041236842290025CE09F
:1002EE00FFEF644D60030204B430B507C2B57F0260
:1002FE00123D6D122BBA7F00123E61123EBEC2B38A
:10030E00900245E0FFEF4480FF900245EFF07B0145
:10031E007A0279C37D041236842290025CE0FFEFEC
:10032E00645960030204B490025DE0FFEF6429603B
:10033E00030204B49002C87428F09002C9744BF002
:10034E009002CA7459F0900241E4F0A292E433FF95
:10035E00EF5401FF900241E0FEEE54FEFEEE4FFF21
:10036E00900241EFF0A291E433FFEF5401FFEF252D
:10037E00E0FF900241E0FEEE54FDFEEE4FFF9002D4
:10038E0041EFF0A2A5E433FFEF5401FFEF25E02586
:10039E00E0FF900241E0FEEE54FBFEEE4FFF9002B6
:1003AE0041EFF0A2A1E433FFEF5401FFEF333333FB
:1003BE0054F8FF900241E0FEEE54F7FEEE4FFF9030
:1003CE000241EFF0900241E0FFEF54FFFFEFC45403
:1003DE000FFF123A909002CBEFF0900241E0FFEF48
:1003EE00540FFF123A909002CCEFF09002CD742988
:1003FE00F07B017A0279C87D061236842290025C67
:10040E00E0FFEF6448704C90025FE0FFEF642970EC
:10041E004290025DE0FFEFB4321790025EE0FFEF14
:10042E00B4370ED2A77B017A0279C37D04123684CB
:10043E002290025DE0FFEF6432706B90025EE0FF8F
:10044E00EF64307061D2A07B017A0279C37D041211
:10045E0036842290025CE0FFEF644C704990025F9C
:10046E00E0FFEF6429703F90025DE0FFEFB43217BA
:10047E0090025EE0FFEFB4370EC2A77B017A0279DD
:10048E00C37D041236842290025DE0FFEFB4321673
:10049E0090025EE0FFEFB4300DC2A07B017A0279CC
:0604AE00C37D0412368438
:0104B4002225
:103CEE00900395E4F0A37404F090039574FF75F0BF
:0B3CFE00FF120A2CAFF0FEEF4E70EE3C
:013D09002297
:103D0A00900397E4F0A37402F090039774FF75F0A0
:0B3D1A00FF120A2CAFF0FEEF4E70EE1F
:013D2500227B
:103C5800D294439110D294C297439180C297D2963E
:103C68005391BFD296D2A2439504D2A2123D0A2202
:02388D008F4A60
:10388F00900399E4F0900399E0FF7E00C3EF940852
:10389F00EE64809480501DC297E54A30E704D296BB
:1038AF008002C296E54A25E0F54AD297900399E047
:0438BF0004F080D1C0
:0138C30022E2
:1031B40090039B74FFF090039AE4F090039AE0FF6D
:1031C4007E00C3EF9408EE64809480503BC29790D5
:1031D400039BE0FFEF25E0FF90039BEFF0D29730D5
:1031E400961090039BE0FFEF4401FF90039BEFF0E8
:1031F400800E90039BE0FFEF54FEFF90039BEFF0E3
:0D32040090039AE004F080B390039BE0FF7C
:01321100229A
:103BC2008F368D37D2965391BFC297D2A2C294E557
:103BD20036547FFF12388DAF3712388DC297D29488
:083BE200D2965391BFD2962246
:103646008F258B268A278928D2965391BFC2974306
:103656009180C297D2A2C294E5254480FF12388D8C
:103666005391BFD2961231B4AB26AA27A928EF12DE
:0E3676000A04C297D294D2965391BFD29622E4
:103D830043B10853B2F743B10453B2FB43B11053E9
:063D9300B2EF123C5822C1
:023D26008F4BC1
:103D280090039E74FFF07B017A03799EAF4B1236A5
:063D38004690039EE0FF2F
:013D3E002262
:102A45000066EC1CF0801408910202D0AEE035005F
:102A550000F410E24220008141E27E1941CCCC18FD
:102A6500190C00BBC09B06019F392929C0A25453EC
:102A75000000B400000100004208005504000000F9
:102A85000000155555000B00000000000000006017
:102A9500FF00001F107083010086D0001F043F7FD8
:102AA5000066EC1CF0801408910202D0AEE03500FF
:102AB50000F410E24220008141E27E1941CCCC189D
:102AC500190C00BBC09B060A9F392929C0A2545383
:102AD5000000B40000010000500A00550400000089
:102AE5000000155555000B000000000000000060B7
:102AF500FF02001F107483010086D00008013F5FAC
:1013A9004103590043034700000043034A0000007A
:1013B90042034D000042034F0000440351FFFFFF69
:1013C900FF440355FFFFFFFF44033E0000000044B4
:0A13D90003420000000041033D0044
:102EB700123D831236C17BFF7A2A794575180C7F3C
:102EC700001236037BFF7A2A795175180C7F0C1292
:102ED70036037BFF7A2A795D7518087F1812360347
:102EE7007BFF7A2A79657518187F201236037BFFD6
:102EF7007A2A797D75181D7F381236037BFF7A2A67
:102F0700799A75180B7F551236037F09123D26EF04
:102F170054F8FF90033AEFF090033AE0FFEF4402D2
:102F2700FD7F09123BC2123C781238557E00EF4EE6
:042F3700700280FEA6
:012F3B002273
:103C78007F15123E4D7D077F0A1239CD7F3F123ED8
:0F3C8800577F00122FB07F011234AD123EA622DB
:093E75008F4C900359E54CF0223A
:063E9A00900359E0FF2235
:063EA00090033DE0FF224B
:1018470090033B7401F0900359E0FFEF120BE2188D
:10185700780018800118B302191D03194F04196085
:101867000519BA061A1D071A30081A400900001A86
:101877005990033BE4F0021A59123EAC121A5F1258
:1018870039FE123D56123EC47E00EF4E700890039B
:10189700597409F080069003597402F0AE30AF31E5
:1018A700E4FCFD90033E120BA5021A5930B20690D4
:1018B70003597403F07FFF7EFF7DFF7CFF90035188
:1018C700E0F8A3E0F9A3E0FAA3E0FBC3120B5F7013
:1018D70003021A59AE30AF31E4FCFD90033EE0F845
:1018E700A3E0F9A3E0FAA3E0FBC3EF9BFFEE9AFEA8
:1018F700ED99FDEC98FC900351E0F8A3E0F9A3E023
:10190700FAA3E0FBC3120B5F4003021A5990035975
:101917007404F0021A59123EAC900347E0FBA3E0AF
:10192700FAA3E0F990034DE0FCA3E0FD12000012DA
:101937001A5F90033DEFF0123EA6900359E4F09032
:10194700033B7402F0021A59123EA6900359E4F0C1
:1019570090033B7403F0021A59123EAC121A5F123D
:101967003A2F123D3F90034AE0FBA3E0FAA3E0F9C8
:1019770090034FE0FCA3E0FD1200007F6E123D26AE
:101987007E00EF20E1069003597409F0123EBE7EF7
:1019970000EF4E70089003597409F08006900359C0
:1019A7007406F0AE30AF31E4FCFD900342120BA594
:1019B700021A5930B3069003597407F07FFF7EFF70
:1019C7007DFF7CFF900355E0F8A3E0F9A3E0FAA3BD
:1019D700E0FBC3120B5F607AAE30AF31E4FCFD90E1
:1019E7000342E0F8A3E0F9A3E0FAA3E0FBC3EF9B0F
:1019F700FFEE9AFEED99FDEC98FC900355E0F8A3F5
:101A0700E0F9A3E0FAA3E0FBC3120B5F5044900395
:101A1700597408F0803C121A5F123EA6900359E4ED
:101A2700F090033B7404F08029123EA6900359E41A
:101A3700F090033B7405F08019123E7E7F14123B31
:101A47001B123EAC123C78900359E4F090033B74B0
:071A570006F090033BE0FFE5
:011A5E002265
:103AC0008F4D123E7E7F14123B1B123EACE54D60C3
:103AD000077F1D123E4D80057F1D123E4D121A5F5D
:0E3AE0007F00122FB07F011234AD123EA622DD
:102BBA001236C17BFF7A2A79A575180C7F00123666
:102BCA00037BFF7A2A79B175180C7F0C1236037BC6
:102BDA00FF7A2A79BD7518087F181236037BFF7AA7
:102BEA002A79C57518187F201236037BFF7A2A794D
:102BFA00DD75181D7F381236037BFF7A2A79FA753C
:102C0A00180B7F551236037F09123D26EF54F8FF41
:102C1A0090033CEFF090033CE0FFEF4402FD7F0994
:102C2A00123BC27F0C123E4D7F0012399A7F01126D
:102C3A0037AA7F01123E6B7F00122FB07F01123438
:102C4A00AD123EA643B10453B2FB53B1F743B208E7
:062C5A0043B11053B2EF7C
:012C60002251
:083E7E007DFF7F7F123BC22291
:0A3E43007F61123D26EF540FFF22AD
:0835C0008F298D2A8A2B8B2C28
:1035C800AD297F60123BC2C3E531952CE530952BC0
:1035D8005023123E4390035AEFF090035AE0FFE560
:1035E8002A6F601190035AE0FF7E00EF64084E7066
:0A35F800D6800280D290035AE0FF53
:0136020022A5
:02246B008F4E92
:10246D00E5312401FFE5303400FE90035BEEF0A36F
:10247D00EFF0E54E120BE224A20224BA0424C208A6
:10248D00249A1024AA2024B240000024C890035D91
:10249D007401F0802690035D7402F0801E90035D40
:1024AD007404F0801690035D7406F0800E90035D49
:1024BD007403F0800690035D7405F090035BE0FEFD
:1024CD00A3E0FFC3E5319FE5309E40030225B11225
:1024DD003E4390035EEFF0AF4E7E00EF64204E6002
:1024ED000AAF4E7E00EF64404E701A90035EE0FF1F
:1024FD007E00EF64034E603B90035EE0FF7E00EFD5
:10250D0064054E602EAF4E7E00EF64044E600AAF40
:10251D004E7E00EF64084E702E90035EE0FF7E004D
:10252D00EF64044E600D90035EE0FF7E00EF6406E5
:10253D004E701490035BE0FAA3E0FB7D027F021264
:10254D0035C090035EEFF090035DE0FF90035EE019
:10255D00FEEE6F601790035DE0FD90035BE0FAA364
:10256D00E0FBAF4E1235C090035EEFF090035EE0DE
:10257D00FF7E00EF64084E701490035BE0FAA3E059
:10258D00FB7D027F021235C090035EEFF090035D7C
:10259D00E0FF90035EE0FEEE6F60030224C87F0152
:0625AD00220224C87F0099
:0125B3002205
:063EA6007F1012246B22C4
:063EAC007F0212246B22CC
:063EB2007F2012246B22A8
:063EB8007F0412246B22BE
:063EBE007F4012246B227C
:063EC4007F0812246B22AE
:0A3E4D008F4FAD4F7F65123BC2227C
:1039CD008F388D3953381F7F66123D26EF54E0FF37
:1039DD00EF4238AD387F66123BC253391F7F6712F5
:1039ED003D26EF54E0FFEF4239AD397F67123BC200
:0139FD0022A7
:023CB5008F3A44
:103CB7007F66123D268F3BE53A6005533BDF800365
:0A3CC700433B20AD3B7F66123BC279
:013CD10022D0
:0238C4008F5023
:1038C6007F54123D2690035FEFF090035FE0FFEF19
:1038D6005480FF90035FEFF090035FE0FFE55054E4
:1038E6007FFEEF4EFF90035FEFF090035FE0FD7FFA
:0438F60054123BC26B
:0138FA0022AB
:0230F3008F51FB
:1030F5007F66123D26900360EFF0AF517E00EF4EE4
:10310500701E900360E0FFEF4480FF900360EFF0D6
:10311500900360E0FFEF54BFFF900360EFF080265F
:10312500AF517E00EF64014E701C900360E0FFEF2D
:10313500547FFF900360EFF0900360E0FFEF4440A1
:10314500FF900360EFF0900360E0FD7F66123BC2E5
:013155002257
:0A3E57008F52AD527F68123BC22269
:023738008F53AD
:10373A007F69123D26900361EFF0E5536010900314
:10374A0061E0FFEF54EFFF900361EFF0800E90030A
:10375A0061E0FFEF4410FF900361EFF0900361E036
:06376A00FD7F69123BC265
:013770002236
:023771008F5473
:103773007F69123D26900362EFF0E55460109003D9
:1037830062E0FFEF4402FF900362EFF0800E9003CC
:1037930062E0FFEF54FDFF900362EFF0900362E0FD
:0637A300FD7F69123BC22C
:0137A90022FD
:1039FE007F69123D26900363EFF0900363E0FFEFC3
:103A0E0054FEFF900363EFF0900363E0FFEF54FB6F
:103A1E00FF900363EFF0900363E0FD7F69123BC2FA
:013A2E002275
:103A2F007F69123D26900364EFF0900364E0FFEF8F
:103A3F004401FF900364EFF0900364E0FFEF440450
:103A4F00FF900364EFF0900364E0FD7F69123BC2C7
:013A5F002244
:083E86007D047F6C123BC22297
:103D3F007F6E123D26900365EFF07D017F6C123B85
:063D4F00C2900365E0FFD5
:013D5500224B
:103D56007F6E123D26900366EFF07D027F6C123B6C
:063D6600C2900366E0FFBD
:013D6C002234
:101A5F00900369E4F090036AE4F090036BE4F07F85
:101A6F0066123D2690036CEFF090036CE0FFEF30B1
:101A7F00E5047F0180027F0090036CEFF07F6D1211
:101A8F003D26900367EFF07F6A123D26900368EFC3
:101A9F00F090036CE0FFEF601A900367E0FFEFF444
:101AAF00FF900367EFF0900368E0FFEFF4FF900300
:101ABF0068EFF0900367E0FFEF30E70E90036AE006
:101ACF00FFEF4420FF90036AEFF0900367E0FFEF12
:101ADF0030E60E90036AE0FFEF4401FF90036AEFD8
:101AEF00F0900367E0FFEF30E50E90036AE0FFEF41
:101AFF004401FF90036AEFF0900367E0FFEF30E4DB
:101B0F001C90036AE0FFEF4410FF90036AEFF09020
:101B1F00036BE0FFEF4410FF90036BEFF090036750
:101B2F00E0FFEF30E31C90036AE0FFEF4408FF9003
:101B3F00036AEFF090036BE0FFEF4408FF90036B35
:101B4F00EFF0900367E0FFEF30E21C90036AE0FFD5
:101B5F00EF4404FF90036AEFF090036BE0FFEF4454
:101B6F0004FF90036BEFF0900367E0FFEF30E11C91
:101B7F0090036AE0FFEF4402FF90036AEFF09003D7
:101B8F006BE0FFEF4402FF90036BEFF0900367E011
:101B9F00FFEF30E01C90036AE0FFEF4401FF90037A
:101BAF006AEFF090036BE0FFEF4401FF90036BEFE0
:101BBF00F0900368E0FFEF30E51C900369E0FFEF62
:101BCF004402FF900369EFF090036BE0FFEF448056
:101BDF00FF90036BEFF0900368E0FFEF30E41C9091
:101BEF000369E0FFEF4401FF900369EFF090036B8F
:101BFF00E0FFEF4440FF90036BEFF0900368E0FFCE
:101C0F00EF30E31C900369E0FFEF4404FF9003699A
:101C1F00EFF090036BE0FFEF4420FF90036BEFF0CA
:101C2F00900369E0FD7F6A123BC290036AE0FD7F7B
:101C3F006B123BC290036CE0FFEF600D90036BE003
:0E1C4F00FFEFF4FF90036BEFF090036BE0FFEC
:011C5D002264
:02399A008F5547
:10399C007F69123D2690036DEFF090036DE0FFEF11
:1039AC00549FFF90036DEFF090036DE0FFEF4555D2
:1039BC00FF90036DEFF090036DE0FD7F69123BC249
:0139CC0022D8
:0237AA008F5638
:1037AC007F69123D2690036EEFF0E5566010900392
:1037BC006EE0FFEF4480FF90036EEFF0800E9003FD
:1037CC006EE0FFEF547FFF90036EEFF090036EE01E
:0637DC00FD7F69123BC2F3
:0137E20022C4
:0237E3008F57FE
:1037E5007F67123D2690036FEFF0E5576010900359
:1037F5006FE0FFEF4420FF90036FEFF0800E900322
:103805006FE0FFEF54DFFF90036FEFF090036FE081
:06381500FD7F67123BC2BB
:01381B00228A
:103855007F48123D26900370EFF07DAA7F48123B0A
:10386500C27F48123D26900371EFF0900370E0FD92
:103875007F48123BC2900371E0FF7E00EF64AA4EC1
:0738850070037F01227F00A8
:01388C002219
:063ECA007F6F123D26226D
:103DF6007F70123D267E00EF2480FFEE34FFFE2208
:0A3E61008F58AD587F63123BC22258
:0A3E6B008F59AD597F64123BC2224B
:04326F008E3C8F3DC5
:103273007F45123D26900372EFF0900372E0FFEF5B
:10328300548FFF900372EFF0900372E0FDE53CC4AE
:10329300F854F0C868FEE53DC4540F48FFEF54707E
:1032A300FFED4FFF900372EFF0900372E0FD7F4557
:1032B300123BC2AF3DEF54FFFF900372EFF0900358
:0832C30072E0FD7F46123BC2E0
:0132CB0022E0
:022FB0008F5A36
:102FB2007F0D123D26900373EFF0E55A602C9003CB
:102FC20073E0FFEF4480FF900373EFF0900373E030
:102FD200FFEF4440FF900373EFF0900373E0FFEFC5
:102FE2004420FF900373EFF0802A900373E0FFEF19
:102FF200547FFF900373EFF0900373E0FFEF54BF31
:10300200FF900373EFF0900373E0FFEF54DFFF9044
:0E3012000373EFF0900373E0FD7F0D123BC2DD
:01302000228D
:02381C008F5BC0
:10381E007F67123D26900374EFF0E55B6010900316
:10382E0074E0FFEF4440FF900374EFF0800E9003BE
:10383E0074E0FFEF54BFFF900374EFF0900374E059
:06384E00FD7F67123BC282
:013854002251
:0234AD008F5C32
:1034AF007F62123D26900375EFF0900375E0FFEFFA
:1034BF0054EFFF900375EFF0E55C6010900375E03B
:1034CF00FFEF4420FF900375EFF0800E900375E03F
:1034DF00FFEF54DFFF900375EFF0900375E0FD7F72
:0434EF0062123BC268
:0134F30022B6
:1036C100123EAC7F61123D26900376EFF0900376B7
:1036D100E0FFEF4410FF900376EFF0900376E0FFF8
:1036E100EF54DFFF900376EFF0900376E0FD7F610A
:0B36F100123BC27F00122FB0121A5FC4
:0136FC0022AB
:083603008F148B158A1689173C
:10360B00900377E4F0900377E0FFEFC39518502811
:10361B00900377E0FFEF2514FFAB15AA16A91790BF
:10362B000377E0FE8E827583001209D7FD123BC231
:0A363B00900377E004F080CD7F01DA
:013645002262
:03000000022DA22C
:0C2DA200787FE4F6D8FD75815C022DE915
:1008C800E709F608DFFA8046E709F208DFFA803E12
:1008D80088828C83E709F0A3DFFA8032E309F608FF
:1008E800DFFA8078E309F208DFFA807088828C8367
:1008F800E309F0A3DFFA806489828A83E0A3F6081B
:10090800DFFA805889828A83E0A3F208DFFA804CF4
:1009180080D280FA80C680D4806980F280338010CB
:1009280080A680EA809A80A880DA80E280CA803334
:1009380089828A83ECFAE493A3C8C582C8CCC583AC
:10094800CCF0A3C8C582C8CCC583CCDFE9DEE7807C
:100958000D89828A83E493A3F608DFF9ECFAA9F0FB
:10096800EDFB2289828A83ECFAE0A3C8C582C8CC51
:10097800C583CCF0A3C8C582C8CCC583CCDFEADE6A
:10098800E880DB89828A83E493A3F208DFF980CCCC
:1009980088F0EF60010E4E60C388F0ED2402B404C5
:1009A8000050B9F582EB2402B4040050AF2323456C
:0609B80082239009187370
:1009BE00BB010689828A83E0225002E722BBFE0237
:0909CE00E32289828A83E493226A
:1009D700BB010CE58229F582E5833AF583E02250D5
:1009E70006E92582F8E622BBFE06E92582F8E2221F
:0D09F700E58229F582E5833AF583E4932239
:100A0400BB010689828A83F0225002F722BBFE01D1
:020A1400F322CB
:100A1600C5F0F8A3E028F0C5F0F8E582158270026B
:060A26001583E038F02208
:100A2C00A3F8E0C5F025F0F0E5821582700215837D
:060A3C00E0C838F0E822DA
:100A4200E88FF0A4CC8BF0A42CFCE98EF0A42CFC53
:100A52008AF0EDA42CFCEA8EF0A4CDA8F08BF0A4D1
:100A62002DCC3825F0FDE98FF0A42CCD35F0FCEB30
:100A72008EF0A4FEA9F0EB8FF0A4CFC5F02ECD39F5
:0F0A8200FEE43CFCEAA42DCE35F0FDE43CFC2262
:100A910075F008758200EF2FFFEE33FECD33CDCC1C
:100AA10033CCC58233C5829BED9AEC99E58298409F
:100AB1000CF582EE9BFEED9AFDEC99FC0FD5F0D67C
:100AC100E4CEFBE4CDFAE4CCF9A88222B800C1B9A6
:100AD1000059BA002DEC8BF084CFCECDFCE5F0CBE4
:100AE100F97818EF2FFFEE33FEED33FDEC33FCEB1D
:100AF10033FB10D703994004EB99FB0FD8E5E4F9D8
:100B0100FA227818EF2FFFEE33FEED33FDEC33FCC4
:100B1100C933C910D7059BE99A4007EC9BFCE99AB8
:100B2100F90FD8E0E4C9FAE4CCFB2275F010EF2FFD
:100B3100FFEE33FEED33FDCC33CCC833C810D707FD
:100B41009BEC9AE899400AED9BFDEC9AFCE899F838
:0E0B51000FD5F0DAE4CDFBE4CCFAE4C8F922CB
:10353900C2D5E830E70FB2D5E4C39BFBE49AFAE4BD
:1035490099F9E498F8EC30E717B2D512356F120AF9
:10355900CDE4C39BFBE49AFAE499F9E498F8800373
:10356900120ACD30D50DE4C39FFFE49EFEE49DFD14
:04357900E49CFC22B0
:100B5F00EB9FF5F0EA9E42F0E99D42F0E89C45F0EC
:010B6F002263
:100B70007401FF3395E0FEFDFCA3A3A3E0CF2FF0AB
:100B8000E582158270021583E0CE3EF0E582158283
:100B900070021583E0CD3DF0E58215827002158369
:050BA000E0CC3CF02256
:0C0BA500ECF0A3EDF0A3EEF0A3EFF022C3
:100BB100A8828583F0D083D082120BC8120BC81291
:100BC1000BC8120BC8E473E493A3C583C5F0C583B6
:100BD100C8C582C8F0A3C583C5F0C583C8C582C88E
:010BE10022F1
:100BE200D083D082F8E4937012740193700DA3A3A2
:100BF20093F8740193F5828883E4737402936860B6
:060C0200EFA3A3A380DFB5
:102DAE000225B4E493A3F8E493A34003F68001F262
:102DBE0008DFF48029E493A3F85407240CC8C33326
:102DCE00C4540F4420C8834004F456800146F6DFF5
:102DDE00E4800B010204081020408090119DE47ED7
:102DEE00019360BCA3FF543F30E509541FFEE493EA
:102DFE00A360010ECF54C025E060A840B8E493A3B1
:102E0E00FAE493A3F8E493A3C8C582C8CAC583CADB
:102E1E00F0A3C8C582C8CAC583CADFE9DEE780BE93
:0113E3000009
:00000001FF
