:10288D001240B912388B124143123F45122F3D129F
:10289D00372912401812307E1241DF124199121160
:1028AD00A5D2AF1241E3900256E4F0A3741EF012CC
:1028BD0041DB121CE512166A122FE11232A59002AD
:1028CD0036E0FF7E00EF4E70E6900253E0FF7E0093
:1028DD00EF4E70DB900244E0FFEFC4135407FFEF9F
:1028ED005401FF7E00EF64014E70C490023EE0FE85
:1028FD00A3E0FFEF64024E60B6900244E0FFEF5498
:10290D0001FF7E00EF4E70A7900244E0FFEF54DF11
:10291D00FF900244EFF0C2E8900225E0FFEF442063
:10292D00FF900225EFF0900225E0FFEFC413131383
:10293D005401FFEF5401FF7E00EF64014E7005124C
:10294D0041DB80E2900225E0FFEFC4131313540125
:10295D00FFEF5401FF7E00EF4E70CB900242E0FF7F
:10296D007E00C3EF9401EE6480948040B9900242E2
:10297D00E0FF7E00D3EF9404EE6480948050A712A4
:0B298D00166A1241DB809F0228BC226A
:10388B0075E78075E30075E44075E50475E2107526
:10389B00E64675E6B90075E50075E7007F641240F2
:1038AB00DF75E78075E30075E44175E50475E20AA1
:1038BB0075E64675E6B90075E50075E7007F64129D
:0338CB0040DF22B9
:1040B900439701E5E154F8FFEF4404F5E143E1805A
:0440C90043E120228D
:0441DB0043E110228A
:103729005391F1D291D292D29343B4045395F5D2E5
:10373900A1D2A34395815395DFD2A543B41043B4D5
:1037490020C2A053B1CF43B23043B301C2B4C2A720
:10375900C2E8D2B55395A3D2A2D2A3D2A4D2A6438A
:0B376900B10453B2FB53B3FDD2E922C0
:0C0016004391B05391BFD29643B408222E
:0C411F0053910FD296D294D295D29722E1
:0C412B0053C1CFD28853A1FE43C1012232
:0C41370053C13FD28A53A1FD43C10222B4
:03000300023A0BB3
:103A0B00C0E0C0F0C083C082C0D075D000C000C081
:103A1B0001C002C003C004C005C006C0071229982C
:103A2B00D007D006D005D004D003D002D001D000EF
:0B3A3B00D0D0D082D083D0F0D0E03299
:03001300020022C6
:0100220032AB
:0641990012412BD2A82206
:09141800420380000002300000D4
:103F4500E58954FCFFEF4401F58953A1EF43A30430
:103F55005389FB5389F7758A48758CF4D28CD2A99D
:013F65002239
:03000B00022DE1E2
:102DE100C0E0C083C082C0D075D000C006C00775E6
:102DF1008CF4758A48900244E0FFEF4440FF900252
:102E010044EFF00531E5317002053090026AE0FFD0
:102E1100EF600890026AE014F0801490026A746412
:102E2100F0900244E0FFEF4480FF900244EFF09005
:102E31000380E0FEA3E0FFEF4E600E900381E024EB
:102E4100FFF0900380E034FFF090026FE0FEA3E01A
:102E5100FFEF4E6025900245E0FFEFC313FFEF54F3
:102E610001FF7E00EF64014E701E900270E024FFAE
:102E7100F090026FE034FFF0800E90024BE0FFEF24
:102E8100600690024BE014F0D007D006D0D0D0827B
:052E9100D083D0E03207
:10380200E5D954F1FFEF440AF5D975AC0175DA0236
:1038120075AC0075AC01E5F244C0F5F275AC00532D
:10382200BC7F75AC01800543F203800975EA12750D
:10383200FAFD53F2FC75AC0075F9FA75E92475CFFF
:05384200FA75CE2422FE
:0441DF00123802226E
:0341E700D2DE2203
:05000600C2DEC2A022D1
:1040DF008F3EAF3E7E00EF4E60060000153E80F231
:0140EF0022AE
:104078008F3FAF3F153FEF600C7F641240DF7F64D6
:064088001240DF80ED2272
:023E80008F4071
:103E8200AF407E64EF8EF0A4FFAEF0E4FCFD900341
:103E920078120B9090037874FF120B5DEC4D4E4F2D
:053EA20060030080EF49
:013EA70022F8
:023E29008F41C7
:103E2B00AF417E0AEF8EF0A4FFAEF0E4FCFD9003F1
:103E3B007C120B9090037C74FF120B5DEC4D4E4F7C
:093E4B0060077F01123E8080EB4C
:013E5400224B
:101421004102340041023500015D0048020C000018
:10143100000000000000440238196563784102444D
:101441000041024500410240004102250041024C99
:101451000041024E006028028500000000000000EB
:10146100000000000000000000000000000000007B
:10147100000000000000000000000000000000006B
:101481000044021A0000000044022A00000000414A
:1014910002540042021400004102470041024D0083
:1014A100420232000042026F000041024B00420240
:1014B1006B000041024A004102460041021900410D
:1014C100026A004102360041022700500275000005
:1014D10000000000000000000000000000005002B9
:1014E1005A000000000000000000000000000000A1
:1014F1000041023700410243004102300042023CF8
:1015010000004202B9000041024200410253004181
:1015110002310041020B0042022E0000420228006B
:101521000041022400420248000042026D000041D5
:101531000216004102AD004902B0000000000000A7
:10154100000000410252004202AE000042021700B8
:10155100004402710000000042024F0000410251AC
:1015610000410226004402200000000042021E0049
:1015710000420258000042023E0000410255004272
:08158100025600004102410086
:10307E0090026A7464F090024C741AF090024CE064
:10308E00FFEF14FF900236EFF01240CD9002307435
:10309E00FFF090023774FFF0900243E4F09002408C
:1030AE00E0FFEF4440FF900240EFF0900240E0FF5F
:1030BE00EF547FFF900240EFF01237749002B9E4A4
:1030CE00F0A3E4F090026DE4F0A3E4F0785DE6FF87
:1030DE00EF4401FF785DA607785DE6FFEF4402FF3F
:1030EE00785DA607785DE6FFEF4404FF785DA607DE
:0D30FE00785DE6FFEF4408FF785DA607222D
:1040F000FBBFDFEFF79FAFB7BBCFDBEBE7F3FDFE17
:01410000FFBF
:0415890041038B008F
:10166A00900244E0FFEF20E6030218A4900244E04F
:10167A00FFEF54BFFF900244EFF0900256E0FEA342
:10168A00E0FFEF4E600E900257E024FFF090025602
:10169A00E034FFF09002AEE0FEA3E0FFEF4E600EF2
:1016AA009002AFE024FFF09002AEE034FFF0900227
:1016BA0028E0FEA3E0FFEF4E600E900229E024FF2F
:1016CA00F0900228E034FFF090026DE0FEA3E0FF04
:1016DA00EF4E600E90026EE024FFF090026DE0344F
:1016EA00FFF090022EE0FEA3E0FFEF4E60109002A2
:1016FA002FE024FFF090022EE034FFF0800E9002DB
:10170A0025E0FFEF54F7FF900225EFF0900225E065
:10171A00FFEF30E33590022EE0FEA3E0FFEF4E60CC
:10172A0029900249E004F07006900248E004F09023
:10173A000248E0FEA3E0FFC3EF9450EE9400400A93
:10174A00900248E4F0A3E4F0B2A79002B9E0FEA345
:10175A00E0FFEF4E600E9002BAE024FFF09002B96B
:10176A00E034FFF090026FE0FEA3E0FFEF4E604628
:10177A00900245E0FFEFC313FFEF5401FF7E00EF35
:10178A004E6003021881900245E0FFEF4402FF9089
:10179A000245EFF0900245E0FFEF54FBFF9002454F
:1017AA00EFF01241E7900245E0FFEF20E303021851
:1017BA0081D2A702188190024BE0FFEF60449002A9
:1017CA0045E0FFEF1313543FFFEF5401FF7E00EF94
:1017DA004E6003021881900245E0FFEF4404FF9037
:1017EA000245EFF0900245E0FFEF54FDFF900245FD
:1017FA00EFF0120006900245E0FFEF30E379C2A74E
:10180A008075900246E0FFEF605F900246E014F0B8
:10181A0090026BE0FEA3E0FF90026FEEF0A3EFF000
:10182A0090024AE0FF90024BEFF0900245E0FFEF92
:10183A00C313FFEF5401FF7E00EF4E703A9002454A
:10184A00E0FFEF4402FF900245EFF0900245E0FF0F
:10185A00EF54FBFF900245EFF01241E7900245E09A
:10186A00FFEF30E312D2A7800E900245E0FFEF545B
:10187A00F7FF900245EFF0120BF3900225E0FFEF1D
:10188A00C4135407FFEF5401FF7E00EF64014E605A
:0B189A000912243F1204A01241DB22BF
:102FE100900244E0FFEF30E74C900244E0FFEF54E1
:102FF1007FFF900244EFF0900255E0FFEF600690F2
:103001000255E014F0900244E0FFEFC4135407FFAF
:10301100EF5401FF7E00EF64014E7019900236E01B
:10302100FFEF6011900253E0FF7E00EF4E700690BB
:103031000236E014F0900380E0FEA3E0FFEF4E7053
:103041003B900244E0FFEF5401FF7E00EF64014E2C
:10305100702A900244E0FFEF54FEFF900244EFF02B
:10306100900225E0FFEF131313541FFFEF5401FFEC
:0D3071007E00EF4E7002C2A7D2B5C2B3229E
:100BF300900243E4F090023774FFF0900226E0FF86
:100C03007E00EF64024E7003020F18785DE6FFEF7B
:100C13005401FF120026785DE6FFEFC313FFEF5484
:100C230001FF120026785DE6FFEF1313543FFFEF39
:100C33005401FF1200267F01120026785DE6FFEFC4
:100C4300131313541FFFEF5401FF1200267F0112E9
:100C530000267F01120026900230E0FF900237E069
:100C6300FEEE6F6025900237E0FF900230EFF01246
:100C730040CD12377490021E7413F0A37488F09061
:100C830002587427F0A37474F02290023C74FF7529
:100C9300F0FF120A01AFF0FEEF4E6003020F18904F
:100CA300023CE4F0A37401F0900237E0FF7E00EF12
:100CB30064FF4E7003020D9E90021EE0FEA3E0FF50
:100CC300EF4E600E90021FE024FFF090021EE0340E
:100CD300FFF0900258E0FEA3E0FFEF4E600E90029B
:100CE30059E024FFF0900258E034FFF0900226E030
:100CF300FF7E00EF64014E6018900225E0FFEF20B5
:100D0300E60F900258E0FEA3E0FFEF4E6003020DF2
:100D13009E900225E0FFEFC413135403FFEF540129
:100D2300FF7E00EF4E705C900225E0FFEF4440FF32
:100D3300900225EFF0900258E0FEA3E0FFEF4E7023
:100D43001190026BE4F0A37467F090024A7467F0A9
:100D5300800F90026BE4F0A37428F090024A743C75
:100D6300F090026BE0FEA3E0FF90026FEEF0A3EFC2
:100D7300F090024AE0FF90024BEFF09002467402BB
:100D8300F08018900246E0FF7E00D3EF9401EE64FA
:100D930080948050069002467402F0900382E4F03F
:100DA300900382E0FF7E00C3EF9411EE6480948091
:100DB3005028900382E0FFEF9040F093FF900237BA
:100DC300E0FEEEB5070C900382E0FF900242EFF0E5
:100DD3008008900382E004F080C6900382E0FF7EE7
:100DE3000090023EEEF0A3EFF0900225E0FFEFC487
:100DF300135407FFEF5401FF7E00EF64014E7003AD
:100E0300020F18900382E0FF7E00EF64114E7023FF
:100E1300900240E0FFEF54BFFF900240EFF0123723
:100E230074900240E0FFEF4480FF900240EFF01225
:100E33003F1F22900240E0FFEF30E763900237E06C
:100E4300FF7E00EF64FF4E6056900382E0FF7E005A
:100E5300EF64054E6037900382E0FF7E00EF640687
:100E63004E602A900382E0FF7E00EF64074E601D10
:100E7300900382E0FF7E00EF64094E6010900382CE
:100E8300E0FF7E00EF640C4E6003020F18900244F3
:100E9300E0FFEF5401FF7E00EF4E70798001229056
:100EA3000382E0FFEF120BCD0EE2000EE6010EE629
:100EB300020EE6030EE6040EF9050EF9060EF90717
:100EC3000EFD080EF9090F010A0F050B0EF90C0FA1
:100ED300090D0F0D0E0F110F0F151000000F181233
:100EE3002A8B22900244E0FFEF5401FF7E00EF4E75
:100EF3007023120F1922123C3F221233F8221236AA
:100F030084221235D82212362E22120049221200D0
:050F13004A221234BF68
:010F180022B6
:103C3F00123F1F900243E4F0900242E0FF900242D5
:103C4F00E0FD1220F2123774900240E0FFEF54BFF4
:103C5F00FF900240EFF0900240E0FFEF4480FF90B2
:053C6F000240EFF0220D
:1033F800123F1F900240E0FFEF54BFFF900240EFE2
:10340800F0900240E0FFEF20E244900240E0FFEF3E
:103418004404FF900240EFF09002B9740BF0A374DB
:10342800B8F0900244E0FFEFC4135407FFEF5401D3
:10343800FF7E00EF4E701C900244E0FFEF4420FF37
:10344800900244EFF0D2E8900236744EF0227F08E2
:04345800123C0922F7
:1035D800123F1F900240E0FFEF20E344900240E0DA
:1035E800FFEF4408FF900240EFF09002B9740BF02F
:1035F800A374B8F0900244E0FFEFC4135407FFEF40
:103608005401FF7E00EF4E701C900244E0FFEF442F
:1036180020FF900244EFF0D2E8900236744EF02278
:063628007F0B123C092299
:10362E00123F1F900240E0FFEF20E444900240E082
:10363E00FFEF4410FF900240EFF09002B9740BF0D0
:10364E00A374B8F0900244E0FFEFC4135407FFEFE9
:10365E005401FF7E00EF4E701C900244E0FFEF44D9
:10366E0020FF900244EFF0D2E8900236744EF02222
:06367E007F0D123C092241
:10368400123F1F900240E0FFEF20E144900240E02F
:10369400FFEF4402FF900240EFF09002B9740BF088
:1036A400A374B8F0900244E0FFEFC4135407FFEF93
:1036B4005401FF7E00EF4E701C900244E0FFEF4483
:1036C40020FF900244EFF0D2E8900236744EF022CC
:0636D4007F0A123C0922EE
:103C09008F429002B9E0FEA3E0FFEF4E60279002D9
:103C1900B974FF75F0FF120A01AFF0FEEF4E70158F
:103C29007D00AF421220F2900225E0FFEF4480FFB1
:063C3900900225EFF022CD
:102A8B00123F1F900240E0FFEF20E603022B349031
:102A9B000240E0FFEF54BFFF900240EFF090024383
:102AAB007405F0123774900240E0FFEF4401FF9081
:102ABB000240EFF09002B9740BF0A374B8F09002DF
:102ACB006DE0FEA3E0FFEF4E703C900244E0FFEFA1
:102ADB00C4135407FFEF5401FF7E00EF4E701690A6
:102AEB000244E0FFEF4420FF900244EFF0D2E89065
:102AFB0002367433F090026D7427F0A37410F090CB
:102B0B0002167402F022900216E014FFF0EF7058D8
:102B1B007F01123EF8900243E4F0900240E0FFEF99
:102B2B004480FF900240EFF022900240E0FFEF3034
:102B3B00E0369002B9E0FEA3E0FFEF4E602A900270
:102B4B00B974FF75F0FF120A01AFF0FEEF4E70186B
:102B5B007F02123EF8900243E4F0900240E0FFEF58
:092B6B004480FF900240EFF022CB
:100F1900123EA8EF7003021046900225E0FFEF2071
:100F2900E015900225E0FFEF20E10C900225E0FF9B
:100F3900EF20E2030211A49002B9E0FEA3E0FFEF63
:100F49004E60030211A4900225E0FFEFC41313546D
:100F590003FFEF5401FF7E00EF4E60030211A490DE
:100F6900021EE0FEA3E0FFEF4E60030211A490020F
:100F790025E0FFEF20E009900225E0FFEF30E21ABB
:100F8900900253740AF0900243E4F0900240E0FFAB
:100F9900EF4480FF900240EFF0229002537401F079
:100FA9007B017D677F677E001236DA900245E0FF9C
:100FB900EF4408FF900245EFF0900244E0FFEFC4D0
:100FC900135407FFEF5401FF7E00EF4E701A900291
:100FD90044E0FFEF4420FF900244EFF0D2E8900292
:100FE9004CE0FF900236EFF0900228740FF0A374E2
:100FF900A0F0900243E4F0900240E0FFEF54BFFFFD
:10100900900240EFF0900240E0FFEF4480FF900231
:1010190040EFF0900240E0FFEF4420FF900240EFE4
:10102900F0900225E0FFEF20E0030211A4900240B6
:10103900E0FFEF54DFFF900240EFF02222900242DE
:10104900E0FF900243EFF0900253E0FFEF600302EC
:1010590011A49002ADE0FFEF600122900243E0FF8E
:10106900EF120BCD107A0110940210AE030000109C
:10107900C6900225E0FFEF4401FF900225EFF090B2
:1010890002B97413F0A37488F08032900225E0FF4E
:10109900EF4402FF900225EFF09002B97413F0A318
:1010A9007488F08018900225E0FFEF4404FF900255
:1010B90025EFF09002B97413F0A37488F09002241C
:1010C900E0FFEF600D900243E0FF7E00EF64044E05
:1010D9007019123F1F900242E0FF900242E0FD1298
:1010E90020F290026DE4F0A3E4F022900253E0FFB5
:1010F900EF60030211A49002ADE0FFEF60012290BE
:101109000243E0FF7E00EF64024E7039123F1F90E8
:101119000242E0FF900242E0FD1220F290026DE4EB
:10112900F0A3E4F0900225E0FFEF4408FF900225C8
:10113900EFF090022E740BF0A374B8F0900248E41B
:10114900F0A3E4F022900243E0FFEF120BCD11610E
:1011590001116103000011A4900225E0FFEF30E3C3
:101169003A90022EE0FEA3E0FFEF4E602E9002259A
:10117900E0FFEF54F7FF900225EFF090022EE4F024
:10118900A3E4F0900242E0FF900242E0FD1220F257
:0C11990090026DE4F0A3E4F0123F1F226E
:010049002294
:01004A002293
:1034BF00900225E0FFEF54FEFF900225EFF09002FF
:1034CF0025E0FFEF54FDFF900225EFF0900225E07D
:1034DF00FFEF54FBFF900225EFF0900225E0FFEF86
:1034EF0054BFFF900225EFF0123774900240E0FFB7
:1034FF00EF4440FF900240EFF0900240E0FFEF54A6
:0E350F007FFF900240EFF090024374FFF02225
:1040CD0090023CE4F0A3740AF09002B9E4F0A3E48A
:0240DD00F022CF
:10377400900240E0FFEF54FEFF900240EFF0900211
:1037840040E0FFEF54FDFF900240EFF0900240E074
:10379400FFEF54FBFF900240EFF0900240E0FFEF98
:1037A40054F7FF900240EFF0900240E0FFEF54EF37
:0737B400FF900240EFF0223C
:103F1F00900253E4F09002317402F090020B74029D
:103F2F00F090022EE0FEA3E0FFEF4E600890022E0D
:063F3F00E4F0A3E4F0220F
:103EA800900240E0FFEF20E6037F0122900240E00D
:103EB800FFEF54BFFF900240EFF09002B9E4F0A387
:083EC800E4F01237747F0022C0
:0420F2008F328D3369
:1020F60090024EE0FF7E00C3EF9445EE648094802C
:102106005063900244E0FFEFC4135407FFEF5401FD
:10211600FF7E00EF64014E704C900236E0FF7E00B9
:10212600C3EF9419EE64809480503A900236E0FF33
:10213600C374199FFF900383EFF0900383E0FF9031
:10214600024EE02FF090024EE0FF7E00C374459FE2
:10215600FFE49EFEC3EF941BEE64809480400690DD
:1021660002367419F0900236E0FF7E00C3EF941930
:10217600EE64809480500E900255E0FF7E00EF4E94
:1021860060030222B3900244E0FFEFC4135407FF3A
:10219600EF5401FF7E00EF4E701A900244E0FFEF0D
:1021A6004420FF900244EFF0D2E890024CE0FF900A
:1021B6000236EFF0E532120BCD21E70121EF0221C5
:1021C600F70321FF04220705220F06221707221F05
:1021D60008222709222F0A22370B223F0C00002251
:1021E600459002547408F080569002547404F080AE
:1021F6004E9002547402F080469002547401F080AE
:102206003E900254740CF08036900254740AF080AA
:102216002E9002547409F080269002547418F080AF
:102226001E9002547406F080169002547414F080C6
:102236000E9002547412F080069002547403F0E576
:1022460033120BCD225D01226A0222770322840417
:102256002291140000229C7B007D677F677E00121E
:1022660036DA80327B017D677F677E001236DA8040
:10227600257B027D677F677E001236DA80187B0039
:102286007D0A7FF47E011236DA800B7B007D0A7FA1
:10229600E87E031236DA30B507C2B57F02124078FF
:0F22A600122E961225C69002557419F022C2A767
:0122B5002206
:1004A000900253E0FFEF120BCD04CB0104FB0205D9
:1004B000520305CD04060605068F0606C807075138
:1004C0000807510908A60A000008B2900240E0FFA0
:1004D000EF20E7119002287403F0A374E8F0900273
:1004E00053E004F022900228E0FEA3E0FFEF4E600C
:1004F000030208B2900253740AF022900228E0FE30
:10050000A3E0FFEF4E7029900253E004F090022820
:10051000740BF0A374B8F07B007D677F677E0012D8
:1005200036DA900245E0FFEF4408FF900245EFF015
:10053000900243E0FF7E00EF4E70030208B290028B
:1005400043E0FF7E00EF64FF4E70030208B2123FEB
:100550001F22900228E0FEA3E0FFEF4E7004123F3E
:100560001F22900243E0FF7E00EF4E70030208B2AC
:10057000900243E0FF7E00EF64FF4E700122900284
:1005800040E0FFEF30E523900243E0FF7E00EF64A0
:10059000024E70119002287403F0A374E8F09002E8
:1005A00053E004F022123F1F2222900243E0FF7E1C
:1005B00000EF64014E70119002287403F0A374E8F8
:1005C000F0900253E004F022123F1F2222900228F2
:1005D000E0FEA3E0FFEF4E60030208B2900253E09A
:1005E00004F0900228740BF0A374B8F07B007D67D0
:1005F0007F677E001236DA900245E0FFEF4408FF85
:10060000900245EFF022900228E0FEA3E0FFEF4EBB
:100610007004123F1F22900243E0FF7E00EF4E70F5
:10062000030208B2900243E0FF7E00EF64FF4E70C9
:100630000122900240E0FFEF30E531900243E0FFFD
:100640007E00EF64024E701F9002287403F0A374C2
:10065000E8F0900253E004F0900240E0FFEF4480A5
:10066000FF900240EFF022123F1F2222900243E04F
:10067000FF7E00EF64014E70119002287403F0A316
:1006800074E8F0900253E004F022123F1F222290FF
:100690000228E0FEA3E0FFEF4E60030208B29002E2
:1006A00053E004F0900228740BF0A374B8F07B02BE
:1006B0007D677F677E001236DA900245E0FFEF44E7
:1006C00008FF900245EFF022900228E0FEA3E0FF31
:1006D000EF4E7004123F1F22900243E0FF7E00EFB6
:1006E0004E70030208B2900243E0FF7E00EF64FF09
:1006F0004E700122900240E0FFEF30E5319002435E
:10070000E0FF7E00EF64024E701F9002287427F015
:10071000A37410F0900253E004F0900240E0FFEF69
:100720004480FF900240EFF022123F1F22229002ED
:1007300043E0FF7E00EF64014E70119002287427A1
:10074000F0A37410F0900253E004F022123F1F2235
:1007500022900228E0FEA3E0FFEF4E7004123F1F3C
:1007600022900243E0FF7E00EF4E70030208B29039
:100770000243E0FF7E00EF64FF4E700122900240D2
:10078000E0FFEF20E50302081C900243E0FF7E003B
:10079000EF64024E6003020817900253E0FF7E00F0
:1007A000EF64094E706A900224E0FF900384EFF03A
:1007B000900384E0FFEF6007900384E4F0800690EC
:1007C00003847401F0900384E0FF900224EFF07B37
:1007D000017A0279247513017FF97E7F1218A57BB7
:1007E000047D677F677E001236DA900245E0FFEFF6
:1007F0004408FF900245EFF0900225E0FFEF54F728
:10080000FF900225EFF09002367414F0123F1F2281
:10081000900253E004F022123F1F2222900243E094
:10082000FF7E00EF64014E7078900253E0FF7E007F
:10083000EF64094E7064900224E0FF900384EFF0AF
:10084000900384E0FFEF6007900384E4F08006905B
:1008500003847401F0900384E0FF900224EFF07BA6
:10086000017A0279247513017FF97E7F1218A57B26
:10087000047D677F677E001236DA900245E0FFEF65
:100880004408FF900245EFF0900225E0FFEF54F797
:10089000FF900225EFF0123F1F22900253E004F078
:1008A00022123F1F2222900240E0FFEF20E70312B6
:0208B0003F1FE8
:0108B2002223
:10243F0012419FEF70030225C5900244E0FFEFC4E5
:10244F00135407FFEF5401FF7E00EF4E7010900200
:10245F0044E0FFEF4420FF900244EFF0D2E89002F7
:10246F00AEE0FEA3E0FFEF4E60319002367433F022
:10247F00900249E004F07006900248E004F09002E8
:10248F0048E0FEA3E0FFC3EF9490EE9401401E904E
:10249F000248E4F0A3E4F0B2A780127B027DFA7F3A
:1024AF00F47E011236DAC2A79002ADE4F090024337
:1024BF00E0FFEF120BCD24D5012516022548032589
:1024CF006105000025C5900252E0FF74B02FF58220
:1024DF00E43402F583E004FFF0EFD3943940129017
:1024EF000252E0FF74B02FF582E43402F5837430AA
:1024FF00F07B007D677F677E001236DA9002AE7444
:10250F00A7F0A374F8F022900252E004FFF07E00CF
:10251F00D3EF9408EE6480948040089002527408C0
:10252F00F0800B7B017D677F677E001236DA9002A9
:10253F00AE74A7F0A374F8F022123D6E7B007D0AF3
:10254F007FE87E031236DA9002AE74A7F0A374F818
:10255F00F022900252E0FF7E00C3EF9408EE6480F9
:10256F00948040527B017A0279B0123197900387A1
:10257F00E0FCA3E0FDA3E0FEA3E0FF90022A120B14
:10258F00907FFE7EFF7DFF7C0090022AE0F8A3E0A3
:10259F00F9A3E0FAA3E0FBD3120B4A400D7B037DB6
:1025AF00647F647E001236DA80077D147F14122058
:0725BF00F29002ADE4F022EE
:063197008B1D8A1E891F3A
:10319D00900387120B9C00000000900385E4F090D3
:1031AD000385E0FF7E00C3EF9408EE6480948050A9
:1031BD0061AB1DAA1EA91F900385E0FF8F82758349
:1031CD00001209C2FFEF24D0FF900386EFF07F0AB3
:1031DD007E007D007C00900387E0F8A3E0F9A3E07A
:1031ED00FAA3E0FB120A2DA804A905AA06AB0790C5
:1031FD000386E0FFE4FCFDFEEB2FFFEA3EFEE93D1A
:10320D00FDE83CFC900387120B90900385E004F0E1
:02321D00808DA2
:01321F00228C
:103EF8008F4312419FEF701E9002ADE543F0123DD3
:103F08006E7B007D0A7FE87E031236DA9002AE747B
:073F1800A7F0A374F8F022EA
:06419F009002ADE0FF22DA
:103D6E00900252E4F0754400AF447E00C3EF940815
:103D7E00EE648094805013AF4474B02FF582E43417
:0F3D8E0002F5837430F0054480DE9002B8E4F053
:013D9D002203
:100026008F45900237E0FFEF25E0FF900237EFF0B3
:10003600E545600E900237E0FFEF4401FF9002377E
:03004600EFF022B6
:1036DA008E198F1A8D1B8B1C900225E0FFEFC413E5
:1036EA00135403FFEF5401FF7E00EF4E7030900237
:1036FA006BE519F0A3E51AF090024AE51BF0900277
:10370A006BE0FEA3E0FF90026FEEF0A3EFF09002F1
:0F371A004AE0FF90024BEFF0900246E51CF022D0
:1011A50030A3030213C7121CE5900235E0FFEF548C
:1011B50001FF7E00EF4E7031900235E0FFEF4401F4
:1011C500FF900235EFF0D2E8D2A7123C74D2AF12ED
:1011D50041E390024B74C8F01241E7900235E0FFFD
:1011E500EF54DFFF900235EFF090024BE0FF7E00F9
:1011F500EF4E7026900235E0FFEFC4135407FFEF62
:101205005401FF7E00EF4E7011900235E0FFEF4470
:1012150020FF900235EFF01200061241DB785DE603
:10122500FFEF5401FF7E00EF4E7046900244E0FF51
:10123500EFC313FFEF5401FF7E00EF4E70339002B2
:1012450044E0FFEF4402FF900244EFF030B507C2DF
:10125500B57F02124078122E967F0112416C124121
:10126500C9C2B3900245E0FFEF547FFF900245EFFE
:10127500F0785DE6FFEF5401FF7E00EF64014E70EC
:101285000E900244E0FFEF54FDFF900244EFF0782A
:101295005DE6FFEFC313FFEF5401FF7E00EF4E70D5
:1012A50038900244E0FFEF1313543FFFEF5401FF62
:1012B5007E00EF4E7023900244E0FFEF4404FF9060
:1012C5000244EFF01241B1D2B5C2B3900245E0FF3E
:1012D500EF547FFF900245EFF0785DE6FFEFC31313
:1012E500FFEF5401FF7E00EF64014E700E90024443
:1012F500E0FFEF54FBFF900244EFF090038BE0FF1B
:101305007E00C3EF9402EE64809480402890038BA6
:10131500E4F0900244E0FFEF4404FF900244EFF054
:101325001241B1D2B5C2B3900245E0FFEF547FFF41
:10133500900245EFF0785DE6FFEF1313543FFFEFA2
:101345005401FF7E00EF4E704F900244E0FFEF1313
:101355001313541FFFEF5401FF7E00EF4E703990B9
:101365000244E0FFEF4408FF900244EFF030B50778
:10137500C2B57F02124078122E967F0012416C1280
:1013850041C9C2B3900245E0FFEF4480FF9002459A
:10139500EFF090038BE004F0785DE6FFEF13135454
:1013A5003FFFEF5401FF7E00EF64014E700E900287
:1013B50044E0FFEF54F7FF900244EFF012004E02B5
:1013C50011A5900235E0FFEF5401FF7E00EF6401A7
:1013D5004E7011900235E0FFEF54FEFF900235EF9D
:1013E500F012000EC2E8C2A7900244E0FFEF54FDE0
:1013F500FF900244EFF0900244E0FFEF54FBFF90B2
:101405000244EFF0900244E0FFEF54F7FF900244EE
:03141500EFF022D3
:10299800900244E0FFEF5401FF7E00EF64014E60B7
:1029A80003022A6F900214E0FEA3E0FF7E00EF54BA
:1029B80007FFEF4E7024900214E0FEA3E0FFEF78CB
:1029C80003CEC313CE13D8F9FF74852FF582740292
:1029D8003EF583E0FF90024DEFF090024DE0FFEFEF
:1029E80030E704D2B38002C2B390024DE0FFEF2576
:1029F800E0FF90024DEFF0900215E004F0700690B1
:102A08000214E004F0900232E0FEA3E0FF9002140A
:102A1800E0FCA3E0FDC3ED9FEC9E4066900214E449
:102A2800F0A3E4F0900247E004F0900247E0FF7E54
:102A380000C3EF9403EE648094804046900244E023
:102A4800FFEF54FEFF900244EFF0900225E0FFEF05
:102A5800131313541FFFEF5401FF7E00EF4E700253
:102A6800C2A7D2B5C2B322900245E0FFEFC4131348
:102A7800135401FFEF5401FF7E00EF64014E700212
:032A8800B2B322C4
:1025C60090028574FFF090038C7401F090038CE008
:1025D600FF7E00D3EF940CEE64809480501A900333
:1025E6008CE0FF74852FF582E43402F5837455F090
:1025F60090038CE004F080D49002927454F0900220
:10260600937456F0D2A79002ADE0FF7E00EF4E70B5
:1026160043900232E4F0A374E0F07B017A02791A67
:10262600C003C002C0017B007A007909A801AC0290
:10263600AD03D001D002D0037E007F04120983903F
:102646000254E0FF8F0D7F0F1222B69002A074FF96
:10265600F00227009002327401F0A37440F07B016F
:102666007A02791AC003C002C0017B007A00790998
:10267600A801AC02AD03D001D002D0037E007F04D6
:10268600120983750D807F0F1222B69002ADE0FF0E
:102696007E00EF64014E702F7B017A02792AC00317
:1026A600C002C0017B007A007909A801AC02AD0323
:1026B600D001D002D0037E007F04120983750DFF7E
:1026C6007F1B1222B6802D7B017A02792AC003C0B5
:1026D60002C0017B007A007909A801AC02AD03D0E3
:1026E60001D002D0037E007F04120983750D007F9E
:1026F6001B1222B69002AC74FFF0900214E4F0A311
:10270600E4F0900247E4F090024DE4F01241C990E3
:102716000244E0FFEF4401FF900244EFF09002AD67
:10272600E0FF7E00EF4E700B9003807402F0A374FE
:0D27360026F0229003807403F0A37420F0BD
:012743002273
:0222B6008F088F
:1022B800AF0C12338A90038DEEF0A3EFF090038DEC
:1022C800E0FFAE08050874852EF582E43402F58334
:1022D800EFF090038EE0FFAE08050874852EF582B6
:1022E800E43402F583EFF0AF0B12338A90038DEEDE
:1022F800F0A3EFF090038DE0FFAE08050874852E7B
:10230800F582E43402F583EFF090038EE0FFAE0827
:10231800050874852EF582E43402F583EFF0AF0AE0
:1023280012338A90038DEEF0A3EFF090038DE0FF57
:10233800AE08050874852EF582E43402F583EFF0C3
:1023480090038EE0FFAE08050874852EF582E4340C
:1023580002F583EFF0AF0D12338A90038DEEF0A3F0
:10236800EFF090038DE0FFAE08050874852EF58226
:10237800E43402F583EFF090038EE0FFAE08050821
:1023880074852EF582E43402F583EFF090038EE530
:102398000AF090038DE50DF0900390E50CF09003A2
:1023A8008FE50BF090038FE0FEA3E0FF90038DE034
:1023B800FCA3E0FDED2FFFEC3EFE900391EEF0A3B1
:1023C800EFF0900392E0FF12338A90038DEEF0A3B2
:1023D800EFF090038DE0FFAE08050874852EF582B6
:1023E800E43402F583EFF090038EE0FFAE080508B1
:1023F80074852EF582E43402F583EFF0900391E0C2
:10240800FF12338A90038DEEF0A3EFF090038DE076
:10241800FFAE08050874852EF582E43402F583EFD3
:10242800F090038EE0FFAE08050874852EF582E46F
:062438003402F583EFF011
:01243E00227B
:02338A008F466C
:10338C00900395E4F0900395E0FF7E00C3EF940862
:10339C00EE64809480504C900393E0FEA3E0FFEF2A
:1033AC007802C333CE33CED8F9FF900393EEF0A35B
:1033BC00EFF0E54630E010900394E0FFEF4402FF9D
:1033CC00900394EFF0800E900394E0FFEF4401FF24
:1033DC00900394EFF0E546C313F546900395E00493
:0B33EC00F080A2900393E0FEA3E0FF3E
:0133F70022B3
:04158D004103A10075
:1040180043922F43C48053C31F53C3FC43C310535D
:09402800C3FB53BB9F53C4D82213
:03004B00022B7411
:102B7400C0E0C0F0C083C082C0D075D000C000C027
:0D2B840001C002C003C004C005C006C007A8
:102B910090039DE5C6F090039EE5C5F0900271E0BB
:102BA100F8A3E0F9A3E0FAA3E0FB90039DE0FEA304
:102BB100E0FFEE540FFEE4FCFDEB2FFFEA3EFEE9E1
:102BC1003DFDE83CFC900271120B90900251E00433
:102BD100F053C4EF43C408900251E0FF7E00C3EFFD
:102BE1009414EE64809480405653ADFD53C47F909D
:102BF1000251E4F07B147A0079007800900271E0D0
:102C0100FCA3E0FDA3E0FEA3E0FF120AB890024F8F
:102C1100EEF0A3EFF090024FE0FEA3E0FFAB07AAB6
:102C210006E4F9F87F007E107D0E7C001238479093
:0F2C31000220120B90900271120B9C0000000009
:102C4000D007D006D005D004D003D002D001D000E8
:0B2C5000D0D0D082D083D0F0D0E03292
:101CE500E5C45410FF7E00EF4E7003021EF2900310
:101CF5009FE5C6F09003A0E5C5F053C4EF9003A19E
:101D0500E0FFEF120BCD1D1E001DC7011DF2021EC7
:101D15001C031E460400001E6E900271E0F8A3E04D
:101D2500F9A3E0FAA3E0FB90039FE0FEA3E0FFEE3A
:101D3500540FFEE4FCFDEB2FFFEA3EFEE93DFDE816
:101D45003CFC900271120B90900251E004F090025D
:101D550051E0FF7E00C3EF9414EE6480948050033D
:101D6500021E6E900251E4F07B147A00790078002F
:101D7500900271E0FCA3E0FDA3E0FEA3E0FF120AE0
:101D8500B890024FEEF0A3EFF090024FE0FEA3E013
:101D9500FFAB07AA06E4F9F87F007E107D0E7C00F4
:101DA500123847900220120B90900271120B9C0082
:101DB500000000785DE6FFEF4410FF785DA607029E
:101DC5001E6E90039FE0FEA3E0FFC3EE9402500F4A
:101DD500785DE6FFEF54FDFF785DA607021E6E787D
:101DE5005DE6FFEF4402FF785DA607807C90039FC8
:101DF500E0FEA3E0FFC3EE9402500E785DE6FFEF30
:101E050054FEFF785DA6078060785DE6FFEF44012C
:101E1500FF785DA607805290039FE0FEA3E0FFC315
:101E2500EE9402500E785DE6FFEF54FBFF785DA659
:101E3500078036785DE6FFEF4404FF785DA60780EE
:101E45002890039FE0FEA3E0FFC3EE9402500E78B6
:101E55005DE6FFEF54F7FF785DA607800C785DE639
:101E6500FFEF4408FF785DA607785DE6FFEFC454F1
:101E75000FFFEF5401FF7E00EF64014E70069003E3
:101E8500A1E004F09003A1E0FF7E00D3EF9404EEFF
:101E95006480948040059003A1E4F09003A1E0FFE5
:101EA500EF120BCD1EBC001EC1011ECD021ED903B3
:101EB5001EE50400001EEF53C4D8802EE5C454D897
:101EC500FFEF4401F5C48022E5C454D8FFEF440276
:101ED500F5C48016E5C454D8FFEF4403F5C4800A61
:0D1EE500E5C454D8FFEF4405F5C443C4081C
:011EF20022CD
:0441E30043C40822A7
:1032A500900256E0FEA3E0FFEF4E60677F607E0967
:1032B5007D007C00900220E0F8A3E0F9A3E0FAA3EA
:1032C500E0FBD3120B4A4006900226E4F0227F6011
:1032D5007E097D007C00900220E0F8A3E0F9A3E0E0
:1032E500FAA3E0FBD3120B4A50237F987E087D009A
:1032F5007C00900220E0F8A3E0F9A3E0FAA3E0FB4C
:10330500D3120B4A40079002267401F02290022640
:043315007402F0222C
:0415910041020A0009
:0B41430075BF0B7D7C7F03123E5522F0
:043E55008F348D35E4
:103E5900A2AF9200C2AF75E3008534E48535E275FF
:103E6900E50475E78075E64675E6B90075E5007500
:063E7900E700A20092AF79
:013E7F002220
:0A18A5008E0E8F0F8B108A1189122E
:1018AF00A2AF9201C2AF900202E4F0E50E54FEFE29
:1018BF007F00900203EEF0A3EFF0900200E4F0A39C
:1018CF00E4F0900200E0FEA3E0FFC3EE9402505656
:1018DF00900203E0FF8FE3900204E0FF8FE475E5D1
:1018EF000175E78075E64675E6B975E50075E700A1
:1018FF00900204E004F07006900203E004F09002FE
:10190F0000E0FEA3E0FF74002FF58274003EF58324
:10191F00E5E2F01241DB900201E004F07006900264
:10192F0000E004F0809CE50E5401FEAF0F90020022
:10193F00EEF0A3EFF0AF137E00EF4E603BAB10AABB
:10194F0011A9121209A9FF900200E0FCA3E0FD7497
:10195F00002DF58274003CF583EFF074012512F52C
:10196F0012E43511F511900201E004F070069002B7
:10197F0000E004F0151380BDE50E54FEFE7F0090CD
:10198F000203EEF0A3EFF0900203E0FF8FE375E4A4
:10199F000075E50375E78075E64675E6B90075E5F0
:1019AF000075E700900200E4F0A3E4F0900200E07D
:1019BF00FEA3E0FFC3EE94025058900200E0FEA396
:1019CF00E0FF74002FF58274003EF583E0FF8FE295
:1019DF00900203E0FF8FE3900204E0FF8FE475E5D0
:1019EF000275E78075E64675E6B90075E50075E79F
:1019FF0000900204E004F07006900203E004F0127D
:101A0F0041DB900201E004F07006900200E004F068
:101A1F00809AE50E54FEFE7F00900203EEF0A3EFD6
:101A2F00F0900200E4F0A3E4F0900200E0FEA3E0E7
:101A3F00FFC3EE94025078900203E0FF8FE3900211
:101A4F0004E0FF8FE475E50175E78075E64675E6FE
:101A5F00B975E50075E700900204E004F070069098
:101A6F000203E004F01241DB900200E0FEA3E0FF6E
:101A7F0074002FF58274003EF583E0FFEF65E2609E
:101A8F001D900202E004F0900202E0FF7E00C3EF1F
:101A9F009403EE64809480501B0219878016900285
:101AAF0001E004F07006900200E004F0021A389092
:0D1ABF000202E4F0A20192AF900202E0FFEB
:011ACC0022F7
:102F3D00900209E4F0907FF9E493FF900224EFF002
:102F4D00900224E0FF7E00D3EF9401EE6480948024
:102F5D004005900224E4F0900205E4F0907FFBE43C
:102F6D0093FF900206EFF0907FFCE493FF90020731
:102F7D00EFF0907FFDE493FF900208EFF07F007E6D
:102F8D00007D007C00900205E0F8A3E0F9A3E0FAD3
:102F9D00A3E0FBC3120B4A601C7FFF7EFF7DFF7C0D
:102FAD0000900205E0F8A3E0F9A3E0FAA3E0FBC36B
:102FBD00120B4A700A900205120B9C000000009043
:102FCD000205E0FCA3E0FDA3E0FEA3E0FF90021AE2
:032FDD00120B9044
:012FE00022CE
:0E411100284F4B2928574729000000000000C6
:10159500410335004103370041032B0041032D0072
:1015A50041032C00602902D8000000000000000063
:1015B5000000000000000000000000000000000026
:1015C5000000000000000000000000000000000016
:1015D5000060290301000000000000000000000079
:1015E50000000000000000000000000000000000F6
:1015F50000000000000000000000000000004402A0
:10160500D2000000004103390043032E02030041CC
:10161500032A0041033800410336004102D6004148
:0A16250002D700440331000000006A
:103C7400539CEFC29FD29ED29CC2CDC2CC539C7F98
:103C8400438780539CBFE58954CFFFEF4420F589D7
:103C940043A3085389BF53897F758DED758BEDD28E
:043CA4008ED2AC22EE
:05000E00C28EC2AC220D
:03002300022C5B51
:0F2C5B00C0E0C083C082C0D075D000C006C007E3
:102C6A009002BBE4F0C0AC75AC00309902C2992066
:102C7A009803022D12C2989002BBE599F09002BB0C
:102C8A00E0FFEFB42805900227E4F09002BBE0FFD2
:102C9A00900227E0FE74752EF582E43402F583EF84
:102CAA00F0900227E0FFEF04FFEF541FFF90022786
:102CBA00EFF09002BBE0FFEF6429704C9002BBE496
:102CCA00F0900227E0FF9002BBE0FEEEC39F502A7D
:102CDA009002BBE0FF74752FF582E43402F583E0BD
:102CEA00FF9002BBE0FE745A2EF582E43402F583AB
:102CFA00EFF09002BBE004F080C7900225E0FFEFFE
:0A2D0A004410FF900225EFF0D0AC5A
:0D2D1400D007D006D0D0D082D083D0E032DE
:0240A4008F4744
:1040A600A2AC9202C2AC8547993099FDC299A20290
:0240B60092ACCA
:0140B80022E5
:083992008B218A2289238D2478
:10399A009002BCE4F09002BCE4F09002BCE0FFEFBD
:1039AA00C39524501FAB21AA22A9239002BCE0FF91
:1039BA008F827583001209C2FF1240A49002BCE0F4
:0439CA0004F080D6AF
:0139CE0022D6
:023DFC008F48EE
:103DFE00AF487E00C3EF943AEE64809480500CE599
:103E0E0048540FFF9002BDEFF0800AE54824C9FF29
:0A3E1E009002BDEFF09002BDE0FF3E
:013E28002277
:023D9E008F494B
:103DA00053490FAF497E00C3EF940AEE64809480BC
:103DB000500CE5494430FF9002BEEFF0800AE5491F
:0D3DC0002437FF9002BEEFF09002BEE0FF3E
:013DCD0022D3
:043FA5008F2D8D2EA1
:103FA900AF2D123DFCEFC454F0FDAF2E123DFCEFD6
:093FB900540FFFED2FF52FAF2F7F
:013FC20022DC
:10004E007BFF7A417911C003C002C0017B017A02A5
:10005E0079C3A801AC02AD03D001D002D0037E005B
:10006E007F041209839002C7E4F07BFF7A41791571
:10007E00C003C002C0017B017A0279C8A801AC029C
:10008E00AD03D001D002D0037E007F0A1209839007
:10009E000225E0FFEF20E40302049F900225E0FF1B
:1000AE00EF54EFFF900225EFF090025BE0FFEF12AE
:1000BE000BCD01445200CA57000001DD90025CE0F6
:1000CE00FFEF644760030201DD9002BFE4F090028F
:1000DE0078E0FF900279E0FD123FA59002C0EFF0AC
:1000EE0090027AE0FF90027BE0FD123FA59002C1E4
:1000FE00EFF090027CE0FF90027DE0FD123FA590B4
:10010E0002C2EFF09002BFE0FCA3E0FDA3E0FEA36D
:10011E00E0FF90021A120B907B017A0279C07513E0
:10012E00037FFB7E7F1218A57B017A0279C37D04C3
:10013E001239920201DD90025CE0FFEF644760032A
:10014E000201DD9002C87428F09002C97452F0903A
:10015E0002CA7447F09002CB7429F090021BE0FFA4
:10016E00EFC4540FFF123D9E9002CCEFF090021B95
:10017E00E0FFEF540FFF123D9E9002CDEFF0900284
:10018E001CE0FFEFC4540FFF123D9E9002CEEFF025
:10019E0090021CE0FFEF540FFF123D9E9002CFEF36
:1001AE00F090021DE0FFEFC4540FFF123D9E90022F
:1001BE00D0EFF090021DE0FFEF540FFF123D9E9026
:1001CE0002D1EFF07B017A0279C87D0A1239929042
:1001DE00025BE0FFEF6454705290025CE0FFEF644C
:1001EE0045704890025DE0FFEF6453703E90025EF2
:1001FE00E0FFEF6454703490025FE0FFEFB4292B00
:10020E00900235E0FFEF4408FF900235EFF09002C8
:10021E0045E0FFEF547FFF900245EFF0C2A7C2A06A
:10022E007B017A0279C37D04123992900235E0FF88
:10023E00EF131313541FFFEF5401FF7E00EF640101
:10024E004E600302049F90025BE0FFEF120BCD02A3
:10025E00A14502EA4603284B03F6500270530000F4
:10026E00049F30B507C2B57F02124078122E967FDA
:10027E000112416C1241C9C2B3900245E0FFEF5426
:10028E007FFF900245EFF07B017A0279C37D041265
:10029E0039922290025CE0FFEF644E600302049FED
:1002AE0090025DE0FFEF6444600302049F9002350C
:1002BE00E0FFEF54F7FF900235EFF01241B1D2B5E7
:1002CE00C2B3900245E0FFEF547FFF900245EFF07E
:1002DE007B017A0279C37D041239922290025CE08E
:1002EE00FFEF644D600302049F30B507C2B57F0275
:1002FE00124078122E967F0012416C1241C9C2B381
:10030E00900245E0FFEF4480FF900245EFF07B0145
:10031E007A0279C37D041239922290025CE0FFEFDB
:10032E006459600302049F90025DE0FFEF64296050
:10033E000302049F9002C87428F09002C9744BF017
:10034E009002CA7459F0900241E4F0785DE6FFEF36
:10035E005401FF900241E0FEEE54FEFEEE4FFF9080
:10036E000241EFF0785DE6FFEF5402FF900241E0AC
:10037E00FEEE54FDFEEE4FFF900241EFF0785DE68B
:10038E00FFEF5404FF900241E0FEEE54FBFEEE4FF1
:10039E00FF900241EFF0785DE6FFEF5408FF900208
:1003AE0041E0FEEE54F7FEEE4FFF900241EFF0906B
:1003BE000241E0FFEF54FFFFEFC4540FFF123D9ECA
:1003CE009002CBEFF0900241E0FFEF540FFF123D91
:1003DE009E9002CCEFF09002CD7429F07B017A0250
:1003EE0079C87D061239922290025CE0FFEF6448D4
:1003FE00704C90025FE0FFEF6429704290025DE066
:10040E00FFEFB4321790025EE0FFEFB4370ED2A7C3
:10041E007B017A0279C37D041239922290025DE04B
:10042E00FFEF6432706B90025EE0FFEF643070613C
:10043E00D2A07B017A0279C37D04123992229002F6
:10044E005CE0FFEF644C704990025FE0FFEF6429BF
:10045E00703F90025DE0FFEFB4321790025EE0FF56
:10046E00EFB4370EC2A77B017A0279C37D0412392D
:10047E00922290025DE0FFEFB4321690025EE0FF32
:10048E00EFB4300DC2A07B017A0279C37D0412391C
:01049E0092CB
:01049F00223A
:103FE000900396E4F0A37404F090039674FF75F0C8
:0B3FF000FF120A17AFF0FEEF4E70EE5C
:013FFB0022A3
:103FFC00900398E4F0A37402F090039874FF75F0AA
:0B400C00FF120A17AFF0FEEF4E70EE3F
:014017002286
:103F6600D294439110D294C297439180C297D2962D
:103F76005391BFD296D2A2439504D2A2123FFC22FD
:023B9B008F4A4F
:103B9D0090039AE4F090039AE0FF7E00C3EF94083F
:103BAD00EE64809480501DC297E54A30E704D296AA
:103BBD008002C296E54A25E0F54AD29790039AE035
:043BCD0004F080D1AF
:013BD10022D1
:10351D0090039C74FFF090039BE4F090039BE0FFFD
:10352D007E00C3EF9408EE64809480503BC2979068
:10353D00039CE0FFEF25E0FF90039CEFF0D2973066
:10354D00961090039CE0FFEF4401FF90039CEFF079
:10355D00800E90039CE0FFEF54FEFF90039CEFF074
:0D356D0090039BE004F080B390039CE0FF0E
:01357A00222E
:103ED0008F368D37D2965391BFC297D2A2C294E546
:103EE00036547FFF123B9BAF37123B9BC297D29455
:083EF000D2965391BFD2962235
:103954008F258B268A278928D2965391BFC29743F5
:103964009180C297D2A2C294E5254480FF123B9B6A
:103974005391BFD29612351DAB26AA27A928EF1260
:0E39840009EFC297D294D2965391BFD29622E9
:10408E0043B10853B2F743B10453B2FB43B11053DB
:06409E00B2EF123F6622A2
:024031008F4BB3
:104033009003A274FFF07B017A0379A2AF4B12398C
:06404300549003A2E0FF0F
:014049002254
:102D21000066EC1CF0801408910202D0AEE0350080
:102D310000F410E24220008141E27E1941CCCC181E
:102D4100190C00BBC09B06019F392929C0A254530D
:102D51000000B4000001000042080055040000001A
:102D61000000155555000B00000000000000006038
:102D7100FF00001F107083010086D0001F043F7FF9
:102D81000066EC1CF0801408910202D0AEE0350020
:102D910000F410E24220008141E27E1941CCCC18BE
:102DA100190C00BBC09B060A9F392929C0A25453A4
:102DB1000000B40000010000500A005504000000AA
:102DC1000000155555000B000000000000000060D8
:102DD100FF02001F107483010086D00008013F5FCD
:10162F004103590043034700000043034A000000F1
:10163F0042034D000042034F0000440351FFFFFFE0
:10164F00FF440355FFFFFFFF44033E00000000442B
:0A165F0003420000000041033D00BB
:1032200012408E1239CF7BFF7A2D792175180C7FD1
:10323000001239117BFF7A2D792D75180C7F0C1235
:1032400039117BFF7A2D79397518087F18123911D9
:103250007BFF7A2D79417518187F201239117BFF79
:103260007A2D795975181D7F381239117BFF7A2D07
:10327000797675180B7F551239117F09124031EF9D
:1032800054F8FF90033AEFF090033AE0FFEF440266
:10329000FD7F09123ED0123F86123B637E00EF4E47
:0432A000700280FE3A
:0132A4002207
:103F86007F151241587D077F0A123CDB7F3F1241A5
:0F3F9600627F001233197F011237BB1241B12233
:094180008F4C900359E54CF0222C
:0641A500900359E0FF2227
:0641AB0090033DE0FF223D
:101ACD0090033B7401F0900359E0FFEF120BCD1A18
:101ADD00FE001B06011B39021BA3031BD5041BE6CD
:101AED00051C40061CA3071CB6081CC60900001CDB
:101AFD00DF90033BE4F0021CDF1241B7121EF3121C
:101B0D003D0C1240611241CF7E00EF4E70089003E4
:101B1D00597409F080069003597402F0AE30AF315C
:101B2D00E4FCFD90033E120B90021CDF30B20690D8
:101B3D0003597403F07FFF7EFF7DFF7CFF900351FF
:101B4D00E0F8A3E0F9A3E0FAA3E0FBC3120B4A709F
:101B5D0003021CDFAE30AF31E4FCFD90033EE0F834
:101B6D00A3E0F9A3E0FAA3E0FBC3EF9BFFEE9AFE1F
:101B7D00ED99FDEC98FC900351E0F8A3E0F9A3E09A
:101B8D00FAA3E0FBC3120B4A4003021CDF9003597A
:101B9D007404F0021CDF1241B7900347E0FBA3E091
:101BAD00FAA3E0F990034DE0FCA3E0FD1200001252
:101BBD001EF390033DEFF01241B1900359E4F09004
:101BCD00033B7402F0021CDF1241B1900359E4F0A3
:101BDD0090033B7403F0021CDF1241B7121EF31287
:101BED003D3D12404A90034AE0FBA3E0FAA3E0F921
:101BFD0090034FE0FCA3E0FD1200007F6E12403118
:101C0D007E00EF20E1069003597409F01241C97E60
:101C1D0000EF4E70089003597409F0800690035937
:101C2D007406F0AE30AF31E4FCFD900342120B9020
:101C3D00021CDF30B3069003597407F07FFF7EFF5F
:101C4D007DFF7CFF900355E0F8A3E0F9A3E0FAA334
:101C5D00E0FBC3120B4A607AAE30AF31E4FCFD906D
:101C6D000342E0F8A3E0F9A3E0FAA3E0FBC3EF9B86
:101C7D00FFEE9AFEED99FDEC98FC900355E0F8A36C
:101C8D00E0F9A3E0FAA3E0FBC3120B4A5044900322
:101C9D00597408F0803C121EF31241B1900359E4BF
:101CAD00F090033B7404F080291241B1900359E484
:101CBD00F090033B7405F080191241897F14123E98
:101CCD00291241B7123F86900359E4F090033B74FB
:071CDD0006F090033BE0FF5D
:011CE40022DD
:103DCE008F4D1241897F14123E291241B7E54D6085
:103DDE00077F1D12415880057F1D124158121EF398
:0E3DEE007F001233197F011237BB1241B12240
:102E96001239CF7BFF7A2D798175180C7F00123994
:102EA600117BFF7A2D798D75180C7F0C1239117BE9
:102EB600FF7A2D79997518087F181239117BFF7AD8
:102EC6002D79A17518187F201239117BFF7A2D797B
:102ED600B975181D7F381239117BFF7A2D79D67591
:102EE600180B7F551239117F09124031EF54F8FF44
:102EF60090033CEFF090033CE0FFEF4402FD7F09B6
:102F0600123ED07F0C1241587F00123CA87F01125E
:102F16003AB87F011241767F001233197F011237CA
:102F2600BB1241B143B10453B2FB53B1F743B208EC
:062F360043B11053B2EF9D
:012F3C002272
:084189007DFF7F7F123ED02272
:0A414E007F61124031EF540FFF2291
:0838CE008F298D2A8A2B8B2C17
:1038D600AD297F60123ED0C3E531952CE530952B9E
:1038E600502312414E90035AEFF090035AE0FFE541
:1038F6002A6F601190035AE0FF7E00EF64084E7055
:0A390600D6800280D290035AE0FF41
:013910002294
:022744008F4EB6
:10274600E5312401FFE5303400FE90035BEEF0A393
:10275600EFF0E54E120BCD277B02279304279B084B
:10276600277310278320278B40000027A190035D45
:102776007401F0802690035D7402F0801E90035D64
:102786007404F0801690035D7406F0800E90035D6D
:102796007403F0800690035D7405F090035BE0FE21
:1027A600A3E0FFC3E5319FE5309E400302288A126D
:1027B600414E90035EEFF0AF4E7E00EF64204E6018
:1027C6000AAF4E7E00EF64404E701A90035EE0FF43
:1027D6007E00EF64034E603B90035EE0FF7E00EFF9
:1027E60064054E602EAF4E7E00EF64044E600AAF65
:1027F6004E7E00EF64084E702E90035EE0FF7E0072
:10280600EF64044E600D90035EE0FF7E00EF640609
:102816004E701490035BE0FAA3E0FB7D027F021288
:1028260038CE90035EEFF090035DE0FF90035EE02C
:10283600FEEE6F601790035DE0FD90035BE0FAA388
:10284600E0FBAF4E1238CE90035EEFF090035EE0F1
:10285600FF7E00EF64084E701490035BE0FAA3E07D
:10286600FB7D027F021238CE90035EEFF090035D8F
:10287600E0FF90035EE0FEEE6F60030227A17F019A
:06288600220227A17F00E1
:01288C002229
:0641B1007F1012274422DA
:0641B7007F0212274422E2
:0641BD007F2012274422BE
:0641C3007F0412274422D4
:0641C9007F401227442292
:0641CF007F0812274422C4
:0A4158008F4FAD4F7F65123ED0225D
:103CDB008F388D3953381F7F66124031EF54E0FF18
:103CEB00EF4238AD387F66123ED053391F7F6712D3
:103CFB004031EF54E0FFEF4239AD397F67123ED0D0
:013D0B002295
:023FC3008F3A33
:103FC5007F661240318F3BE53A6005533BDF800346
:0A3FD500433B20AD3B7F66123ED057
:013FDF0022BF
:023BD2008F5012
:103BD4007F5412403190035FEFF090035FE0FFEFFA
:103BE4005480FF90035FEFF090035FE0FFE55054D3
:103BF4007FFEEF4EFF90035FEFF090035FE0FD7FE9
:043C040054123ED048
:013C08002299
:02345C008F518E
:10345E007F66124031900360EFF0AF517E00EF4E69
:10346E00701E900360E0FFEF4480FF900360EFF06A
:10347E00900360E0FFEF54BFFF900360EFF08026F3
:10348E00AF517E00EF64014E701C900360E0FFEFC1
:10349E00547FFF900360EFF0900360E0FFEF444035
:1034AE00FF900360EFF0900360E0FD7F66123ED068
:0134BE0022EB
:0A4162008F52AD527F68123ED0224A
:023A46008F539C
:103A48007F69124031900361EFF0E55360109003F5
:103A580061E0FFEF54EFFF900361EFF0800E9003F9
:103A680061E0FFEF4410FF900361EFF0900361E025
:063A7800FD7F69123ED043
:013A7E002225
:023A7F008F5462
:103A81007F69124031900362EFF0E55460109003BA
:103A910062E0FFEF4402FF900362EFF0800E9003BB
:103AA10062E0FFEF54FDFF900362EFF0900362E0EC
:063AB100FD7F69123ED00A
:013AB70022EC
:103D0C007F69124031900363EFF0900363E0FFEFA3
:103D1C0054FEFF900363EFF0900363E0FFEF54FB5E
:103D2C00FF900363EFF0900363E0FD7F69123ED0D8
:013D3C002264
:103D3D007F69124031900364EFF0900364E0FFEF70
:103D4D004401FF900364EFF0900364E0FFEF44043F
:103D5D00FF900364EFF0900364E0FD7F69123ED0A5
:013D6D002233
:084191007D047F6C123ED02278
:10404A007F6E124031900365EFF07D017F6C123E66
:06405A00D0900365E0FFB9
:01406000223D
:104061007F6E124031900366EFF07D027F6C123E4D
:06407100D0900366E0FFA1
:014077002226
:101EF300900369E4F090036AE4F090036BE4F07FED
:101F03006612403190036CEFF090036CE0FFEF300A
:101F1300E5047F0180027F0090036CEFF07F6D1278
:101F23004031900367EFF07F6A124031900368EF0E
:101F3300F090036CE0FFEF601A900367E0FFEFF4AB
:101F4300FF900367EFF0900368E0FFEFF4FF900367
:101F530068EFF0900367E0FFEF30E70E90036AE06D
:101F6300FFEF4420FF90036AEFF0900367E0FFEF79
:101F730030E60E90036AE0FFEF4401FF90036AEF3F
:101F8300F0900367E0FFEF30E50E90036AE0FFEFA8
:101F93004401FF90036AEFF0900367E0FFEF30E442
:101FA3001C90036AE0FFEF4410FF90036AEFF09088
:101FB300036BE0FFEF4410FF90036BEFF0900367B8
:101FC300E0FFEF30E31C90036AE0FFEF4408FF906B
:101FD300036AEFF090036BE0FFEF4408FF90036B9D
:101FE300EFF0900367E0FFEF30E21C90036AE0FF3D
:101FF300EF4404FF90036AEFF090036BE0FFEF44BC
:1020030004FF90036BEFF0900367E0FFEF30E11CF8
:1020130090036AE0FFEF4402FF90036AEFF090033E
:102023006BE0FFEF4402FF90036BEFF0900367E078
:10203300FFEF30E01C90036AE0FFEF4401FF9003E1
:102043006AEFF090036BE0FFEF4401FF90036BEF47
:10205300F0900368E0FFEF30E51C900369E0FFEFC9
:102063004402FF900369EFF090036BE0FFEF4480BD
:10207300FF90036BEFF0900368E0FFEF30E41C90F8
:102083000369E0FFEF4401FF900369EFF090036BF6
:10209300E0FFEF4440FF90036BEFF0900368E0FF35
:1020A300EF30E31C900369E0FFEF4404FF90036902
:1020B300EFF090036BE0FFEF4420FF90036BEFF032
:1020C300900369E0FD7F6A123ED090036AE0FD7FD2
:1020D3006B123ED090036CE0FFEF600D90036BE05A
:0E20E300FFEFF4FF90036BEFF090036BE0FF54
:0120F10022CC
:023CA8008F5536
:103CAA007F6912403190036DEFF090036DE0FFEFF2
:103CBA00549FFF90036DEFF090036DE0FFEF4555C1
:103CCA00FF90036DEFF090036DE0FD7F69123ED027
:013CDA0022C7
:023AB8008F5627
:103ABA007F6912403190036EEFF0E5566010900373
:103ACA006EE0FFEF4480FF90036EEFF0800E9003EC
:103ADA006EE0FFEF547FFF90036EEFF090036EE00D
:063AEA00FD7F69123ED0D1
:013AF00022B3
:023AF1008F57ED
:103AF3007F6712403190036FEFF0E557601090033A
:103B03006FE0FFEF4420FF90036FEFF0800E900310
:103B13006FE0FFEF54DFFF90036FEFF090036FE070
:063B2300FD7F67123ED099
:013B29002279
:103B63007F48124031900370EFF07DAA7F48123EE8
:103B7300D07F48124031900371EFF0900370E0FD65
:103B83007F48123ED0900371E0FF7E00EF64AA4E9F
:073B930070037F01227F0097
:013B9A002208
:0641D5007F6F1240312251
:104101007F701240317E00EF2480FFEE34FFFE22EB
:0A416C008F58AD587F63123ED02239
:0A4176008F59AD597F64123ED0222C
:04357B008E3C8F3DB6
:10357F007F45124031900372EFF0900372E0FFEF3E
:10358F00548FFF900372EFF0900372E0FDE53CC49F
:10359F00F854F0C868FEE53DC4540F48FFEF54706F
:1035AF00FFED4FFF900372EFF0900372E0FD7F4548
:1035BF00123ED0AF3DEF54FFFF900372EFF0900338
:0835CF0072E0FD7F46123ED0C0
:0135D70022D1
:023319008F5AC9
:10331B007F0D124031900373EFF0E55A602C900350
:10332B0073E0FFEF4480FF900373EFF0900373E0C3
:10333B00FFEF4440FF900373EFF0900373E0FFEF58
:10334B004420FF900373EFF0802A900373E0FFEFAC
:10335B00547FFF900373EFF0900373E0FFEF54BFC4
:10336B00FF900373EFF0900373E0FFEF54DFFF90D8
:0E337B000373EFF0900373E0FD7F0D123ED060
:013389002221
:023B2A008F5BAF
:103B2C007F67124031900374EFF0E55B60109003F7
:103B3C0074E0FFEF4440FF900374EFF0800E9003AD
:103B4C0074E0FFEF54BFFF900374EFF0900374E048
:063B5C00FD7F67123ED060
:013B62002240
:0237BB008F5C21
:1037BD007F62124031900375EFF0900375E0FFEFDB
:1037CD0054EFFF900375EFF0E55C6010900375E02A
:1037DD00FFEF4420FF900375EFF0800E900375E02E
:1037ED00FFEF54DFFF900375EFF0900375E0FD7F61
:0437FD0062123ED046
:0138010022A4
:1039CF001241B77F61124031900376EFF09003768A
:1039DF00E0FFEF4410FF900376EFF0900376E0FFE7
:1039EF00EF54DFFF900376EFF0900376E0FD7F61F9
:0B39FF00123ED07F00123319121EF39D
:013A0A002299
:083911008F148B158A1689172B
:10391900900377E4F0900377E0FFEFC39518502800
:10392900900377E0FFEF2514FFAB15AA16A91790AE
:103939000377E0FE8E827583001209C2FD123ED024
:0A394900900377E004F080CD7F01C9
:013953002251
:0300000002310BBF
:0C310B00787FE4F6D8FD75815D0231523A
:1008B300E709F608DFFA8046E709F208DFFA803E27
:1008C30088828C83E709F0A3DFFA8032E309F60814
:1008D300DFFA8078E309F208DFFA807088828C837C
:1008E300E309F0A3DFFA806489828A83E0A3F60830
:1008F300DFFA805889828A83E0A3F208DFFA804C0A
:1009030080D280FA80C680D4806980F280338010E0
:1009130080A680EA809A80A880DA80E280CA803349
:1009230089828A83ECFAE493A3C8C582C8CCC583C1
:10093300CCF0A3C8C582C8CCC583CCDFE9DEE78091
:100943000D89828A83E493A3F608DFF9ECFAA9F010
:10095300EDFB2289828A83ECFAE0A3C8C582C8CC66
:10096300C583CCF0A3C8C582C8CCC583CCDFEADE7F
:10097300E880DB89828A83E493A3F208DFF980CCE1
:1009830088F0EF60010E4E60C388F0ED2402B404DA
:100993000050B9F582EB2402B4040050AF23234581
:0609A3008223900903739A
:1009A900BB010689828A83E0225002E722BBFE024C
:0909B900E32289828A83E493227F
:1009C200BB010CE58229F582E5833AF583E02250EA
:1009D20006E92582F8E622BBFE06E92582F8E22234
:0D09E200E58229F582E5833AF583E493224E
:1009EF00BB010689828A83F0225002F722BBFE01E7
:0209FF00F322E1
:100A0100C5F0F8A3E028F0C5F0F8E5821582700280
:060A11001583E038F0221D
:100A1700A3F8E0C5F025F0F0E58215827002158392
:060A2700E0C838F0E822EF
:100A2D00E88FF0A4CC8BF0A42CFCE98EF0A42CFC68
:100A3D008AF0EDA42CFCEA8EF0A4CDA8F08BF0A4E6
:100A4D002DCC3825F0FDE98FF0A42CCD35F0FCEB45
:100A5D008EF0A4FEA9F0EB8FF0A4CFC5F02ECD390A
:0F0A6D00FEE43CFCEAA42DCE35F0FDE43CFC2277
:100A7C0075F008758200EF2FFFEE33FECD33CDCC31
:100A8C0033CCC58233C5829BED9AEC99E5829840B4
:100A9C000CF582EE9BFEED9AFDEC99FC0FD5F0D691
:100AAC00E4CEFBE4CDFAE4CCF9A88222B800C1B9BB
:100ABC000059BA002DEC8BF084CFCECDFCE5F0CBF9
:100ACC00F97818EF2FFFEE33FEED33FDEC33FCEB32
:100ADC0033FB10D703994004EB99FB0FD8E5E4F9ED
:100AEC00FA227818EF2FFFEE33FEED33FDEC33FCDA
:100AFC00C933C910D7059BE99A4007EC9BFCE99ACE
:100B0C00F90FD8E0E4C9FAE4CCFB2275F010EF2F12
:100B1C00FFEE33FEED33FDCC33CCC833C810D70712
:100B2C009BEC9AE899400AED9BFDEC9AFCE899F84D
:0E0B3C000FD5F0DAE4CDFBE4CCFAE4C8F922E0
:10384700C2D5E830E70FB2D5E4C39BFBE49AFAE4AC
:1038570099F9E498F8EC30E717B2D512387D120AD7
:10386700B8E4C39BFBE49AFAE499F9E498F8800377
:10387700120AB830D50DE4C39FFFE49EFEE49DFD18
:04388700E49CFC229F
:100B4A00EB9FF5F0EA9E42F0E99D42F0E89C45F001
:010B5A002278
:100B5B007401FF3395E0FEFDFCA3A3A3E0CF2FF0C0
:100B6B00E582158270021583E0CE3EF0E582158298
:100B7B0070021583E0CD3DF0E5821582700215837E
:050B8B00E0CC3CF0226B
:0C0B9000ECF0A3EDF0A3EEF0A3EFF022D8
:100B9C00A8828583F0D083D082120BB3120BB312D0
:100BAC000BB3120BB3E473E493A3C583C5F0C583F5
:100BBC00C8C582C8F0A3C583C5F0C583C8C582C8A3
:010BCC002206
:100BCD00D083D082F8E4937012740193700DA3A3B7
:100BDD0093F8740193F5828883E4737402936860CB
:060BED00EFA3A3A380DFCB
:1031170002288DE493A3F8E493A34003F68001F219
:1031270008DFF48029E493A3F85407240CC8C333B9
:10313700C4540F4420C8834004F456800146F6DF88
:10314700E4800B0102040810204080901418E47EEC
:10315700019360BCA3FF543F30E509541FFEE4937D
:10316700A360010ECF54C025E060A840B8E493A344
:10317700FAE493A3F8E493A3C8C582C8CAC583CA6F
:10318700F0A3C8C582C8CAC583CADFE9DEE780BE27
:011669000080
:00000001FF
