:10243D00123C37123406123CC1123AC0122AEA126B
:10244D0032A6123B5B12309B123D5D123D17121CE2
:10245D00CCD2AF123D61900256E4F0A3741EF0127F
:10246D003D591212A4122B8E122DC5900236E0FF8B
:10247D007E00EF4E70E9900253E0FF7E00EF4E704C
:10248D00DE900244E0FFEFC4135407FFEF5401FF49
:10249D007E00EF64014E70C790023EE0FEA3E0FFA8
:1024AD00EF64024E60B9900244E0FFEF5401FF7EED
:1024BD0000EF4E70AA900244E0FFEF54DFFF900250
:1024CD0044EFF0C2E8900225E0FFEF4420FF9002B8
:1024DD0025EFF0900225E0FFEFC41313135401FF15
:1024ED00EF5401FF7E00EF64014E7005123D5980DF
:1024FD00E2900225E0FFEFC41313135401FFEF54D4
:10250D0001FF7E00EF4E70CB900242E0FF7E00C3D4
:10251D00EF9401EE6480948040B9900242E0FF7E1A
:10252D0000D3EF9404EE6480948050A71212A4128D
:08253D003D59809F02246C222D
:1034060075E78075E30075E44075E50475E21075AF
:10341600E64675E6B90075E50075E7007F64123C7F
:103426005D75E78075E30075E44175E50475E20AAC
:1034360075E64675E6B90075E50075E7007F641226
:033446003C5D22C8
:103C3700439701E5E154F8FFEF4404F5E143E180E0
:043C470043E1202213
:043D590043E1102210
:1032A6005391F1D291D292D29343B4045395FDD265
:1032B600A14395815395DFD2A543B41043B420C2F0
:1032C600A053B1CF43B23043B301C2B4C2A7C2E8E0
:1032D600D2B55395A3D2A2D2A3D2A4D2A643B10407
:0932E60053B2FB53B3FDD2E922FF
:0C0016004391B05391BFD29643B408222E
:0C3C9D0053910FD296D294D295D2972268
:0C3CA90053C1CFD28853A1FE43C10122B9
:0C3CB50053C13FD28A53A1FD43C102223B
:030003000235863D
:10358600C0E0C0F0C083C082C0D075D000C000C00B
:1035960001C002C003C004C005C006C0071225450D
:1035A600D007D006D005D004D003D002D001D00079
:0B35B600D0D0D082D083D0F0D0E03223
:03001300020022C6
:0100220032AB
:063D1700123CA9D2A82213
:09105D0042038000000230000093
:103AC000E58954FCFFEF4401F58953A1EF43A304BA
:103AD0005389FB5389F7758A48758CF4D28CD2A927
:013AE00022C3
:03000B0002298E39
:10298E00C0E0C083C082C0D075D000C006C007753D
:10299E008CF4758A48900244E0FFEF4440FF9002A9
:1029AE0044EFF00531E5317002053090026AE0FF28
:1029BE00EF600890026AE014F0801490026A74646A
:1029CE00F0900244E0FFEF4480FF900244EFF0905D
:1029DE000380E0FEA3E0FFEF4E600E900381E02443
:1029EE00FFF0900380E034FFF090026FE0FEA3E072
:1029FE00FFEF4E6025900245E0FFEFC313FFEF544B
:102A0E0001FF7E00EF64014E701E900270E024FF05
:102A1E00F090026FE034FFF0800E90024BE0FFEF7B
:102A2E00600690024BE014F0D007D006D0D0D082D2
:052A3E00D083D0E0325E
:10337D00E5D954F1FFEF440AF5D975AC0175DA02C0
:10338D0075AC0075AC01E5F244C0F5F275AC0053B7
:10339D00BC7F75AC01800543F203800975EA127597
:1033AD00FAFD53F2FC75AC0075F9FA75E92475CF89
:0533BD00FA75CE242288
:043D5D0012337D227E
:033D6500D2DE2289
:05000600C2DEC2A022D1
:103C5D008F3EAF3E7E00EF4E60060000153E80F2B7
:013C6D002234
:103BF6008F3FAF3F153FEF600C7F64123C5D7F64E3
:063C0600123C5D80ED227E
:0239FB008F40FB
:1039FD00AF407E64EF8EF0A4FFAEF0E4FCFD9003CB
:103A0D007812073E90037874FF12070BEC4D4E4F62
:053A1D0060030080EFD2
:013A22002281
:0239A4008F4151
:1039A600AF417E0AEF8EF0A4FFAEF0E4FCFD90037B
:1039B6007C12073E90037C74FF12070BEC4D4E4FB2
:0939C60060077F011239FB80EB60
:0139CF0022D5
:10106600410234004102350048020C000000000035
:1010760000000044023819656378410244004102C9
:101086004500410240004102250041024C00410258
:101096004E006028028500000000000000000000ED
:1010A600000000000000000000000000000000003A
:1010B60000000000000000000000000000004402E4
:1010C6001A0000000044022A0000000041025400F9
:1010D60042021400004102470041024D0042023222
:1010E600000042026F000041024B0042026B00000A
:1010F60041024A00410246004102190041026A00CB
:10110600410236004102270050027500000000002F
:10111600000000000000000000000050025A00001D
:101126000000000000000000000000000000410276
:101136003700410243004102300042023C000042B7
:1011460002B900004102420041025300410231004F
:1011560041020B0042022E0000420228000041021A
:101166002400420248000042026D000041021600BF
:101176004102AD004902B00000000000000000007E
:10118600410252004202AE00004202170000440231
:10119600710000000042024F00004102510041026E
:1011A60026004402200000000042021E0000420207
:1011B60058000042023E000041025500420256001D
:0511C6000041024100A0
:10309B0090026A7464F090024C741AF090024CE047
:1030AB00FFEF14FF900236EFF0123C4B900230749E
:1030BB00FFF090023774FFF0900243E4F09002406F
:1030CB00E0FFEF4440FF900240EFF0900240E0FF42
:1030DB00EF547FFF900240EFF01232EF9002B9E411
:0D30EB00F0A3E4F090026DE4F0A3E4F02205
:103C6E00FBBFDFEFF79FAFB7BBCFDBEBE7F3FDFE9D
:013C7E00FF46
:1012A400900244E0FFEF20E6030214DE900244E0E3
:1012B400FFEF54BFFF900244EFF0900256E0FEA30C
:1012C400E0FFEF4E600E900257E024FFF0900256CC
:1012D400E034FFF09002AEE0FEA3E0FFEF4E600EBC
:1012E4009002AFE024FFF09002AEE034FFF09002F1
:1012F40028E0FEA3E0FFEF4E600E900229E024FFF9
:10130400F0900228E034FFF090026DE0FEA3E0FFCD
:10131400EF4E600E90026EE024FFF090026DE03418
:10132400FFF090022EE0FEA3E0FFEF4E601090026B
:101334002FE024FFF090022EE034FFF0800E9002A4
:1013440025E0FFEF54F7FF900225EFF0900225E02F
:10135400FFEF30E33590022EE0FEA3E0FFEF4E6096
:1013640029900249E004F07006900248E004F090ED
:101374000248E0FEA3E0FFC3EF945AEE9400400A53
:10138400900248E4F0A3E4F0B2A79002B9E0FEA30F
:10139400E0FFEF4E600E9002BAE024FFF09002B935
:1013A400E034FFF090026FE0FEA3E0FFEF4E6046F2
:1013B400900245E0FFEFC313FFEF5401FF7E00EFFF
:1013C4004E60030214BB900245E0FFEF4402FF901D
:1013D4000245EFF0900245E0FFEF54FBFF90024519
:1013E400EFF0123D65900245E0FFEF20E3030214A5
:1013F400BBD2A70214BB90024BE0FFEF6044900203
:1014040045E0FFEF1313543FFFEF5401FF7E00EF5D
:101414004E60030214BB900245E0FFEF4404FF90CA
:101424000245EFF0900245E0FFEF54FDFF900245C6
:10143400EFF0120006900245E0FFEF30E379C2A717
:101444008075900246E0FFEF605F900246E014F082
:1014540090026BE0FEA3E0FF90026FEEF0A3EFF0CA
:1014640090024AE0FF90024BEFF0900245E0FFEF5C
:10147400C313FFEF5401FF7E00EF4E703A90024514
:10148400E0FFEF4402FF900245EFF0900245E0FFD9
:10149400EF54FBFF900245EFF0123D65900245E0EA
:1014A400FFEF30E312D2A7800E900245E0FFEF5425
:1014B400F7FF900245EFF0120AC8900225E0FFEF13
:1014C400C4135407FFEF5401FF7E00EF64014E6024
:0B14D40009121FF512004E123D5922B4
:102B8E00900244E0FFEF30E74C900244E0FFEF5438
:102B9E007FFF900244EFF0900255E0FFEF60069049
:102BAE000255E014F0900244E0FFEFC4135407FF07
:102BBE00EF5401FF7E00EF64014E7019900236E073
:102BCE00FFEF6011900253E0FF7E00EF4E70069013
:102BDE000236E014F0900380E0FEA3E0FFEF4E70AB
:102BEE003B900244E0FFEF5401FF7E00EF64014E84
:102BFE00702A900244E0FFEF54FEFF900244EFF083
:102C0E00900225E0FFEF131313541FFFEF5401FF43
:0D2C1E007E00EF4E7002C2A7D2B5C2B322F5
:100AC800900243E4F090023774FFF0900226E0FFB2
:100AD8007E00EF64024E7003020DD0A292E433FF51
:100AE800120026A291E433FF120026A2A5E433FFE8
:100AF8001200267F01120026A2A1E433FF1200266D
:100B08007F011200267F01120026900230E0FF903C
:100B18000237E0FEEE6F6025900237E0FF9002306A
:100B2800EFF0123C4B1232EF90021E7413F0A374D4
:100B380088F09002587427F0A37474F02290023C55
:100B480074FF75F0FF1205AFAFF0FEEF4E600302C1
:100B58000DD090023CE4F0A37401F0900237E0FF5E
:100B68007E00EF64FF4E7003020C5690021EE0FEFA
:100B7800A3E0FFEF4E600E90021FE024FFF090020A
:100B88001EE034FFF0900258E0FEA3E0FFEF4E6055
:100B98000E900259E024FFF0900258E034FFF090E4
:100BA8000226E0FF7E00EF64014E6018900225E007
:100BB800FFEF20E60F900258E0FEA3E0FFEF4E6043
:100BC80003020C56900225E0FFEFC413135403FFF1
:100BD800EF5401FF7E00EF4E705C900225E0FFEFBE
:100BE8004440FF900225EFF0900258E0FEA3E0FF9A
:100BF800EF4E701190026BE4F0A37467F090024A14
:100C08007467F0800F90026BE4F0A37428F09002F0
:100C18004A743CF090026BE0FEA3E0FF90026FEE96
:100C2800F0A3EFF090024AE0FF90024BEFF0900241
:100C3800467402F08018900246E0FF7E00D3EF94DD
:100C480001EE6480948050069002467402F090038E
:100C58008CE4F090038CE0FF7E00C3EF9411EE6407
:100C6800809480502890038CE0FFEF903C6E93FFB7
:100C7800900237E0FEEEB5070C90038CE0FF90027F
:100C880042EFF0800890038CE004F080C690038C5B
:100C9800E0FF7E0090023EEEF0A3EFF0900225E028
:100CA800FFEFC4135407FFEF5401FF7E00EF640108
:100CB8004E7003020DD090038CE0FF7E00EF6411AC
:100CC8004E7023900240E0FFEF54BFFF900240EFC8
:100CD800F01232EF900240E0FFEF4480FF900240B4
:100CE800EFF0123A9A22900240E0FFEF30E763906B
:100CF8000237E0FF7E00EF64FF4E605690038CE001
:100D0800FF7E00EF64054E603790038CE0FF7E00A5
:100D1800EF64064E602A90038CE0FF7E00EF6407C4
:100D28004E601D90038CE0FF7E00EF64094E60105A
:100D380090038CE0FF7E00EF640C4E6003020DD040
:100D4800900244E0FFEF5401FF7E00EF4E7079807F
:100D5800012290038CE0FFEF12077B0D9A000D9E95
:100D6800010D9E020D9E030D9E040DB1050DB106E9
:100D78000DB1070DB5080DB1090DB90A0DBD0B0D63
:100D8800B10C0DC10D0DC50E0DC90F0DCD10000014
:100D98000DD012263822900244E0FFEF5401FF7E66
:100DA80000EF4E7023120DD1221237BA22122F18DB
:100DB8002212320122123155221231AB221200497D
:080DC8002212004A22122FDF63
:010DD0002200
:1037BA00123A9A900243E4F0900242E0FF900242E9
:1037CA00E0FD121B1E1232EF900240E0FFEF54BFE1
:1037DA00FF900240EFF0900240E0FFEF4480FF903C
:0537EA000240EFF02297
:102F1800123A9A900240E0FFEF54BFFF900240EF50
:102F2800F0900240E0FFEF20E244900240E0FFEF23
:102F38004404FF900240EFF09002B9740BF0A374C0
:102F4800B8F0900244E0FFEFC4135407FFEF5401B8
:102F5800FF7E00EF4E701C900244E0FFEF4420FF1C
:102F6800900244EFF0D2E8900236744EF0227F08C7
:042F78001237842266
:10315500123A9A900240E0FFEF20E344900240E0EB
:10316500FFEF4408FF900240EFF09002B9740BF0B6
:10317500A374B8F0900244E0FFEFC4135407FFEFC7
:103185005401FF7E00EF4E701C900244E0FFEF44B7
:1031950020FF900244EFF0D2E8900236744EF02200
:0631A5007F0B12378422AB
:1031AB00123A9A900240E0FFEF20E444900240E094
:1031BB00FFEF4410FF900240EFF09002B9740BF058
:1031CB00A374B8F0900244E0FFEFC4135407FFEF71
:1031DB005401FF7E00EF4E701C900244E0FFEF4461
:1031EB0020FF900244EFF0D2E8900236744EF022AA
:0631FB007F0D1237842253
:10320100123A9A900240E0FFEF20E144900240E040
:10321100FFEF4402FF900240EFF09002B9740BF00F
:10322100A374B8F0900244E0FFEFC4135407FFEF1A
:103231005401FF7E00EF4E701C900244E0FFEF440A
:1032410020FF900244EFF0D2E8900236744EF02253
:063251007F0A12378422FF
:103784008F429002B9E0FEA3E0FFEF4E6027900263
:10379400B974FF75F0FF1205AFAFF0FEEF4E701570
:1037A4007D00AF42121B1E900225E0FFEF4480FF14
:0637B400900225EFF02257
:10263800123A9A900240E0FFEF20E6030226E1906A
:102648000240E0FFEF54BFFF900240EFF0900243DA
:102658007405F01232EF900240E0FFEF4401FF9062
:102668000240EFF09002B9740BF0A374B8F0900236
:102678006DE0FEA3E0FFEF4E703C900244E0FFEFF8
:10268800C4135407FFEF5401FF7E00EF4E701690FD
:102698000244E0FFEF4420FF900244EFF0D2E890BC
:1026A80002367433F090026D7427F0A37410F09022
:1026B80002167402F022900216E014FFF0EF705830
:1026C8007F01123A73900243E4F0900240E0FFEF7A
:1026D8004480FF900240EFF022900240E0FFEF308C
:1026E800E0369002B9E0FEA3E0FFEF4E602A9002C8
:1026F800B974FF75F0FF1205AFAFF0FEEF4E70181A
:102708007F02123A73900243E4F0900240E0FFEF38
:092718004480FF900240EFF02222
:100DD100123A23EF7003020EFE900225E0FFEF208E
:100DE100E015900225E0FFEF20E10C900225E0FFE5
:100DF100EF20E20302105C9002B9E0FEA3E0FFEFF6
:100E01004E600302105C900225E0FFEFC4131354FF
:100E110003FFEF5401FF7E00EF4E600302105C9070
:100E2100021EE0FEA3E0FFEF4E600302105C9002A1
:100E310025E0FFEF20E009900225E0FFEF30E21A04
:100E4100900253740AF0900243E4F0900240E0FFF4
:100E5100EF4480FF900240EFF0229002537401F0C2
:100E61007B017D677F677E00123257900245E0FF6C
:100E7100EF4408FF900245EFF0900244E0FFEFC419
:100E8100135407FFEF5401FF7E00EF4E701A9002DA
:100E910044E0FFEF4420FF900244EFF0D2E89002DB
:100EA1004CE0FF900236EFF0900228740FF0A3742B
:100EB100A0F0900243E4F0900240E0FFEF54BFFF46
:100EC100900240EFF0900240E0FFEF4480FF90027B
:100ED10040EFF0900240E0FFEF4420FF900240EF2E
:100EE100F0900225E0FFEF20E00302105C90024049
:100EF100E0FFEF54DFFF900240EFF0222290024228
:100F0100E0FF900243EFF0900253E0FFEF60030235
:100F1100105C9002ADE0FFEF600122900243E0FF20
:100F2100EF12077B0F32010F4C020F660300000F17
:100F31007E900225E0FFEF4401FF900225EFF09043
:100F410002B97413F0A37488F08032900225E0FF97
:100F5100EF4402FF900225EFF09002B97413F0A361
:100F61007488F08018900225E0FFEF4404FF90029E
:100F710025EFF09002B97413F0A37488F090022465
:100F8100E0FFEF600D900243E0FF7E00EF64044E4E
:100F91007019123A9A900242E0FF900242E0FD126B
:100FA1001B1E90026DE4F0A3E4F022900253E0FFD7
:100FB100EF600302105C9002ADE0FFEF6001229050
:100FC1000243E0FF7E00EF64024E7039123A9A90BC
:100FD1000242E0FF900242E0FD121B1E90026DE40E
:100FE100F0A3E4F0900225E0FFEF4408FF90022512
:100FF100EFF090022E740BF0A374B8F0900248E465
:10100100F0A3E4F022900243E0FFEF12077B1019F6
:10101100011019030000105C900225E0FFEF30E39E
:101021003A90022EE0FEA3E0FFEF4E602E900225E3
:10103100E0FFEF54F7FF900225EFF090022EE4F06D
:10104100A3E4F0900242E0FF900242E0FD121B1E79
:0C10510090026DE4F0A3E4F0123A9A2241
:010049002294
:01004A002293
:102FDF00900225E0FFEF54FEFF900225EFF09002E4
:102FEF0025E0FFEF54FDFF900225EFF0900225E062
:102FFF00FFEF54FBFF900225EFF0900225E0FFEF6B
:10300F0054BFFF900225EFF01232EF900240E0FF25
:10301F00EF4440FF900240EFF0900240E0FFEF548A
:0E302F007FFF900240EFF090024374FFF0220A
:103C4B0090023CE4F0A3740AF09002B9E4F0A3E410
:023C5B00F02255
:1032EF00900240E0FFEF54FEFF900240EFF090029B
:1032FF0040E0FFEF54FDFF900240EFF0900240E0FE
:10330F00FFEF54FBFF900240EFF0900240E0FFEF21
:10331F0054F7FF900240EFF0900240E0FFEF54EFC0
:07332F00FF900240EFF022C5
:103A9A00900253E4F09002317402F090020B740227
:103AAA00F090022EE0FEA3E0FFEF4E600890022E97
:063ABA00E4F0A3E4F02299
:103A2300900240E0FFEF20E6037F0122900240E096
:103A3300FFEF54BFFF900240EFF09002B9E4F0A310
:083A4300E4F01232EF7F0022D3
:041B1E008F328D3342
:101B220090024EE0FF7E00C3EF9445EE6480948005
:101B32005063900244E0FFEFC4135407FFEF5401D7
:101B4200FF7E00EF64014E704C900236E0FF7E0093
:101B5200C3EF9419EE64809480503A900236E0FF0D
:101B6200C374199FFF90038DEFF090038DE0FF90F7
:101B7200024EE02FF090024EE0FF7E00C374459FBC
:101B8200FFE49EFEC3EF941BEE64809480400690B7
:101B920002367419F0900236E0FF7E00C3EF94190A
:101BA200EE64809480500E900255E0FF7E00EF4E6E
:101BB2006003021CC9900244E0FFEFC4135407FF04
:101BC200EF5401FF7E00EF4E701A900244E0FFEFE7
:101BD2004420FF900244EFF0D2E890024CE0FF90E4
:101BE2000236EFF0E53212077B1C0D011C15021CB8
:101BF2001D031C25041C35051C3D061C45071C4DF8
:101C0200091C2D0A1C550C00001C5B900254740820
:101C1200F080469002547404F0803E9002547402A4
:101C2200F080369002547401F0802E9002547414A5
:101C3200F08026900254740CF0801E900254740AB4
:101C4200F080169002547409F0800E9002547406CB
:101C5200F080069002547403F0E53312077B1C7384
:101C6200011C80021C8D031C9A041CA71400001C7A
:101C7200B27B007D677F677E0012325780327B0124
:101C82007D677F677E0012325780257B027D677FEA
:101C9200677E0012325780187B007D0A7FF47E0136
:101CA200123257800B7B007D0A7FE87E0312325787
:101CB20030B507C2B57F02123BF6122A4312217CCD
:091CC2009002557419F022C2A72A
:011CCB0022F6
:10004E00900253E0FFEF12077B00790100A9020135
:10005E000003017B0401B405023D0602760702FF90
:10006E000802FF0904540A00000460900240E0FFF9
:10007E00EF20E7119002287403F0A374E8F09002C9
:10008E0053E004F022900228E0FEA3E0FFEF4E6062
:10009E0003020460900253740AF022900228E0FEDC
:1000AE00A3E0FFEF4E7029900253E004F090022877
:1000BE00740BF0A374B8F07B007D677F677E00122F
:1000CE003257900245E0FFEF4408FF900245EFF0F3
:1000DE00900243E0FF7E00EF4E7003020460900238
:1000EE0043E0FF7E00EF64FF4E7003020460123A9D
:1000FE009A22900228E0FEA3E0FFEF4E7004123A1F
:10010E009A22900243E0FF7E00EF4E7003020460DD
:10011E00900243E0FF7E00EF64FF4E7001229002DA
:10012E0040E0FFEF30E523900243E0FF7E00EF64F6
:10013E00024E70119002287403F0A374E8F090023E
:10014E0053E004F022123A9A2222900243E0FF7EFC
:10015E0000EF64014E70119002287403F0A374E84E
:10016E00F0900253E004F022123A9A2222900228D2
:10017E00E0FEA3E0FFEF4E6003020460900253E046
:10018E0004F0900228740BF0A374B8F07B007D6726
:10019E007F677E00123257900245E0FFEF4408FF62
:1001AE00900245EFF022900228E0FEA3E0FFEF4E12
:1001BE007004123A9A22900243E0FF7E00EF4E70D6
:1001CE0003020460900243E0FF7E00EF64FF4E7076
:1001DE000122900240E0FFEF30E531900243E0FF54
:1001EE007E00EF64024E701F9002287403F0A37419
:1001FE00E8F0900253E004F0900240E0FFEF4480FC
:10020E00FF900240EFF022123A9A2222900243E02F
:10021E00FF7E00EF64014E70119002287403F0A36C
:10022E0074E8F0900253E004F022123A9A222290DF
:10023E000228E0FEA3E0FFEF4E600302046090028E
:10024E0053E004F0900228740BF0A374B8F07B0214
:10025E007D677F677E00123257900245E0FFEF44C4
:10026E0008FF900245EFF022900228E0FEA3E0FF87
:10027E00EF4E7004123A9A22900243E0FF7E00EF96
:10028E004E7003020460900243E0FF7E00EF64FFB5
:10029E004E700122900240E0FFEF30E531900243B4
:1002AE00E0FF7E00EF64024E701F9002287427F06C
:1002BE00A37410F0900253E004F0900240E0FFEFC0
:1002CE004480FF900240EFF022123A9A22229002CE
:1002DE0043E0FF7E00EF64014E70119002287427F8
:1002EE00F0A37410F0900253E004F022123A9A2216
:1002FE0022900228E0FEA3E0FFEF4E7004123A9A1D
:10030E0022900243E0FF7E00EF4E700302046090E5
:10031E000243E0FF7E00EF64FF4E70012290024028
:10032E00E0FFEF20E5030203CA900243E0FF7E00E8
:10033E00EF64024E60030203C5900253E0FF7E009D
:10034E00EF64094E706A900224E0FF90038EEFF086
:10035E0090038EE0FFEF600790038EE4F08006902E
:10036E00038E7401F090038EE0FF900224EFF07B79
:10037E00017A0279247513017FF97E7F1214DF7BD7
:10038E00047D677F677E00123257900245E0FFEFD3
:10039E004408FF900245EFF0900225E0FFEF54F77E
:1003AE00FF900225EFF09002367414F0123A9A2262
:1003BE00900253E004F022123A9A2222900243E075
:1003CE00FF7E00EF64014E7078900253E0FF7E00D6
:1003DE00EF64094E7064900224E0FF90038EEFF0FC
:1003EE0090038EE0FFEF600790038EE4F08006909E
:1003FE00038E7401F090038EE0FF900224EFF07BE9
:10040E00017A0279247513017FF97E7F1214DF7B46
:10041E00047D677F677E00123257900245E0FFEF42
:10042E004408FF900245EFF0900225E0FFEF54F7ED
:10043E00FF900225EFF0123A9A22900253E004F058
:10044E0022123A9A2222900240E0FFEF20E7031296
:02045E003A9AC8
:010460002279
:101FF500123D1DEF700302217B900244E0FFEFC408
:10200500135407FFEF5401FF7E00EF4E701090024E
:1020150044E0FFEF4420FF900244EFF0D2E8900245
:10202500AEE0FEA3E0FFEF4E60319002367433F070
:10203500900249E004F07006900248E004F0900236
:1020450048E0FEA3E0FFC3EF94F4EE9401401E9038
:102055000248E4F0A3E4F0B2A780127B027DFA7F88
:10206500F47E01123257C2A79002ADE4F09002430C
:10207500E0FFEF12077B208B0120CC0220FE03211D
:1020850017050000217B900252E0FF74B02FF58206
:10209500E43402F583E004FFF0EFD3943940129065
:1020A5000252E0FF74B02FF582E43402F5837430F8
:1020B500F07B007D677F677E001232579002AE7419
:1020C500C3F0A37450F022900252E004FFF07E00AA
:1020D500D3EF9408EE64809480400890025274080F
:1020E500F0800B7B017D677F677E0012325790027F
:1020F500AE74C3F0A37450F0221238E97B007D0A58
:102105007FE87E031232579002AE74C3F0A3745079
:10211500F022900252E0FF7E00C3EF9408EE648047
:10212500948040527B017A0279B0122CB7900391CA
:10213500E0FCA3E0FDA3E0FEA3E0FF90022A120766
:102145003E7FFE7EFF7DFF7C0090022AE0F8A3E043
:10215500F9A3E0FAA3E0FBD31206F8400D7B037D5B
:10216500647F647E0012325780077D147F14121B32
:072175001E9002ADE4F02210
:062CB7008B1D8A1E891F1F
:102CBD0090039112074A0000000090038FE4F090FA
:102CCD00038FE0FF7E00C3EF9408EE648094805084
:102CDD0061AB1DAA1EA91F90038FE0FF8F82758324
:102CED0000120570FFEF24D0FF900390EFF07F0AE4
:102CFD007E007D007C00900391E0F8A3E0F9A3E055
:102D0D00FAA3E0FB1205DBA804A905AA06AB079000
:102D1D000390E0FFE4FCFDFEEB2FFFEA3EFEE93DF4
:102D2D00FDE83CFC90039112073E90038FE004F008
:022D3D00808D87
:012D3F002271
:103A73008F43123D1DEF701E9002ADE543F01238E7
:103A8300E97B007D0A7FE87E031232579002AE7411
:073A9300C3F0A37450F02200
:063D1D009002ADE0FF2260
:1038E900900252E4F0754400AF447E00C3EF94089F
:1038F900EE648094805013AF4474B02FF582E434A1
:0F39090002F5837430F0054480DE9002B8E4F0DC
:01391800228C
:100026008F45900237E0FFEF25E0FF900237EFF0B3
:10003600E545600E900237E0FFEF4401FF9002377E
:03004600EFF022B6
:103257008E198F1A8D1B8B1C900225E0FFEFC4136C
:10326700135403FFEF5401FF7E00EF4E70309002BE
:103277006BE519F0A3E51AF090024AE51BF09002FE
:103287006BE0FEA3E0FF90026FEEF0A3EFF0900279
:0F3297004AE0FF90024BEFF0900246E51CF02258
:101CCC00309303021E1B900235E0FFEF5401FF7EA0
:101CDC0000EF4E7020900235E0FFEF4401FF9002C0
:101CEC0035EFF0D2E8D2A71237EFD2AF90024B7497
:101CFC00C8F0123D6590024BE0FF7E00EF4E700382
:101D0C00120006123D59209246900244E0FFEFC3A8
:101D1C0013FFEF5401FF7E00EF4E7033900244E04E
:101D2C00FFEF4402FF900244EFF030B507C2B57FDD
:101D3C0002123BF6122A437F01123CEA123D47C2C3
:101D4C00B3900245E0FFEF547FFF900245EFF03077
:101D5C00920E900244E0FFEF54FDFF900244EFF02E
:101D6C00209138900244E0FFEF1313543FFFEF54DF
:101D7C0001FF7E00EF4E7023900244E0FFEF44041D
:101D8C00FF900244EFF0123D2FD2B5C2B390024542
:101D9C00E0FFEF547FFF900245EFF030910E900280
:101DAC0044E0FFEF54FBFF900244EFF020A5499074
:101DBC000244E0FFEF131313541FFFEF5401FF7E97
:101DCC0000EF4E7033900244E0FFEF4408FF9002A6
:101DDC0044EFF030B507C2B57F02123BF6122A432E
:101DEC007F00123CEA123D47C2B3900245E0FFEF80
:101DFC004480FF900245EFF030A50E900244E0FFC6
:101E0C00EF54F7FF900244EFF01207A1021CCC90A4
:101E1C000235E0FFEF5401FF7E00EF64014E7011BC
:101E2C00900235E0FFEF54FEFF900235EFF0120008
:101E3C000EC2E8C2A7900244E0FFEF54FDFF9002EF
:101E4C0044EFF0900244E0FFEF54FBFF900244EFAC
:101E5C00F0900244E0FFEF54F7FF900244EFF022C1
:10254500900244E0FFEF5401FF7E00EF64014E600E
:102555000302261C900214E0FEA3E0FF7E00EF5468
:1025650007FFEF4E7024900214E0FEA3E0FFEF7822
:1025750003CEC313CE13D8F9FF74852FF5827402E9
:102585003EF583E0FF90024DEFF090024DE0FFEF46
:1025950030E704D2B38002C2B390024DE0FFEF25CD
:1025A500E0FF90024DEFF0900215E004F070069008
:1025B5000214E004F0900232E0FEA3E0FF90021462
:1025C500E0FCA3E0FDC3ED9FEC9E4066900214E4A1
:1025D500F0A3E4F0900247E004F0900247E0FF7EAC
:1025E50000C3EF9403EE648094804046900244E07B
:1025F500FFEF54FEFF900244EFF0900225E0FFEF5D
:10260500131313541FFFEF5401FF7E00EF4E7002AA
:10261500C2A7D2B5C2B322900245E0FFEFC413139F
:10262500135401FFEF5401FF7E00EF64014E700269
:03263500B2B3221B
:10217C0090028574FFF09003827401F0900382E06A
:10218C00FF7E00D3EF940DEE64809480501A900380
:10219C0082E0FF74852FF582E43402F5837455F0E8
:1021AC00900382E004F080D49002937415F0D2A7CF
:1021BC009002ADE0FF7E00EF4E7043900232E4F0EF
:1021CC00A374E0F07B017A02791AC003C002C0014B
:1021DC007B007A007909A801AC02AD03D001D002D2
:1021EC00D0037E007F04120531900254E0FF8F0D66
:1021FC007F0F121E6C9002A074FFF00222B09002AE
:10220C00327401F0A37440F07B017A02791AC00396
:10221C00C002C0017B007A007909A801AC02AD03B1
:10222C00D001D002D0037E007F04120531750D80E1
:10223C007F0F121E6C9002ADE0FF7E00EF64014E2A
:10224C00702F7B017A02792AC003C002C0017B0087
:10225C007A007909A801AC02AD03D001D002D003F9
:10226C007E007F04120531750DFF7F1B121E6C80E2
:10227C002D7B017A02792AC003C002C0017B007A4F
:10228C00007909A801AC02AD03D001D002D0037EC5
:10229C00007F04120531750D007F1B121E6C90021D
:1022AC00AC74FFF0900214E4F0A3E4F0900247E465
:1022BC00F090024DE4F0123D47900244E0FFEF44F1
:1022CC0001FF900244EFF09002ADE0FF7E00EF4E74
:1022DC00700B9003807402F0A37426F0229003809C
:0722EC007403F0A37420F05D
:0122F30022C8
:021E6C008F08DD
:101E6E00AF0C122EAA900383EEF0A3EFF090038333
:101E7E00E0FFAE08050874852EF582E43402F58382
:101E8E00EFF0900384E0FFAE08050874852EF5820E
:101E9E00E43402F583EFF0AF0B122EAA900383EE1B
:101EAE00F0A3EFF0900383E0FFAE08050874852ED3
:101EBE00F582E43402F583EFF0900384E0FFAE0880
:101ECE00050874852EF582E43402F583EFF0AF0A2F
:101EDE00122EAA900383EEF0A3EFF0900383E0FF9F
:101EEE00AE08050874852EF582E43402F583EFF012
:101EFE00900384E0FFAE08050874852EF582E43465
:101F0E0002F583EFF0AF0D122EAA900383EEF0A32D
:101F1E00EFF0900383E0FFAE08050874852EF5827E
:101F2E00E43402F583EFF0900384E0FFAE08050879
:101F3E0074852EF582E43402F583EFF0900384E588
:101F4E000AF0900383E50DF0900386E50CF0900304
:101F5E0085E50BF0900385E0FEA3E0FF900383E0A0
:101F6E00FCA3E0FDED2FFFEC3EFE900387EEF0A309
:101F7E00EFF0900388E0FF122EAA900383EEF0A3F9
:101F8E00EFF0900383E0FFAE08050874852EF5820E
:101F9E00E43402F583EFF0900384E0FFAE08050809
:101FAE0074852EF582E43402F583EFF0900387E01A
:101FBE00FF122EAA900383EEF0A3EFF0900383E0BE
:101FCE00FFAE08050874852EF582E43402F583EF22
:101FDE00F0900384E0FFAE08050874852EF582E4C8
:061FEE003402F583EFF060
:011FF40022CA
:022EAA008F4651
:102EAC0090038BE4F090038BE0FF7E00C3EF94085B
:102EBC00EE64809480504C900389E0FEA3E0FFEF19
:102ECC007802C333CE33CED8F9FF900389EEF0A34A
:102EDC00EFF0E54630E01090038AE0FFEF4402FF8C
:102EEC0090038AEFF0800E90038AE0FFEF4401FF1D
:102EFC0090038AEFF0E546C313F54690038BE0048C
:0B2F0C00F080A2900389E0FEA3E0FF2C
:012F17002297
:103B5B0043920143C48053C31F53C3FC43C310534D
:0C3B6B00C3FB53BB9F53C4D843AD0222E0
:03004B0002272168
:10272100C0E0C0F0C083C082C0D075D000C000C07E
:0D27310001C002C003C004C005C006C007FF
:10273E0090039CE5C6F090039DE5C5F0900271E014
:10274E00F8A3E0F9A3E0FAA3E0FB90039CE0FEA35C
:10275E00E0FFEE540FFEE4FCFDEB2FFFEA3EFEE938
:10276E003DFDE83CFC90027112073E900251E004E0
:10277E00F053C4EF43C408900251E0FF7E00C3EF54
:10278E009414EE64809480405653ADFD53C47F90F4
:10279E000251E4F07B147A0079007800900271E027
:1027AE00FCA3E0FDA3E0FEA3E0FF12066690024F3D
:1027BE00EEF0A3EFF090024FE0FEA3E0FFAB07AA0E
:1027CE0006E4F9F87F007E107D0E7C001233C29075
:0F27DE00022012073E90027112074A000000000D
:1027ED00D007D006D005D004D003D002D001D00040
:0B27FD00D0D0D082D083D0F0D0E032EA
:043D610043C408222D
:102DC500900256E0FEA3E0FFEF4E60677F607E094C
:102DD5007D007C00900220E0F8A3E0F9A3E0FAA3CF
:102DE500E0FBD31206F84006900226E4F0227F604D
:102DF5007E097D007C00900220E0F8A3E0F9A3E0C5
:102E0500FAA3E0FBD31206F850237F987E087D00D5
:102E15007C00900220E0F8A3E0F9A3E0FAA3E0FB30
:102E2500D31206F840079002267401F0229002267C
:042E35007402F02211
:0411CB0041020A00D3
:0B3CC10075BF0B7D7C7F031239D02201
:0439D0008F348D356E
:1039D400A2AF9200C2AF75E3008534E48535E27589
:1039E400E50475E78075E64675E6B90075E500758A
:0639F400E700A20092AF03
:0139FA0022AA
:0A14DF008E0E8F0F8B108A118912F8
:1014E900A2AF9201C2AF900202E4F0E50E54FEFEF3
:1014F9007F00900203EEF0A3EFF0900200E4F0A366
:10150900E4F0900200E0FEA3E0FFC3EE940250561F
:10151900900203E0FF8FE3900204E0FF8FE475E59A
:101529000175E78075E64675E6B975E50075E7006A
:10153900900204E004F07006900203E004F09002C7
:1015490000E0FEA3E0FF74002FF58274003EF583EE
:10155900E5E2F0123D59900201E004F070069002B4
:1015690000E004F0809CE50E5401FEAF0F900200EC
:10157900EEF0A3EFF0AF137E00EF4E603BAB10AA85
:1015890011A912120557FF900200E0FCA3E0FD74B7
:10159900002DF58274003CF583EFF074012512F5F6
:1015A90012E43511F511900201E004F07006900281
:1015B90000E004F0151380BDE50E54FEFE7F009097
:1015C9000203EEF0A3EFF0900203E0FF8FE375E46E
:1015D9000075E50375E78075E64675E6B90075E5BA
:1015E9000075E700900200E4F0A3E4F0900200E047
:1015F900FEA3E0FFC3EE94025058900200E0FEA360
:10160900E0FF74002FF58274003EF583E0FF8FE25E
:10161900900203E0FF8FE3900204E0FF8FE475E599
:101629000275E78075E64675E6B90075E50075E768
:1016390000900204E004F07006900203E004F01246
:101649003D59900201E004F07006900200E004F0B8
:10165900809AE50E54FEFE7F00900203EEF0A3EFA0
:10166900F0900200E4F0A3E4F0900200E0FEA3E0B1
:10167900FFC3EE94025078900203E0FF8FE39002DB
:1016890004E0FF8FE475E50175E78075E64675E6C8
:10169900B975E50075E700900204E004F070069062
:1016A9000203E004F0123D59900200E0FEA3E0FFBE
:1016B90074002FF58274003EF583E0FFEF65E26068
:1016C9001D900202E004F0900202E0FF7E00C3EFE9
:1016D9009403EE64809480501B0215C18016900219
:1016E90001E004F07006900200E004F00216729026
:0D16F9000202E4F0A20192AF900202E0FFB5
:0117060022C0
:102AEA00900209E4F0907FF9E493FF900224EFF05A
:102AFA00900224E0FF7E00D3EF9401EE648094807C
:102B0A004005900224E4F0900205E4F0907FFBE493
:102B1A0093FF900206EFF0907FFCE493FF90020788
:102B2A00EFF0907FFDE493FF900208EFF07F007EC4
:102B3A00007D007C00900205E0F8A3E0F9A3E0FA2A
:102B4A00A3E0FBC31206F8601C7FFF7EFF7DFF7CBB
:102B5A0000900205E0F8A3E0F9A3E0FAA3E0FBC3C2
:102B6A001206F8700A90020512074A000000009047
:102B7A000205E0FCA3E0FDA3E0FEA3E0FF90021A39
:032B8A0012073EF1
:012B8D002225
:0E3C8F00284F4B29285747290000000000004D
:1011CF00410335004103370041032B0041032D003C
:1011DF0041032C00602902D800000000000000002D
:1011EF0000000000000000000000000000000000F0
:1011FF0000000000000000000000000000000000E0
:10120F000060290301000000000000000000000042
:10121F0000000000000000000000000000000000BF
:10122F000000000000000000000000000000440269
:10123F00D2000000004103390043032E0203004196
:10124F00032A0041033800410336004102D6004112
:0A125F0002D7004403310000000034
:1037EF00539CEFC29FD29ED29CC2CDC2CC539C7F22
:1037FF00438780539CBFE58954CFFFEF4420F58961
:10380F0043A3085389BF53897F758DED758BEDD217
:04381F008ED2AC2277
:05000E00C28EC2AC220D
:03002300022808A8
:0F280800C0E0C083C082C0D075D000C006C0073A
:102817009002BBE4F0C0AC75AC00309902C29920BD
:1028270098030228BFC2989002BBE599F09002BBBB
:10283700E0FFEFB42805900227E4F09002BBE0FF29
:10284700900227E0FE74752EF582E43402F583EFDB
:10285700F0900227E0FFEF04FFEF541FFF900227DD
:10286700EFF09002BBE0FFEF6429704C9002BBE4ED
:10287700F0900227E0FF9002BBE0FEEEC39F502AD4
:102887009002BBE0FF74752FF582E43402F583E014
:10289700FF9002BBE0FE745A2EF582E43402F58302
:1028A700EFF09002BBE004F080C7900225E0FFEF55
:0A28B7004410FF900225EFF0D0ACB2
:0D28C100D007D006D0D0D082D083D0E03236
:023C22008F47CA
:103C2400A2AC9202C2AC8547993099FDC299A20216
:023C340092AC50
:013C3600226B
:08350D008B218A2289238D2401
:103515009002BCE4F09002BCE4F09002BCE0FFEF46
:10352500C39524501FAB21AA22A9239002BCE0FF1A
:103535008F82758300120570FF123C229002BCE059
:0435450004F080D638
:01354900225F
:023977008F4877
:10397900AF487E00C3EF943AEE64809480500CE522
:1039890048540FFF9002BDEFF0800AE54824C9FFB3
:0A3999009002BDEFF09002BDE0FFC8
:0139A3002201
:023919008F49D4
:10391B0053490FAF497E00C3EF940AEE6480948045
:10392B00500CE5494430FF9002BEEFF0800AE549A8
:0D393B002437FF9002BEEFF09002BEE0FFC7
:01394800225C
:043B20008F2D8D2E2A
:103B2400AF2D123977EFC454F0FDAF2E123977EF71
:093B3400540FFFED2FF52FAF2F08
:013B3D002265
:1007A1007BFF7A3C798FC003C002C0017B017A02D2
:1007B10079C3A801AC02AD03D001D002D0037E0001
:1007C1007F041205319002C7E4F07BFF7A3C7993F4
:1007D100C003C002C0017B017A0279C8A801AC0242
:1007E100AD03D001D002D0037E007F0A1205319003
:1007F1000225E0FFEF20E403020AC7900225E0FF93
:10080100EF54EFFF900225EFF090025BE0FFEF1253
:10081100077B096C4509A74609E54B08A152093B2D
:100821005308295700000AC790025CE0FFEF6447B4
:100831006003020AC79002BFE4F0900278E0FF90E3
:100841000279E0FD123B209002C0EFF090027AE0C5
:10085100FF90027BE0FD123B209002C1EFF090027D
:100861007CE0FF90027DE0FD123B209002C2EFF0A0
:100871009002BFE0FCA3E0FDA3E0FEA3E0FF900235
:100881001A12073E7B017A0279C07513037FFB7E42
:100891007F1214DF7B017A0279C37D0412350D22A8
:1008A10090025CE0FFEF64476003020AC79002C850
:1008B1007428F09002C97452F09002CA7447F09003
:1008C10002CB7429F090021BE0FFEFC4540FFF121A
:1008D10039199002CCEFF090021BE0FFEF540FFFAB
:1008E1001239199002CDEFF090021CE0FFEFC454D1
:1008F1000FFF1239199002CEEFF090021CE0FFEFCA
:10090100540FFF1239199002CFEFF090021DE0FF52
:10091100EFC4540FFF1239199002D0EFF090021D6D
:10092100E0FFEF540FFF1239199002D1EFF07B0174
:100931007A0279C87D0A12350D2230B507C2B57F1A
:1009410002123BF6122A437F01123CEA123D47C2D2
:10095100B3900245E0FFEF547FFF900245EFF07B3B
:10096100017A0279C37D0412350D2290025CE0FF09
:10097100EF644E6003020AC790025DE0FFEF64443A
:100981006003020AC7123D2FD2B5C2B3900245E0FF
:10099100FFEF547FFF900245EFF07B017A0279C3AC
:1009A1007D0412350D2290025CE0FFEF644D60037F
:1009B100020AC730B507C2B57F02123BF6122A43BD
:1009C1007F00123CEA123D47C2B3900245E0FFEFBF
:1009D1004480FF900245EFF07B017A0279C37D04E8
:1009E10012350D2290025CE0FFEF64596003020AA8
:1009F100C790025DE0FFEF64296003020AC790021D
:100A0100C87428F09002C9744BF09002CA7459F06E
:100A1100900241E4F0A292E433FFEF5401FF90020F
:100A210041E0FEEE54FEFEEE4FFF900241EFF0A2D8
:100A310091E433FFEF5401FFEF25E0FF900241E025
:100A4100FEEE54FDFEEE4FFF900241EFF0A2A5E451
:100A510033FFEF5401FFEF25E025E0FF900241E075
:100A6100FEEE54FBFEEE4FFF900241EFF0A2A1E437
:100A710033FFEF5401FFEF33333354F8FF9002415A
:100A8100E0FEEE54F7FEEE4FFF900241EFF09002D0
:100A910041E0FFEF54FFFFEFC4540FFF12391990EB
:100AA10002CBEFF0900241E0FFEF540FFF12391932
:100AB1009002CCEFF09002CD7429F07B017A02799B
:060AC100C87D0612350D90
:010AC700220C
:103B7700900395E4F0A37404F090039574FF75F037
:0B3B8700FF1205C5AFF0FEEF4E70EE20
:013B92002210
:103B9300900397E4F0A37402F090039774FF75F019
:0B3BA300FF1205C5AFF0FEEF4E70EE04
:013BAE0022F4
:103AE100D294439110D294C297439180C297D296B7
:103AF1005391BFD296D2A2439504D2A2123B9322F4
:023716008F4AD8
:10371800900399E4F0900399E0FF7E00C3EF9408CA
:10372800EE64809480501DC297E54A30E704D29633
:103738008002C296E54A25E0F54AD297900399E0BF
:0437480004F080D138
:01374C00225A
:10303D0090039B74FFF090039AE4F090039AE0FFE5
:10304D007E00C3EF9408EE64809480503BC297904D
:10305D00039BE0FFEF25E0FF90039BEFF0D297304D
:10306D00961090039BE0FFEF4401FF90039BEFF060
:10307D00800E90039BE0FFEF54FEFF90039BEFF05B
:0D308D0090039AE004F080B390039BE0FFF5
:01309A002213
:103A4B008F368D37D2965391BFC297D2A2C294E5CF
:103A5B0036547FFF123716AF37123716C297D294F0
:083A6B00D2965391BFD29622BE
:1034CF008F258B268A278928D2965391BFC297437F
:1034DF009180C297D2A2C294E5254480FF1237167D
:1034EF005391BFD29612303DAB26AA27A928EF12CF
:0E34FF00059DC297D294D2965391BFD29622C9
:103C0C0043B10853B2F743B10453B2FB43B1105361
:063C1C00B2EF123AE122B2
:023BAF008F4B3A
:103BB10090039E74FFF07B017A03799EAF4B123420
:063BC100CF90039EE0FF1F
:013BC70022DB
:1028CE000066EC1CF0801408910202D0AEE03500D8
:1028DE0000F410E24220008141E27E1941CCCC1876
:1028EE00190C00BBC09B06019F392929C0A2545365
:1028FE000000B40000010000420800550400000072
:10290E000000155555000B0000000000000000608F
:10291E00FF00001F107083010086D0001F043F7F50
:10292E000066EC1CF0801408910202D0AEE0350077
:10293E0000F410E24220008141E27E1941CCCC1815
:10294E00190C00BBC09B060A9F392929C0A25453FB
:10295E000000B40000010000500A00550400000001
:10296E000000155555000B0000000000000000602F
:10297E00FF02001F107483010086D00008013F5F24
:101269004103590043034700000043034A000000BB
:1012790042034D000042034F0000440351FFFFFFAA
:10128900FF440355FFFFFFFF44033E0000000044F5
:0A12990003420000000041033D0085
:102D4000123C0C12354A7BFF7A2879CE75180C7F1D
:102D50000012348C7BFF7A2879DA75180C7F0C12FC
:102D6000348C7BFF7A2879E67518087F1812348C2A
:102D70007BFF7A2879EE7518187F2012348C7BFF40
:102D80007A29790675181D7F3812348C7BFF7A29D1
:102D9000792375180B7F5512348C7F09123BAFEFE6
:102DA00054F8FF90033AEFF090033AE0FFEF44024B
:102DB000FD7F09123A4B123B011236DE7E00EF4EC8
:042DC000700280FE1F
:012DC40022EC
:103B01007F15123CD67D077F0A1238567F3F123C43
:0F3B1100E07F00122E397F01123336123D2F2232
:093CFE008F4C900359E54CF022B3
:063D2300900359E0FF22AD
:063D290090033DE0FF22C3
:1017070090033B7401F0900359E0FFEF12077B173A
:10171700380017400117730217DD03180F0418204C
:1017270005187A0618DD0718F008190009000019CE
:101737001990033BE4F0021919123D3512191F12D3
:101747003887123BDF123D4D7E00EF4E7008900345
:10175700597409F080069003597402F0AE30AF3126
:10176700E4FCFD90033E12073E02191930B20690C1
:1017770003597403F07FFF7EFF7DFF7CFF900351C9
:10178700E0F8A3E0F9A3E0FAA3E0FBC31206F870C0
:1017970003021919AE30AF31E4FCFD90033EE0F8C7
:1017A700A3E0F9A3E0FAA3E0FBC3EF9BFFEE9AFEE9
:1017B700ED99FDEC98FC900351E0F8A3E0F9A3E064
:1017C700FAA3E0FBC31206F8400302191990035964
:1017D7007404F0021919123D35900347E0FBA3E0AA
:1017E700FAA3E0F990034DE0FCA3E0FD120000121C
:1017F700191F90033DEFF0123D2F900359E4F0902D
:10180700033B7402F0021919123D2F900359E4F0BB
:1018170090033B7403F0021919123D3512191F1278
:1018270038B8123BC890034AE0FBA3E0FAA3E0F9FB
:1018370090034FE0FCA3E0FD1200007F6E123BAF68
:101847007E00EF20E1069003597409F0123D477EB0
:1018570000EF4E70089003597409F0800690035901
:101867007406F0AE30AF31E4FCFD90034212073E40
:1018770002191930B3069003597407F07FFF7EFFF2
:101887007DFF7CFF900355E0F8A3E0F9A3E0FAA3FE
:10189700E0FBC31206F8607AAE30AF31E4FCFD908E
:1018A7000342E0F8A3E0F9A3E0FAA3E0FBC3EF9B50
:1018B700FFEE9AFEED99FDEC98FC900355E0F8A336
:1018C700E0F9A3E0FAA3E0FBC31206F85044900343
:1018D700597408F0803C12191F123D2F900359E4E8
:1018E700F090033B7404F08029123D2F900359E4D4
:1018F700F090033B7405F08019123D077F141239ED
:10190700A4123D35123B01900359E4F090033B7458
:0719170006F090033BE0FF26
:01191E0022A6
:103949008F4D123D077F141239A4123D35E54D60A4
:10395900077F1D123CD680057F1D123CD612191F08
:0E3969007F00122E397F01123336123D2F22BD
:102A430012354A7BFF7A29792E75180C7F001234D0
:102A53008C7BFF7A29793A75180C7F0C12348C7BA6
:102A6300FF7A2979467518087F1812348C7BFF7A10
:102A730029794E7518187F2012348C7BFF7A2979B7
:102A83006675181D7F3812348C7BFF7A297983751C
:102A9300180B7F5512348C7F09123BAFEF54F8FFAC
:102AA30090033CEFF090033CE0FFEF4402FD7F090D
:102AB300123A4B7F0C123CD67F001238237F01124F
:102AC30036337F01123CF47F00122E397F0112331B
:102AD30036123D2F43B10453B2FB53B1F743B2084F
:062AE30043B11053B2EFF5
:012AE90022CA
:083D07007DFF7F7F123A4B2281
:0A3CCC007F61123BAFEF540FFF229F
:083449008F298D2A8A2B8B2CA0
:10345100AD297F60123A4BC3E531952CE530952BB0
:103461005023123CCC90035AEFF090035AE0FFE551
:103471002A6F601190035AE0FF7E00EF64084E70DE
:0A348100D6800280D290035AE0FFCB
:01348B00221E
:0222F4008F4E0B
:1022F600E5312401FFE5303400FE90035BEEF0A3E8
:10230600EFF0E54E12077B232B02234304234B08F1
:10231600232310233320233B400000235190035DE9
:102326007401F0802690035D7402F0801E90035DB8
:102336007404F0801690035D7406F0800E90035DC1
:102346007403F0800690035D7405F090035BE0FE75
:10235600A3E0FFC3E5319FE5309E400302243A1215
:102366003CCC90035EEFF0AF4E7E00EF64204E60F3
:102376000AAF4E7E00EF64404E701A90035EE0FF97
:102386007E00EF64034E603B90035EE0FF7E00EF4D
:1023960064054E602EAF4E7E00EF64044E600AAFB9
:1023A6004E7E00EF64084E702E90035EE0FF7E00C6
:1023B600EF64044E600D90035EE0FF7E00EF64065E
:1023C6004E701490035BE0FAA3E0FB7D027F0212DD
:1023D600344990035EEFF090035DE0FF90035EE00A
:1023E600FEEE6F601790035DE0FD90035BE0FAA3DD
:1023F600E0FBAF4E12344990035EEFF090035EE0CF
:10240600FF7E00EF64084E701490035BE0FAA3E0D1
:10241600FB7D027F0212344990035EEFF090035D6C
:10242600E0FF90035EE0FEEE6F60030223517F0142
:06243600220223517F0089
:01243C00227D
:063D2F007F101222F422B5
:063D35007F021222F422BD
:063D3B007F201222F42299
:063D41007F041222F422AF
:063D47007F401222F4226D
:063D4D007F081222F4229F
:0A3CD6008F4FAD4F7F65123A4B226D
:103856008F388D3953381F7F66123BAFEF54E0FF28
:10386600EF4238AD387F66123A4B53391F7F6712E5
:103876003BAFEF54E0FFEF4239AD397F67123A4B69
:01388600221F
:023B3E008F3ABC
:103B40007F66123BAF8F3BE53A6005533BDF800356
:0A3B5000433B20AD3B7F66123A4B69
:013B5A002248
:02374D008F509B
:10374F007F54123BAF90035FEFF090035FE0FFEF0A
:10375F005480FF90035FEFF090035FE0FFE550545C
:10376F007FFEEF4EFF90035FEFF090035FE0FD7F72
:04377F0054123A4B5B
:013783002223
:022F7C008F5173
:102F7E007F66123BAF900360EFF0AF517E00EF4ED5
:102F8E00701E900360E0FFEF4480FF900360EFF04F
:102F9E00900360E0FFEF54BFFF900360EFF08026D8
:102FAE00AF517E00EF64014E701C900360E0FFEFA6
:102FBE00547FFF900360EFF0900360E0FFEF44401A
:102FCE00FF900360EFF0900360E0FD7F66123A4BD6
:012FDE0022D0
:0A3CE0008F52AD527F68123A4B225A
:0235C1008F5326
:1035C3007F69123BAF900361EFF0E5536010900306
:1035D30061E0FFEF54EFFF900361EFF0800E900383
:1035E30061E0FFEF4410FF900361EFF0900361E0AF
:0635F300FD7F69123A4B56
:0135F90022AF
:0235FA008F54EC
:1035FC007F69123BAF900362EFF0E55460109003CB
:10360C0062E0FFEF4402FF900362EFF0800E900344
:10361C0062E0FFEF54FDFF900362EFF0900362E075
:06362C00FD7F69123A4B1C
:013632002275
:103887007F69123BAF900363EFF0900363E0FFEFB4
:1038970054FEFF900363EFF0900363E0FFEF54FBE8
:1038A700FF900363EFF0900363E0FD7F69123A4BEB
:0138B70022EE
:1038B8007F69123BAF900364EFF0900364E0FFEF81
:1038C8004401FF900364EFF0900364E0FFEF4404C9
:1038D800FF900364EFF0900364E0FD7F69123A4BB8
:0138E80022BD
:083D0F007D047F6C123A4B2287
:103BC8007F6E123BAF900365EFF07D017F6C123A78
:063BD8004B900365E0FFC5
:013BDE0022C4
:103BDF007F6E123BAF900366EFF07D027F6C123A5F
:063BEF004B900366E0FFAD
:013BF50022AD
:10191F00900369E4F090036AE4F090036BE4F07FC6
:10192F0066123BAF90036CEFF090036CE0FFEF306B
:10193F00E5047F0180027F0090036CEFF07F6D1252
:10194F003BAF900367EFF07F6A123BAF900368EFF6
:10195F00F090036CE0FFEF601A900367E0FFEFF485
:10196F00FF900367EFF0900368E0FFEFF4FF900341
:10197F0068EFF0900367E0FFEF30E70E90036AE047
:10198F00FFEF4420FF90036AEFF0900367E0FFEF53
:10199F0030E60E90036AE0FFEF4401FF90036AEF19
:1019AF00F0900367E0FFEF30E50E90036AE0FFEF82
:1019BF004401FF90036AEFF0900367E0FFEF30E41C
:1019CF001C90036AE0FFEF4410FF90036AEFF09062
:1019DF00036BE0FFEF4410FF90036BEFF090036792
:1019EF00E0FFEF30E31C90036AE0FFEF4408FF9045
:1019FF00036AEFF090036BE0FFEF4408FF90036B77
:101A0F00EFF0900367E0FFEF30E21C90036AE0FF16
:101A1F00EF4404FF90036AEFF090036BE0FFEF4495
:101A2F0004FF90036BEFF0900367E0FFEF30E11CD2
:101A3F0090036AE0FFEF4402FF90036AEFF0900318
:101A4F006BE0FFEF4402FF90036BEFF0900367E052
:101A5F00FFEF30E01C90036AE0FFEF4401FF9003BB
:101A6F006AEFF090036BE0FFEF4401FF90036BEF21
:101A7F00F0900368E0FFEF30E51C900369E0FFEFA3
:101A8F004402FF900369EFF090036BE0FFEF448097
:101A9F00FF90036BEFF0900368E0FFEF30E41C90D2
:101AAF000369E0FFEF4401FF900369EFF090036BD0
:101ABF00E0FFEF4440FF90036BEFF0900368E0FF0F
:101ACF00EF30E31C900369E0FFEF4404FF900369DC
:101ADF00EFF090036BE0FFEF4420FF90036BEFF00C
:101AEF00900369E0FD7F6A123A4B90036AE0FD7F35
:101AFF006B123A4B90036CE0FFEF600D90036BE0BD
:0E1B0F00FFEFF4FF90036BEFF090036BE0FF2D
:011B1D0022A5
:023823008F55BF
:103825007F69123BAF90036DEFF090036DE0FFEF02
:10383500549FFF90036DEFF090036DE0FFEF45554A
:10384500FF90036DEFF090036DE0FD7F69123A4B39
:013855002250
:023633008F56B0
:103635007F69123BAF90036EEFF0E5566010900383
:103645006EE0FFEF4480FF90036EEFF0800E900375
:103655006EE0FFEF547FFF90036EEFF090036EE096
:06366500FD7F69123A4BE3
:01366B00223C
:02366C008F5776
:10366E007F67123BAF90036FEFF0E557601090034A
:10367E006FE0FFEF4420FF90036FEFF0800E90039A
:10368E006FE0FFEF54DFFF90036FEFF090036FE0FA
:06369E00FD7F67123A4BAC
:0136A4002203
:1036DE007F48123BAF900370EFF07DAA7F48123AFD
:1036EE004B7F48123BAF900371EFF0900370E0FDFB
:1036FE007F48123A4B900371E0FF7E00EF64AA4EB2
:07370E0070037F01227F0020
:013715002291
:063D53007F6F123BAF225E
:103C7F007F70123BAF7E00EF2480FFEE34FFFE22F9
:0A3CEA008F58AD587F63123A4B2249
:0A3CF4008F59AD597F64123A4B223C
:0430F8008E3C8F3D3E
:1030FC007F45123BAF900372EFF0900372E0FFEF4D
:10310C00548FFF900372EFF0900372E0FDE53CC426
:10311C00F854F0C868FEE53DC4540F48FFEF5470F6
:10312C00FFED4FFF900372EFF0900372E0FD7F45CF
:10313C00123A4BAF3DEF54FFFF900372EFF0900348
:08314C0072E0FD7F46123A4BD0
:013154002258
:022E39008F5AAE
:102E3B007F0D123BAF900373EFF0E55A602C9003BC
:102E4B0073E0FFEF4480FF900373EFF0900373E0A8
:102E5B00FFEF4440FF900373EFF0900373E0FFEF3D
:102E6B004420FF900373EFF0802A900373E0FFEF91
:102E7B00547FFF900373EFF0900373E0FFEF54BFA9
:102E8B00FF900373EFF0900373E0FFEF54DFFF90BD
:0E2E9B000373EFF0900373E0FD7F0D123A4BCE
:012EA9002206
:0236A5008F5B39
:1036A7007F67123BAF900374EFF0E55B6010900308
:1036B70074E0FFEF4440FF900374EFF0800E900337
:1036C70074E0FFEF54BFFF900374EFF0900374E0D2
:0636D700FD7F67123A4B73
:0136DD0022CA
:023336008F5CAA
:103338007F62123BAF900375EFF0900375E0FFEFEB
:1033480054EFFF900375EFF0E55C6010900375E0B3
:10335800FFEF4420FF900375EFF0800E900375E0B7
:10336800FFEF54DFFF900375EFF0900375E0FD7FEA
:0433780062123A4B58
:01337C00222E
:10354A00123D357F61123BAF900376EFF090037620
:10355A00E0FFEF4410FF900376EFF0900376E0FF70
:10356A00EF54DFFF900376EFF0900376E0FD7F6182
:0B357A00123A4B7F00122E3912191F6D
:013585002223
:08348C008F148B158A168917B5
:10349400900377E4F0900377E0FFEFC3951850288A
:1034A400900377E0FFEF2514FFAB15AA16A9179038
:1034B4000377E0FE8E82758300120570FD123A4B8D
:0A34C400900377E004F080CD7F0153
:0134CE0022DB
:03000000022C2BA4
:0C2C2B00787FE4F6D8FD75815C022C7205
:10046100E709F608DFFA8046E709F208DFFA803E7D
:1004710088828C83E709F0A3DFFA8032E309F6086A
:10048100DFFA8078E309F208DFFA807088828C83D2
:10049100E309F0A3DFFA806489828A83E0A3F60886
:1004A100DFFA805889828A83E0A3F208DFFA804C60
:1004B10080D280FA80C680D4806980F28033801037
:1004C10080A680EA809A80A880DA80E280CA8033A0
:1004D10089828A83ECFAE493A3C8C582C8CCC58318
:1004E100CCF0A3C8C582C8CCC583CCDFE9DEE780E8
:1004F1000D89828A83E493A3F608DFF9ECFAA9F067
:10050100EDFB2289828A83ECFAE0A3C8C582C8CCBC
:10051100C583CCF0A3C8C582C8CCC583CCDFEADED5
:10052100E880DB89828A83E493A3F208DFF980CC37
:1005310088F0EF60010E4E60C388F0ED2402B40430
:100541000050B9F582EB2402B4040050AF232345D7
:0605510082239004B17347
:10055700BB010689828A83E0225002E722BBFE02A2
:09056700E32289828A83E49322D5
:10057000BB010CE58229F582E5833AF583E0225040
:1005800006E92582F8E622BBFE06E92582F8E2228A
:0D059000E58229F582E5833AF583E49322A4
:10059D00BB010689828A83F0225002F722BBFE013D
:0205AD00F32237
:1005AF00C5F0F8A3E028F0C5F0F8E58215827002D7
:0605BF001583E038F02274
:1005C500A3F8E0C5F025F0F0E582158270021583E9
:0605D500E0C838F0E82246
:1005DB00E88FF0A4CC8BF0A42CFCE98EF0A42CFCBF
:1005EB008AF0EDA42CFCEA8EF0A4CDA8F08BF0A43D
:1005FB002DCC3825F0FDE98FF0A42CCD35F0FCEB9C
:10060B008EF0A4FEA9F0EB8FF0A4CFC5F02ECD3960
:0F061B00FEE43CFCEAA42DCE35F0FDE43CFC22CD
:10062A0075F008758200EF2FFFEE33FECD33CDCC87
:10063A0033CCC58233C5829BED9AEC99E58298400A
:10064A000CF582EE9BFEED9AFDEC99FC0FD5F0D6E7
:10065A00E4CEFBE4CDFAE4CCF9A88222B800C1B911
:10066A000059BA002DEC8BF084CFCECDFCE5F0CB4F
:10067A00F97818EF2FFFEE33FEED33FDEC33FCEB88
:10068A0033FB10D703994004EB99FB0FD8E5E4F943
:10069A00FA227818EF2FFFEE33FEED33FDEC33FC30
:1006AA00C933C910D7059BE99A4007EC9BFCE99A24
:1006BA00F90FD8E0E4C9FAE4CCFB2275F010EF2F69
:1006CA00FFEE33FEED33FDCC33CCC833C810D70769
:1006DA009BEC9AE899400AED9BFDEC9AFCE899F8A4
:0E06EA000FD5F0DAE4CDFBE4CCFAE4C8F92237
:1033C200C2D5E830E70FB2D5E4C39BFBE49AFAE436
:1033D20099F9E498F8EC30E717B2D51233F81206EF
:1033E20066E4C39BFBE49AFAE499F9E498F8800353
:1033F20012066630D50DE4C39FFFE49EFEE49DFDF8
:04340200E49CFC2228
:1006F800EB9FF5F0EA9E42F0E99D42F0E89C45F058
:0107080022CE
:100709007401FF3395E0FEFDFCA3A3A3E0CF2FF016
:10071900E582158270021583E0CE3EF0E5821582EE
:1007290070021583E0CD3DF0E582158270021583D4
:05073900E0CC3CF022C1
:0C073E00ECF0A3EDF0A3EEF0A3EFF0222E
:10074A00A8828583F0D083D08212076112076112D2
:10075A000761120761E473E493A3C583C5F0C583F7
:10076A00C8C582C8F0A3C583C5F0C583C8C582C8F9
:01077A00225C
:10077B00D083D082F8E4937012740193700DA3A30D
:10078B0093F8740193F5828883E473740293686021
:06079B00EFA3A3A380DF21
:102C370002243DE493A3F8E493A34003F68001F252
:102C470008DFF48029E493A3F85407240CC8C3339E
:102C5700C4540F4420C8834004F456800146F6DF6D
:102C6700E4800B010204081020408090105DE47E90
:102C7700019360BCA3FF543F30E509541FFEE49362
:102C8700A360010ECF54C025E060A840B8E493A329
:102C9700FAE493A3F8E493A3C8C582C8CAC583CA54
:102CA700F0A3C8C582C8CAC583CADFE9DEE780BE0C
:0112A300004A
:00000001FF
