:1028320012403E12389B1240D9123EE6123121124A
:1028420036B1123F9D122F7F12417512412F12167F
:102852001DD2AF124179900256E4F0A3741EF01219
:102862004171121C901213E2122EE212322D9002CA
:1028720036E0FF7E00EF4E70E6900253E0FF7E00EE
:10288200EF4E70DB900244E0FFEFC4135407FFEFFA
:102892005401FF7E00EF64014E70C490023EE0FEE0
:1028A200A3E0FFEF64024E60B6900244E0FFEF54F3
:1028B20001FF7E00EF4E70A7900244E0FFEF54DF6D
:1028C200FF900244EFF0C2E8900225E0FFEF4420BF
:1028D200FF900225EFF0900225E0FFEFC4131313DF
:1028E2005401FFEF5401FF7E00EF64014E700512A8
:1028F200417180E2900225E0FFEFC41313135401EB
:10290200FFEF5401FF7E00EF4E70CB900242E0FFDA
:102912007E00C3EF9401EE6480948040B99002423D
:10292200E0FF7E00D3EF9404EE6480948050A712FF
:0B29320013E2124171809F0228612215
:10389B0075E78075E30075E44075E50475E2107516
:1038AB00E64675E6B90075E50075E7007F641240E2
:1038BB006475E78075E30075E44175E50475E20A0C
:1038CB0075E64675E6B90075E50075E7007F64128D
:0338DB0040642224
:10403E00439701E5E154F8FFEF4404F5E143E180D5
:04404E0043E1202208
:0441710043E11022F4
:1036B1005391F1D291D292D29343B4045395F5D25E
:1036C100A1D2A34395815395DFD2A543B41043B44E
:1036D10020C2A053B1CF43B23043B301C2B4C2A799
:1036E100C2E8D2B55395A3D2A2D2A3D2A4D2A64303
:0B36F100B10453B2FB53B3FDD2E92239
:0C0016004391B05391BFD29643B408222E
:0C40B50053910FD296D294D295D297224C
:0C40C10053C1CFD28853A1FE43C101229D
:0C40CD0053C13FD28A53A1FD43C102221F
:030003000239A11E
:1039A100C0E0C0F0C083C082C0D075D000C000C0EC
:1039B10001C002C003C004C005C006C00712293DF2
:1039C100D007D006D005D004D003D002D001D0005A
:0B39D100D0D0D082D083D0F0D0E03204
:03001300020022C6
:0100220032AB
:06412F001240C1D2A822DB
:091194004203800000023000005B
:103EE600E58954FCFFEF4401F58953A1EF43A30490
:103EF6005389FB5389F7758A48758CF4D28CD2A9FD
:013F06002298
:03000B00022D863D
:102D8600C0E0C083C082C0D075D000C006C0077541
:102D96008CF4758A48900244E0FFEF4440FF9002AD
:102DA60044EFF00531E5317002053090026AE0FF2C
:102DB600EF600890026AE014F0801490026A74646E
:102DC600F0900244E0FFEF4480FF900244EFF09061
:102DD6000380E0FEA3E0FFEF4E600E900381E02447
:102DE600FFF0900380E034FFF090026FE0FEA3E076
:102DF600FFEF4E6025900245E0FFEFC313FFEF544F
:102E060001FF7E00EF64014E701E900270E024FF09
:102E1600F090026FE034FFF0800E90024BE0FFEF7F
:102E2600600690024BE014F0D007D006D0D0D082D6
:052E3600D083D0E03262
:10378A00E5D954F1FFEF440AF5D975AC0175DA02AF
:10379A0075AC0075AC01E5F244C0F5F275AC0053A6
:1037AA00BC7F75AC01800543F203800975EA127586
:1037BA00FAFD53F2FC75AC0075F9FA75E92475CF78
:0537CA00FA75CE242277
:0441750012378A2251
:03417D00D2DE226D
:05000600C2DEC2A022D1
:104064008F3EAF3E7E00EF4E60060000153E80F2AC
:014074002229
:103FFD008F3FAF3F153FEF600C7F641240647F64CD
:06400D0012406480ED2268
:023E49008F40A8
:103E4B00AF407E08EF8EF0A4FFAEF0E4FCFD9003D4
:103E5B0078120B9090037874FF120B5DEC4D4E4F64
:053E6B0060030080EF80
:013E7000222F
:023DF2008F41FF
:103DF400AF417E02EF8EF0A4FFAEF0E4FCFD900331
:103E04007C120B9090037C74FF120B5DEC4D4E4FB3
:093E140060077F01123E4980EBBA
:013E1D002282
:10119D004102340041023500015D0048020C00009F
:1011AD0000000000000044023819656378410244D4
:1011BD000041024500410240004102250041024C20
:1011CD000041024E00602802850000000000000072
:1011DD000000000000000000000000000000000002
:1011ED0000000000000000000000000000000000F2
:1011FD000044021A0000000044022A0000000041D1
:10120D0002540042021400004102470041024D0009
:10121D00420232000042026F000041024B004202C6
:10122D006B000041024A0041024600410219004193
:10123D00026A00410236004102270050027500008B
:10124D00000000000000000000000000000050023F
:10125D005A00000000000000000000000000000027
:10126D000041023700410243004102300042023C7E
:10127D0000004202B9000041024200410253004108
:10128D0002310041020B0042022E000042022800F2
:10129D000041022400420248000042026D0000415C
:1012AD000216004102AD004902B00000000000002E
:1012BD00000000410252004202AE0000420217003F
:1012CD00004402710000000042024F000041025133
:1012DD0000410226004402200000000042021E00D0
:1012ED0000420258000042023E00004102550042F9
:0812FD0002560000410241000D
:102F7F0090026A7464F090024C741AF090024CE064
:102F8F00FFEF14FF900236EFF012405290023074B0
:102F9F00FFF090023774FFF0900243E4F09002408C
:102FAF00E0FFEF4440FF900240EFF0900240E0FF5F
:102FBF00EF547FFF900240EFF01236FC9002B9E41D
:102FCF00F0A3E4F090026DE4F0A3E4F0785DE6FF87
:102FDF00EF4401FF785DA607785DE6FFEF4402FF3F
:102FEF00785DA607785DE6FFEF4404FF785DA607DE
:0D2FFF00785DE6FFEF4408FF785DA607222D
:10407500FBBFDFEFF79FAFB7BBCFDBEBE7F3FDFE92
:01408500FF3B
:1013E200900244E0FFEF20E60302161C900244E064
:1013F200FFEF54BFFF900244EFF0900256E0FEA3CD
:10140200E0FFEF4E600E900257E024FFF09002568C
:10141200E034FFF09002AEE0FEA3E0FFEF4E600E7C
:101422009002AFE024FFF09002AEE034FFF09002B1
:1014320028E0FEA3E0FFEF4E600E900229E024FFB9
:10144200F0900228E034FFF090026DE0FEA3E0FF8E
:10145200EF4E600E90026EE024FFF090026DE034D9
:10146200FFF090022EE0FEA3E0FFEF4E601090022C
:101472002FE024FFF090022EE034FFF0800E900265
:1014820025E0FFEF54F7FF900225EFF0900225E0F0
:10149200FFEF30E33590022EE0FEA3E0FFEF4E6057
:1014A20029900249E004F07006900248E004F090AE
:1014B2000248E0FEA3E0FFC3EF9450EE9400400A1E
:1014C200900248E4F0A3E4F0B2A79002B9E0FEA3D0
:1014D200E0FFEF4E600E9002BAE024FFF09002B9F6
:1014E200E034FFF090026FE0FEA3E0FFEF4E6046B3
:1014F200900245E0FFEFC313FFEF5401FF7E00EFC0
:101502004E60030215F9900245E0FFEF4402FF909E
:101512000245EFF0900245E0FFEF54FBFF900245D9
:10152200EFF012417D900245E0FFEF20E303021548
:10153200F9D2A70215F990024BE0FFEF6044900246
:1015420045E0FFEF1313543FFFEF5401FF7E00EF1E
:101552004E60030215F9900245E0FFEF4404FF904C
:101562000245EFF0900245E0FFEF54FDFF90024587
:10157200EFF0120006900245E0FFEF30E379C2A7D8
:101582008075900246E0FFEF605F900246E014F043
:1015920090026BE0FEA3E0FF90026FEEF0A3EFF08B
:1015A20090024AE0FF90024BEFF0900245E0FFEF1D
:1015B200C313FFEF5401FF7E00EF4E703A900245D5
:1015C200E0FFEF4402FF900245EFF0900245E0FF9A
:1015D200EF54FBFF900245EFF012417D900245E08F
:1015E200FFEF30E312D2A7800E900245E0FFEF54E6
:1015F200F7FF900245EFF0120BF3900225E0FFEFA8
:10160200C4135407FFEF5401FF7E00EF64014E60E4
:0B161200091223EA1204A01241712209
:102EE200900244E0FFEF30E74C900244E0FFEF54E1
:102EF2007FFF900244EFF0900255E0FFEF600690F2
:102F02000255E014F0900244E0FFEFC4135407FFAF
:102F1200EF5401FF7E00EF64014E7019900236E01B
:102F2200FFEF6011900253E0FF7E00EF4E700690BB
:102F32000236E014F0900380E0FEA3E0FFEF4E7053
:102F42003B900244E0FFEF5401FF7E00EF64014E2C
:102F5200702A900244E0FFEF54FEFF900244EFF02B
:102F6200900225E0FFEF131313541FFFEF5401FFEC
:0D2F72007E00EF4E7002C2A7D2B5C2B3229E
:100BF300900243E4F090023774FFF0900226E0FF86
:100C03007E00EF64024E7003020F18785DE6FFEF7B
:100C13005401FF120026785DE6FFEFC313FFEF5484
:100C230001FF120026785DE6FFEF1313543FFFEF39
:100C33005401FF1200267F01120026785DE6FFEFC4
:100C4300131313541FFFEF5401FF1200267F0112E9
:100C530000267F01120026900230E0FF900237E069
:100C6300FEEE6F6025900237E0FF900230EFF01246
:100C730040521236FC90021E7413F0A37488F09055
:100C830002587427F0A37474F02290023C74FF7529
:100C9300F0FF120A01AFF0FEEF4E6003020F18904F
:100CA300023CE4F0A37401F0900237E0FF7E00EF12
:100CB30064FF4E7003020D9E90021EE0FEA3E0FF50
:100CC300EF4E600E90021FE024FFF090021EE0340E
:100CD300FFF0900258E0FEA3E0FFEF4E600E90029B
:100CE30059E024FFF0900258E034FFF0900226E030
:100CF300FF7E00EF64014E6018900225E0FFEF20B5
:100D0300E60F900258E0FEA3E0FFEF4E6003020DF2
:100D13009E900225E0FFEFC413135403FFEF540129
:100D2300FF7E00EF4E705C900225E0FFEF4440FF32
:100D3300900225EFF0900258E0FEA3E0FFEF4E7023
:100D43001190026BE4F0A37467F090024A7467F0A9
:100D5300800F90026BE4F0A37428F090024A743C75
:100D6300F090026BE0FEA3E0FF90026FEEF0A3EFC2
:100D7300F090024AE0FF90024BEFF09002467402BB
:100D8300F08018900246E0FF7E00D3EF9401EE64FA
:100D930080948050069002467402F090038CE4F035
:100DA30090038CE0FF7E00C3EF9411EE6480948087
:100DB300502890038CE0FFEF90407593FF9002372B
:100DC300E0FEEEB5070C90038CE0FF900242EFF0DB
:100DD300800890038CE004F080C690038CE0FF7ED3
:100DE3000090023EEEF0A3EFF0900225E0FFEFC487
:100DF300135407FFEF5401FF7E00EF64014E7003AD
:100E0300020F1890038CE0FF7E00EF64114E7023F5
:100E1300900240E0FFEF54BFFF900240EFF0123624
:100E2300FC900240E0FFEF4480FF900240EFF0129D
:100E33003EC022900240E0FFEF30E763900237E0CC
:100E4300FF7E00EF64FF4E605690038CE0FF7E0050
:100E5300EF64054E603790038CE0FF7E00EF64067D
:100E63004E602A90038CE0FF7E00EF64074E601D06
:100E730090038CE0FF7E00EF64094E601090038CBA
:100E8300E0FF7E00EF640C4E6003020F18900244F3
:100E9300E0FFEF5401FF7E00EF4E70798001229056
:100EA300038CE0FFEF120BCD0EE2000EE6010EE61F
:100EB300020EE6030EE6040EF9050EF9060EF90717
:100EC3000EFD080EF9090F010A0F050B0EF90C0FA1
:100ED300090D0F0D0E0F110F0F151000000F181233
:100EE3002A3022900244E0FFEF5401FF7E00EF4ED0
:100EF3007023120F1922123BD5221233802212368D
:100F03000C22123560221235B62212004922120039
:050F13004A22123447E0
:010F180022B6
:103BD500123EC0900243E4F0900242E0FF900242A0
:103BE500E0FD12209D1236FC900240E0FFEF54BF2D
:103BF500FF900240EFF0900240E0FFEF4480FF901D
:053C05000240EFF02277
:10338000123EC0900240E0FFEF54BFFF900240EFBA
:10339000F0900240E0FFEF20E244900240E0FFEFB7
:1033A0004404FF900240EFF09002B9740BF0A37454
:1033B000B8F0900244E0FFEFC4135407FFEF54014C
:1033C000FF7E00EF4E701C900244E0FFEF4420FFB0
:1033D000900244EFF0D2E8900236744EF0227F085B
:0433E000123B9F22DB
:10356000123EC0900240E0FFEF20E344900240E0B2
:10357000FFEF4408FF900240EFF09002B9740BF0A7
:10358000A374B8F0900244E0FFEFC4135407FFEFB8
:103590005401FF7E00EF4E701C900244E0FFEF44A8
:1035A00020FF900244EFF0D2E8900236744EF022F1
:0635B0007F0B123B9F227D
:1035B600123EC0900240E0FFEF20E444900240E05B
:1035C600FFEF4410FF900240EFF09002B9740BF049
:1035D600A374B8F0900244E0FFEFC4135407FFEF62
:1035E6005401FF7E00EF4E701C900244E0FFEF4452
:1035F60020FF900244EFF0D2E8900236744EF0229B
:063606007F0D123B9F2224
:10360C00123EC0900240E0FFEF20E144900240E007
:10361C00FFEF4402FF900240EFF09002B9740BF000
:10362C00A374B8F0900244E0FFEFC4135407FFEF0B
:10363C005401FF7E00EF4E701C900244E0FFEF44FB
:10364C0020FF900244EFF0D2E8900236744EF02244
:06365C007F0A123B9F22D1
:103B9F008F429002B9E0FEA3E0FFEF4E6027900244
:103BAF00B974FF75F0FF120A01AFF0FEEF4E7015FA
:103BBF007D00AF4212209D900225E0FFEF4480FF71
:063BCF00900225EFF02238
:102A3000123EC0900240E0FFEF20E603022AD99048
:102A40000240E0FFEF54BFFF900240EFF0900243DE
:102A50007405F01236FC900240E0FFEF4401FF9055
:102A60000240EFF09002B9740BF0A374B8F090023A
:102A70006DE0FEA3E0FFEF4E703C900244E0FFEFFC
:102A8000C4135407FFEF5401FF7E00EF4E70169001
:102A90000244E0FFEF4420FF900244EFF0D2E890C0
:102AA00002367433F090026D7427F0A37410F09026
:102AB00002167402F022900216E014FFF0EF705834
:102AC0007F01123E99900243E4F0900240E0FFEF54
:102AD0004480FF900240EFF022900240E0FFEF3090
:102AE000E0369002B9E0FEA3E0FFEF4E602A9002CC
:102AF000B974FF75F0FF120A01AFF0FEEF4E7018C7
:102B00007F02123E99900243E4F0900240E0FFEF12
:092B10004480FF900240EFF02226
:100F1900123E71EF7003021035900225E0FFEF20B9
:100F2900E015900225E0FFEF20E10C900225E0FF9B
:100F3900EF20E2030211939002B9E0FEA3E0FFEF74
:100F49004E6003021193900225E0FFEFC41313547E
:100F590003FFEF5401FF7E00EF4E600302119390EF
:100F6900021EE0FEA3E0FFEF4E6003021193900220
:100F790025E0FFEF20E009900225E0FFEF30E21ABB
:100F8900900253740AF0900243E4F0900240E0FFAB
:100F9900EF4480FF900240EFF022900245E0FFEF1E
:100FA9004408FF900245EFF0900244E0FFEFC413BC
:100FB9005407FFEF5401FF7E00EF4E701A90024470
:100FC900E0FFEF4420FF900244EFF0D2E890024C9A
:100FD900E0FF900236EFF0900228740FF0A374A09E
:100FE900F0900243E4F0900240E0FFEF54BFFF901D
:100FF9000240EFF0900240E0FFEF4480FF90024092
:10100900EFF0900240E0FFEF4420FF900240EFF044
:10101900900225E0FFEF20E003021193900240E0E7
:10102900FFEF54DFFF900240EFF02222900242E0EE
:10103900FF900243EFF0900253E0FFEF60030211CB
:10104900939002ADE0FFEF600122900243E0FFEFD1
:10105900120BCD106901108302109D03000010B519
:10106900900225E0FFEF4401FF900225EFF0900286
:10107900B97413F0A37488F08032900225E0FFEF71
:101089004402FF900225EFF09002B97413F0A374A3
:1010990088F08018900225E0FFEF4404FF900225B4
:1010A900EFF09002B97413F0A37488F0900224E071
:1010B900FFEF600D900243E0FF7E00EF64044E7085
:1010C90019123EC0900242E0FF900242E0FD122058
:1010D9009D90026DE4F0A3E4F022900253E0FFEF4B
:1010E90060030211939002ADE0FFEF6001229002CC
:1010F90043E0FF7E00EF64024E7039123EC0900259
:1011090042E0FF900242E0FD12209D90026DE4F062
:10111900A3E4F0900225E0FFEF4408FF900225EFD9
:10112900F090022E740BF0A374B8F0900248E4F02A
:10113900A3E4F022900243E0FFEF120BCD1150011E
:1011490011500300001193900225E0FFEF30E33ABC
:1011590090022EE0FEA3E0FFEF4E602E900225E004
:10116900FFEF54F7FF900225EFF090022EE4F0A371
:10117900E4F0900242E0FF900242E0FD12209D90CF
:0B118900026DE4F0A3E4F0123EC0226F
:010049002294
:01004A002293
:10344700900225E0FFEF54FEFF900225EFF0900277
:1034570025E0FFEF54FDFF900225EFF0900225E0F5
:10346700FFEF54FBFF900225EFF0900225E0FFEFFE
:1034770054BFFF900225EFF01236FC900240E0FFA8
:10348700EF4440FF900240EFF0900240E0FFEF541E
:0E3497007FFF900240EFF090024374FFF0229E
:1040520090023CE4F0A3740AF09002B9E4F0A3E405
:02406200F0224A
:1036FC00900240E0FFEF54FEFF900240EFF090028A
:10370C0040E0FFEF54FDFF900240EFF0900240E0EC
:10371C00FFEF54FBFF900240EFF0900240E0FFEF10
:10372C0054F7FF900240EFF0900240E0FFEF54EFAF
:07373C00FF900240EFF022B4
:103EC000900253E4F09002317402F090020B7402FD
:103ED000F090022EE0FEA3E0FFEF4E600890022E6D
:063EE000E4F0A3E4F0226F
:103E7100900240E0FFEF20E6037F0122900240E044
:103E8100FFEF54BFFF900240EFF09002B9E4F0A3BE
:083E9100E4F01236FC7F002270
:04209D008F328D33BE
:1020A10090024EE0FF7E00C3EF9445EE6480948081
:1020B1005063900244E0FFEFC4135407FFEF540153
:1020C100FF7E00EF64014E704C900236E0FF7E000F
:1020D100C3EF9419EE64809480503A900236E0FF89
:1020E100C374199FFF90038DEFF090038DE0FF9073
:1020F100024EE02FF090024EE0FF7E00C374459F38
:10210100FFE49EFEC3EF941BEE6480948040069032
:1021110002367419F0900236E0FF7E00C3EF941985
:10212100EE64809480500E900255E0FF7E00EF4EE9
:10213100600302225E900244E0FFEFC4135407FFE4
:10214100EF5401FF7E00EF4E701A900244E0FFEF62
:102151004420FF900244EFF0D2E890024CE0FF905F
:102161000236EFF0E532120BCD219201219A0221C4
:10217100A20321AA0421B20521BA0621C20721CA5C
:102181000821D20921DA0A21E20B21EA0C000021FF
:10219100F09002547408F080569002547404F08058
:1021A1004E9002547402F080469002547401F08003
:1021B1003E900254740CF08036900254740AF08000
:1021C1002E9002547409F080269002547418F08005
:1021D1001E9002547406F080169002547414F0801C
:1021E1000E9002547412F080069002547403F0E5CC
:1021F10033120BCD220801221502222203222F04C1
:10220100223C14000022477B007D677F677E00121D
:10221100366280327B017D677F677E001236628085
:10222100257B027D677F677E0012366280187B0006
:102231007D0A7FF47E01123662800B7B007D0A7F6E
:10224100E87E0312366230B507C2B57F02123FFD48
:0F225100122E3B1225719002557419F022C2A76C
:01226000225B
:1004A000900253E0FFEF120BCD04CB0104FB0205D9
:1004B000520305CD04060605068F0606C807075138
:1004C0000807510908A60A000008B2900240E0FFA0
:1004D000EF20E7119002287403F0A374E8F0900273
:1004E00053E004F022900228E0FEA3E0FFEF4E600C
:1004F000030208B2900253740AF022900228E0FE30
:10050000A3E0FFEF4E7029900253E004F090022820
:10051000740BF0A374B8F07B007D677F677E0012D8
:100520003662900245E0FFEF4408FF900245EFF08D
:10053000900243E0FF7E00EF4E70030208B290028B
:1005400043E0FF7E00EF64FF4E70030208B2123EEC
:10055000C022900228E0FEA3E0FFEF4E7004123E9E
:10056000C022900243E0FF7E00EF4E70030208B20B
:10057000900243E0FF7E00EF64FF4E700122900284
:1005800040E0FFEF30E523900243E0FF7E00EF64A0
:10059000024E70119002287403F0A374E8F09002E8
:1005A00053E004F022123EC02222900243E0FF7E7C
:1005B00000EF64014E70119002287403F0A374E8F8
:1005C000F0900253E004F022123EC0222290022852
:1005D000E0FEA3E0FFEF4E60030208B2900253E09A
:1005E00004F0900228740BF0A374B8F07B007D67D0
:1005F0007F677E00123662900245E0FFEF4408FFFD
:10060000900245EFF022900228E0FEA3E0FFEF4EBB
:100610007004123EC022900243E0FF7E00EF4E7055
:10062000030208B2900243E0FF7E00EF64FF4E70C9
:100630000122900240E0FFEF30E531900243E0FFFD
:100640007E00EF64024E701F9002287403F0A374C2
:10065000E8F0900253E004F0900240E0FFEF4480A5
:10066000FF900240EFF022123EC02222900243E0AF
:10067000FF7E00EF64014E70119002287403F0A316
:1006800074E8F0900253E004F022123EC02222905F
:100690000228E0FEA3E0FFEF4E60030208B29002E2
:1006A00053E004F0900228740BF0A374B8F07B02BE
:1006B0007D677F677E00123662900245E0FFEF445F
:1006C00008FF900245EFF022900228E0FEA3E0FF31
:1006D000EF4E7004123EC022900243E0FF7E00EF16
:1006E0004E70030208B2900243E0FF7E00EF64FF09
:1006F0004E700122900240E0FFEF30E5319002435E
:10070000E0FF7E00EF64024E701F9002287427F015
:10071000A37410F0900253E004F0900240E0FFEF69
:100720004480FF900240EFF022123EC0222290024D
:1007300043E0FF7E00EF64014E70119002287427A1
:10074000F0A37410F0900253E004F022123EC02295
:1007500022900228E0FEA3E0FFEF4E7004123EC09C
:1007600022900243E0FF7E00EF4E70030208B29039
:100770000243E0FF7E00EF64FF4E700122900240D2
:10078000E0FFEF20E50302081C900243E0FF7E003B
:10079000EF64024E6003020817900253E0FF7E00F0
:1007A000EF64094E706A900224E0FF90038EEFF030
:1007B00090038EE0FFEF600790038EE4F0800690D8
:1007C000038E7401F090038EE0FF900224EFF07B23
:1007D000017A0279247513017FF97E7F1218507B0C
:1007E000047D677F677E00123662900245E0FFEF6E
:1007F0004408FF900245EFF0900225E0FFEF54F728
:10080000FF900225EFF09002367414F0123EC022E1
:10081000900253E004F022123EC02222900243E0F4
:10082000FF7E00EF64014E7078900253E0FF7E007F
:10083000EF64094E7064900224E0FF90038EEFF0A5
:1008400090038EE0FFEF600790038EE4F080069047
:10085000038E7401F090038EE0FF900224EFF07B92
:10086000017A0279247513017FF97E7F1218507B7B
:10087000047D677F677E00123662900245E0FFEFDD
:100880004408FF900245EFF0900225E0FFEF54F797
:10089000FF900225EFF0123EC022900253E004F0D8
:1008A00022123EC02222900240E0FFEF20E7031216
:0208B0003EC048
:0108B2002223
:1023EA00124135EF7003022570900244E0FFEFC4FA
:1023FA00135407FFEF5401FF7E00EF4E7010900256
:10240A0044E0FFEF4420FF900244EFF0D2E890024C
:10241A00AEE0FEA3E0FFEF4E60319002367433F077
:10242A00900249E004F07006900248E004F090023D
:10243A0048E0FEA3E0FFC3EF9490EE9401401E90A3
:10244A000248E4F0A3E4F0B2A780127B027DFA7F8F
:10245A00F47E01123662C2A79002ADE4F090024304
:10246A00E0FFEF120BCD24800124C10224F30325DF
:10247A000C0500002570900252E0FF74B02FF5821F
:10248A00E43402F583E004FFF0EFD394394012906C
:10249A000252E0FF74B02FF582E43402F5837430FF
:1024AA00F07B007D677F677E001236629002AE7411
:1024BA00A7F0A374F8F022900252E004FFF07E0025
:1024CA00D3EF9408EE648094804008900252740816
:1024DA00F0800B7B017D677F677E00123662900277
:1024EA00AE74A7F0A374F8F022123D377B007D0A80
:1024FA007FE87E031236629002AE74A7F0A374F8E6
:10250A00F022900252E0FF7E00C3EF9408EE64804E
:10251A00948040527B017A0279B0123098900391EC
:10252A00E0FCA3E0FDA3E0FEA3E0FF90022A120B69
:10253A00907FFE7EFF7DFF7C0090022AE0F8A3E0F8
:10254A00F9A3E0FAA3E0FBD3120B4A400D7B037D0B
:10255A00647F647E0012366280077D147F14122025
:07256A009D9002ADE4F02298
:063098008B1D8A1E891F3A
:10309E00900391120B9C0000000090038FE4F090BF
:1030AE00038FE0FF7E00C3EF9408EE64809480509F
:1030BE0061AB1DAA1EA91F90038FE0FF8F8275833F
:1030CE00001209C2FFEF24D0FF900390EFF07F0AA9
:1030DE007E007D007C00900391E0F8A3E0F9A3E070
:1030EE00FAA3E0FB120A2DA804A905AA06AB0790C5
:1030FE000390E0FFE4FCFDFEEB2FFFEA3EFEE93D10
:10310E00FDE83CFC900391120B9090038FE004F0CD
:02311E00808DA2
:01312000228C
:103E99008F43124135EF701E9002ADE543F0123D9C
:103EA900377B007D0A7FE87E031236629002AE748A
:073EB900A7F0A374F8F0224A
:064135009002ADE0FF2244
:103D3700900252E4F0754400AF447E00C3EF94084C
:103D4700EE648094805013AF4474B02FF582E4344E
:0F3D570002F5837430F0054480DE9002B8E4F08A
:013D6600223A
:100026008F45900237E0FFEF25E0FF900237EFF0B3
:10003600E545600E900237E0FFEF4401FF9002377E
:03004600EFF022B6
:103662008E198F1A8D1B8B1C900225E0FFEFC4135D
:10367200135403FFEF5401FF7E00EF4E70309002AF
:103682006BE519F0A3E51AF090024AE51BF09002EF
:103692006BE0FEA3E0FF90026FEEF0A3EFF090026A
:0F36A2004AE0FF90024BEFF0900246E51CF02249
:10161D0030A3030217FF121C90900235E0FFEF5428
:10162D0001FF7E00EF4E7031900235E0FFEF440177
:10163D00FF900235EFF0D2E8D2A7123C0AD2AF12DA
:10164D00417990024B74C8F012417D900235E0FF54
:10165D00EF54DFFF900235EFF090024BE0FF7E007C
:10166D00EF4E7026900235E0FFEFC4135407FFEFE5
:10167D005401FF7E00EF4E7011900235E0FFEF44F4
:10168D0020FF900235EFF0120006124171785DE6F1
:10169D00FFEF5401FF7E00EF4E7046900244E0FFD5
:1016AD00EFC313FFEF5401FF7E00EF4E7033900236
:1016BD0044E0FFEF4402FF900244EFF030B507C263
:1016CD00B57F02123FFD122E3B7F011241021241E6
:1016DD005FC2B3900245E0FFEF547FFF900245EFEC
:1016ED00F0785DE6FFEF5401FF7E00EF64014E7070
:1016FD000E900244E0FFEF54FDFF900244EFF078AE
:10170D005DE6FFEFC313FFEF5401FF7E00EF4E7058
:10171D0038900244E0FFEF1313543FFFEF5401FFE5
:10172D007E00EF4E7023900244E0FFEF4404FF90E3
:10173D000244EFF0124147D2B5C2B3900245E0FF2B
:10174D00EF547FFF900245EFF0785DE6FFEFC31396
:10175D00FFEF5401FF7E00EF64014E700E900244C6
:10176D00E0FFEF54FBFF900244EFF0785DE6FFEFF2
:10177D001313543FFFEF5401FF7E00EF4E7049905D
:10178D000244E0FFEF131313541FFFEF5401FF7ECC
:10179D0000EF4E7033900244E0FFEF4408FF9002DB
:1017AD0044EFF030B507C2B57F02123FFD122E3B5C
:1017BD007F0012410212415FC2B3900245E0FFEF7C
:1017CD004480FF900245EFF0785DE6FFEF13135470
:1017DD003FFFEF5401FF7E00EF64014E700E90024B
:1017ED0044E0FFEF54F7FF900244EFF012004E0279
:1017FD00161D900235E0FFEF5401FF7E00EF6401EE
:10180D004E7011900235E0FFEF54FEFF900235EF60
:10181D00F012000EC2E8C2A7900244E0FFEF54FDA3
:10182D00FF900244EFF0900244E0FFEF54FBFF9075
:10183D000244EFF0900244E0FFEF54F7FF900244B2
:03184D00EFF02297
:10293D00900244E0FFEF5401FF7E00EF64014E6012
:10294D0003022A14900214E0FEA3E0FF7E00EF5470
:10295D0007FFEF4E7024900214E0FEA3E0FFEF7826
:10296D0003CEC313CE13D8F9FF74852FF5827402ED
:10297D003EF583E0FF90024DEFF090024DE0FFEF4A
:10298D0030E704D2B38002C2B390024DE0FFEF25D1
:10299D00E0FF90024DEFF0900215E004F07006900C
:1029AD000214E004F0900232E0FEA3E0FF90021466
:1029BD00E0FCA3E0FDC3ED9FEC9E4066900214E4A5
:1029CD00F0A3E4F0900247E004F0900247E0FF7EB0
:1029DD0000C3EF9403EE648094804046900244E07F
:1029ED00FFEF54FEFF900244EFF0900225E0FFEF61
:1029FD00131313541FFFEF5401FF7E00EF4E7002AF
:102A0D00C2A7D2B5C2B322900245E0FFEFC41313A3
:102A1D00135401FFEF5401FF7E00EF64014E70026D
:032A2D00B2B3221F
:1025710090028574FFF09003827401F0900382E071
:10258100FF7E00D3EF940DEE64809480501A900387
:1025910082E0FF74852FF582E43402F5837455F0EF
:1025A100900382E004F080D49002937415F0D2A7D6
:1025B1009002ADE0FF7E00EF4E7043900232E4F0F6
:1025C100A374E0F07B017A02791AC003C002C00152
:1025D1007B007A007909A801AC02AD03D001D002D9
:1025E100D0037E007F04120983900254E0FF8F0D17
:1025F1007F0F1222619002A074FFF00226A59002C3
:10260100327401F0A37440F07B017A02791AC0039D
:10261100C002C0017B007A007909A801AC02AD03B8
:10262100D001D002D0037E007F04120983750D8092
:102631007F0F1222619002ADE0FF7E00EF64014E38
:10264100702F7B017A02792AC003C002C0017B008E
:102651007A007909A801AC02AD03D001D002D00300
:102661007E007F04120983750DFF7F1B122261809A
:102671002D7B017A02792AC003C002C0017B007A56
:10268100007909A801AC02AD03D001D002D0037ECC
:10269100007F04120983750D007F1B1222619002D5
:1026A100AC74FFF0900214E4F0A3E4F0900247E46C
:1026B100F090024DE4F012415F900244E0FFEF44DC
:1026C10001FF900244EFF09002ADE0FF7E00EF4E7B
:1026D100700B9003807402F0A37426F022900380A3
:0726E1007403F0A37420F064
:0126E80022CF
:022261008F08E4
:10226300AF0C123312900383EEF0A3EFF0900383CD
:10227300E0FFAE08050874852EF582E43402F58389
:10228300EFF0900384E0FFAE08050874852EF58215
:10229300E43402F583EFF0AF0B123312900383EEB5
:1022A300F0A3EFF0900383E0FFAE08050874852EDA
:1022B300F582E43402F583EFF0900384E0FFAE0887
:1022C300050874852EF582E43402F583EFF0AF0A36
:1022D300123312900383EEF0A3EFF0900383E0FF39
:1022E300AE08050874852EF582E43402F583EFF019
:1022F300900384E0FFAE08050874852EF582E4346C
:1023030002F583EFF0AF0D123312900383EEF0A3C7
:10231300EFF0900383E0FFAE08050874852EF58285
:10232300E43402F583EFF0900384E0FFAE08050880
:1023330074852EF582E43402F583EFF0900384E58F
:102343000AF0900383E50DF0900386E50CF090030B
:1023530085E50BF0900385E0FEA3E0FF900383E0A7
:10236300FCA3E0FDED2FFFEC3EFE900387EEF0A310
:10237300EFF0900388E0FF123312900383EEF0A393
:10238300EFF0900383E0FFAE08050874852EF58215
:10239300E43402F583EFF0900384E0FFAE08050810
:1023A30074852EF582E43402F583EFF0900387E021
:1023B300FF123312900383EEF0A3EFF0900383E058
:1023C300FFAE08050874852EF582E43402F583EF29
:1023D300F0900384E0FFAE08050874852EF582E4CF
:0623E3003402F583EFF067
:0123E90022D1
:023312008F46E4
:1033140090038BE4F090038BE0FF7E00C3EF9408EE
:10332400EE64809480504C900389E0FEA3E0FFEFAC
:103334007802C333CE33CED8F9FF900389EEF0A3DD
:10334400EFF0E54630E01090038AE0FFEF4402FF1F
:1033540090038AEFF0800E90038AE0FFEF4401FFB0
:1033640090038AEFF0E546C313F54690038BE0041F
:0B337400F080A2900389E0FEA3E0FFC0
:01337F00222B
:0413050041039F0001
:103F9D0043922F43C48053C31F53C3FC43C31053D9
:093FAD00C3FB53BB9F53C4D8228F
:03004B00022B196C
:102B1900C0E0C0F0C083C082C0D075D000C000C082
:0D2B290001C002C003C004C005C006C00703
:102B360090039BE5C6F090039CE5C5F0900271E01A
:102B4600F8A3E0F9A3E0FAA3E0FB90039BE0FEA361
:102B5600E0FFEE540FFEE4FCFDEB2FFFEA3EFEE93C
:102B66003DFDE83CFC900271120B90900251E0048E
:102B7600F053C4EF43C408900251E0FF7E00C3EF58
:102B86009414EE64809480405653ADFD53C47F90F8
:102B96000251E4F07B147A0079007800900271E02B
:102BA600FCA3E0FDA3E0FEA3E0FF120AB890024FEB
:102BB600EEF0A3EFF090024FE0FEA3E0FFAB07AA12
:102BC60006E4F9F87F007E107D0E7C0012385790DF
:0F2BD6000220120B90900271120B9C0000000065
:102BE500D007D006D005D004D003D002D001D00044
:0B2BF500D0D0D082D083D0F0D0E032EE
:101C9000E5C45410FF7E00EF4E7003021E9D9003BA
:101CA0009DE5C6F090039EE5C5F053C4EF90039FF9
:101CB000E0FFEF120BCD1CC9001D72011D9D021D1E
:101CC000C7031DF10400001E19900271E0F8A3E0A3
:101CD000F9A3E0FAA3E0FB90039DE0FEA3E0FFEE92
:101CE000540FFEE4FCFDEB2FFFEA3EFEE93DFDE86C
:101CF0003CFC900271120B90900251E004F09002B3
:101D000051E0FF7E00C3EF9414EE64809480500392
:101D1000021E19900251E4F07B147A0079007800D9
:101D2000900271E0FCA3E0FDA3E0FEA3E0FF120A35
:101D3000B890024FEEF0A3EFF090024FE0FEA3E068
:101D4000FFAB07AA06E4F9F87F007E107D0E7C0049
:101D5000123857900220120B90900271120B9C00C7
:101D6000000000785DE6FFEF4410FF785DA60702F3
:101D70001E1990039DE0FEA3E0FFC3EE9402500FF6
:101D8000785DE6FFEF54FDFF785DA607021E197827
:101D90005DE6FFEF4402FF785DA607807C90039D1F
:101DA000E0FEA3E0FFC3EE9402500E785DE6FFEF85
:101DB00054FEFF785DA6078060785DE6FFEF440182
:101DC000FF785DA607805290039DE0FEA3E0FFC36D
:101DD000EE9402500E785DE6FFEF54FBFF785DA6AF
:101DE000078036785DE6FFEF4404FF785DA6078044
:101DF0002890039DE0FEA3E0FFC3EE9402500E780E
:101E00005DE6FFEF54F7FF785DA607800C785DE68E
:101E1000FFEF4408FF785DA607785DE6FFEFC45446
:101E20000FFFEF5401FF7E00EF64014E7006900338
:101E30009FE004F090039FE0FF7E00D3EF9404EE58
:101E400064809480400590039FE4F090039FE0FF3E
:101E5000EF120BCD1E67001E6C011E78021E84035C
:101E60001E900400001E9A53C4D8802EE5C454D896
:101E7000FFEF4401F5C48022E5C454D8FFEF4402CB
:101E8000F5C48016E5C454D8FFEF4403F5C4800AB6
:0D1E9000E5C454D8FFEF4405F5C443C40871
:011E9D002222
:0441790043C4082211
:10322D00900256E0FEA3E0FFEF4E60677F607E09DF
:10323D007D007C00900220E0F8A3E0F9A3E0FAA362
:10324D00E0FBD3120B4A4006900226E4F0227F6089
:10325D007E097D007C00900220E0F8A3E0F9A3E058
:10326D00FAA3E0FBD3120B4A50237F987E087D0012
:10327D007C00900220E0F8A3E0F9A3E0FAA3E0FBC4
:10328D00D3120B4A40079002267401F022900226B9
:04329D007402F022A5
:0413090041020A0093
:0B40D90075BF0B7D7C7F03123E1E2292
:043E1E008F348D351B
:103E2200A2AF9200C2AF75E3008534E48535E27536
:103E3200E50475E78075E64675E6B90075E5007537
:063E4200E700A20092AFB0
:013E48002257
:0A1850008E0E8F0F8B108A11891283
:10185A00A2AF9201C2AF900202E4F0E50E54FEFE7E
:10186A007F00900203EEF0A3EFF0900200E4F0A3F1
:10187A00E4F0900200E0FEA3E0FFC3EE94025056AB
:10188A00900203E0FF8FE3900204E0FF8FE475E526
:10189A000175E78075E64675E6B975E50075E700F6
:1018AA00900204E004F07006900203E004F0900253
:1018BA0000E0FEA3E0FF74002FF58274003EF5837A
:1018CA00E5E2F0124171900201E004F07006900224
:1018DA0000E004F0809CE50E5401FEAF0F90020078
:1018EA00EEF0A3EFF0AF137E00EF4E603BAB10AA11
:1018FA0011A9121209A9FF900200E0FCA3E0FD74ED
:10190A00002DF58274003CF583EFF074012512F581
:10191A0012E43511F511900201E004F0700690020C
:10192A0000E004F0151380BDE50E54FEFE7F009022
:10193A000203EEF0A3EFF0900203E0FF8FE375E4F9
:10194A000075E50375E78075E64675E6B90075E545
:10195A000075E700900200E4F0A3E4F0900200E0D2
:10196A00FEA3E0FFC3EE94025058900200E0FEA3EB
:10197A00E0FF74002FF58274003EF583E0FF8FE2EA
:10198A00900203E0FF8FE3900204E0FF8FE475E525
:10199A000275E78075E64675E6B90075E50075E7F4
:1019AA0000900204E004F07006900203E004F012D2
:1019BA004171900201E004F07006900200E004F028
:1019CA00809AE50E54FEFE7F00900203EEF0A3EF2C
:1019DA00F0900200E4F0A3E4F0900200E0FEA3E03D
:1019EA00FFC3EE94025078900203E0FF8FE3900267
:1019FA0004E0FF8FE475E50175E78075E64675E654
:101A0A00B975E50075E700900204E004F0700690ED
:101A1A000203E004F0124171900200E0FEA3E0FF2D
:101A2A0074002FF58274003EF583E0FFEF65E260F3
:101A3A001D900202E004F0900202E0FF7E00C3EF74
:101A4A009403EE64809480501B021932801690022F
:101A5A0001E004F07006900200E004F00219E3903D
:0D1A6A000202E4F0A20192AF900202E0FF40
:011A7700224C
:10312100900209E4F0900224E4F0900205E4F090AA
:103131007FFBE493FF900206EFF0907FFCE493FFA6
:10314100900207EFF0907FFDE493FF900208EFF00B
:103151007F007E007D007C00900205E0F8A3E0F98D
:10316100A3E0FAA3E0FBC3120B4A601C7FFF7EFFC2
:103171007DFF7C00900205E0F8A3E0F9A3E0FAA34B
:10318100E0FBC3120B4A700A900205120B9C00006F
:103191000000900205E0FCA3E0FDA3E0FEA3E0FF38
:0631A10090021A120B90CF
:0131A7002205
:0E40A700284F4B292857472900000000000031
:10130D00410335004103370041032B0041032D00FC
:10131D0041032C00602902D80000000000000000ED
:10132D0000000000000000000000000000000000B0
:10133D0000000000000000000000000000000000A0
:10134D000060290301000000000000000000000003
:10135D000000000000000000000000000000000080
:10136D00000000000000000000000000000044022A
:10137D00D2000000004103390043032E0203004157
:10138D00032A0041033800410336004102D60041D3
:0A139D0002D70044033100000000F5
:103C0A00539CEFC29FD29ED29CC2CDC2CC539C7F02
:103C1A00438780539CBFE58954CFFFEF4420F58941
:103C2A0043A3085389BF53897F758DED758BEDD2F8
:043C3A008ED2AC2258
:05000E00C28EC2AC220D
:03002300022C00AC
:0F2C0000C0E0C083C082C0D075D000C006C0073E
:102C0F009002BBE4F0C0AC75AC00309902C29920C1
:102C1F009803022CB7C2989002BBE599F09002BBC3
:102C2F00E0FFEFB42805900227E4F09002BBE0FF2D
:102C3F00900227E0FE74752EF582E43402F583EFDF
:102C4F00F0900227E0FFEF04FFEF541FFF900227E1
:102C5F00EFF09002BBE0FFEF6429704C9002BBE4F1
:102C6F00F0900227E0FF9002BBE0FEEEC39F502AD8
:102C7F009002BBE0FF74752FF582E43402F583E018
:102C8F00FF9002BBE0FE745A2EF582E43402F58306
:102C9F00EFF09002BBE004F080C7900225E0FFEF59
:0A2CAF004410FF900225EFF0D0ACB6
:0D2CB900D007D006D0D0D082D083D0E0323A
:024029008F47BF
:10402B00A2AC9202C2AC8547993099FDC299A2020B
:02403B0092AC45
:01403D002260
:083964008B218A2289238D24A6
:10396C009002BCE4F09002BCE4F09002BCE0FFEFEB
:10397C00C39524501FAB21AA22A9239002BCE0FFBF
:10398C008F827583001209C2FF1240299002BCE09D
:04399C0004F080D6DD
:0139A0002204
:023DC5008F4825
:103DC700AF487E00C3EF943AEE64809480500CE5D0
:103DD70048540FFF9002BDEFF0800AE54824C9FF61
:0A3DE7009002BDEFF09002BDE0FF76
:013DF10022AF
:023D67008F4982
:103D690053490FAF497E00C3EF940AEE64809480F3
:103D7900500CE5494430FF9002BEEFF0800AE54956
:0D3D89002437FF9002BEEFF09002BEE0FF75
:013D9600220A
:043F46008F2D8D2E00
:103F4A00AF2D123DC5EFC454F0FDAF2E123DC5EFA3
:093F5A00540FFFED2FF52FAF2FDE
:013F6300223B
:10004E007BFF7A4079A7C003C002C0017B017A0210
:10005E0079C3A801AC02AD03D001D002D0037E005B
:10006E007F041209839002C7E4F07BFF7A4079ABDC
:10007E00C003C002C0017B017A0279C8A801AC029C
:10008E00AD03D001D002D0037E007F0A1209839007
:10009E000225E0FFEF20E40302049F900225E0FF1B
:1000AE00EF54EFFF900225EFF090025BE0FFEF12AE
:1000BE000BCD01445200CA57000001DD90025CE0F6
:1000CE00FFEF644760030201DD9002BFE4F090028F
:1000DE0078E0FF900279E0FD123F469002C0EFF00B
:1000EE0090027AE0FF90027BE0FD123F469002C143
:1000FE00EFF090027CE0FF90027DE0FD123F469013
:10010E0002C2EFF09002BFE0FCA3E0FDA3E0FEA36D
:10011E00E0FF90021A120B907B017A0279C07513E0
:10012E00037FFB7E7F1218507B017A0279C37D0418
:10013E001239640201DD90025CE0FFEF6447600358
:10014E000201DD9002C87428F09002C97452F0903A
:10015E0002CA7447F09002CB7429F090021BE0FFA4
:10016E00EFC4540FFF123D679002CCEFF090021BCC
:10017E00E0FFEF540FFF123D679002CDEFF09002BB
:10018E001CE0FFEFC4540FFF123D679002CEEFF05C
:10019E0090021CE0FFEF540FFF123D679002CFEF6D
:1001AE00F090021DE0FFEFC4540FFF123D67900266
:1001BE00D0EFF090021DE0FFEF540FFF123D67905D
:1001CE0002D1EFF07B017A0279C87D0A1239649070
:1001DE00025BE0FFEF6454705290025CE0FFEF644C
:1001EE0045704890025DE0FFEF6453703E90025EF2
:1001FE00E0FFEF6454703490025FE0FFEFB4292B00
:10020E00900235E0FFEF4408FF900235EFF09002C8
:10021E0045E0FFEF547FFF900245EFF0C2A7C2A06A
:10022E007B017A0279C37D04123964900235E0FFB6
:10023E00EF131313541FFFEF5401FF7E00EF640101
:10024E004E600302049F90025BE0FFEF120BCD02A3
:10025E00A14502EA4603284B03F6500270530000F4
:10026E00049F30B507C2B57F02123FFD122E3B7FB1
:10027E000112410212415FC2B3900245E0FFEF54FA
:10028E007FFF900245EFF07B017A0279C37D041265
:10029E0039642290025CE0FFEF644E600302049F1B
:1002AE0090025DE0FFEF6444600302049F9002350C
:1002BE00E0FFEF54F7FF900235EFF0124147D2B551
:1002CE00C2B3900245E0FFEF547FFF900245EFF07E
:1002DE007B017A0279C37D041239642290025CE0BC
:1002EE00FFEF644D600302049F30B507C2B57F0275
:1002FE00123FFD122E3B7F0012410212415FC2B32C
:10030E00900245E0FFEF4480FF900245EFF07B0145
:10031E007A0279C37D041239642290025CE0FFEF09
:10032E006459600302049F90025DE0FFEF64296050
:10033E000302049F9002C87428F09002C9744BF017
:10034E009002CA7459F0900241E4F0785DE6FFEF36
:10035E005401FF900241E0FEEE54FEFEEE4FFF9080
:10036E000241EFF0785DE6FFEF5402FF900241E0AC
:10037E00FEEE54FDFEEE4FFF900241EFF0785DE68B
:10038E00FFEF5404FF900241E0FEEE54FBFEEE4FF1
:10039E00FF900241EFF0785DE6FFEF5408FF900208
:1003AE0041E0FEEE54F7FEEE4FFF900241EFF0906B
:1003BE000241E0FFEF54FFFFEFC4540FFF123D6701
:1003CE009002CBEFF0900241E0FFEF540FFF123D91
:1003DE00679002CCEFF09002CD7429F07B017A0287
:1003EE0079C87D061239642290025CE0FFEF644802
:1003FE00704C90025FE0FFEF6429704290025DE066
:10040E00FFEFB4321790025EE0FFEFB4370ED2A7C3
:10041E007B017A0279C37D041239642290025DE079
:10042E00FFEF6432706B90025EE0FFEF643070613C
:10043E00D2A07B017A0279C37D0412396422900224
:10044E005CE0FFEF644C704990025FE0FFEF6429BF
:10045E00703F90025DE0FFEFB4321790025EE0FF56
:10046E00EFB4370EC2A77B017A0279C37D0412392D
:10047E00642290025DE0FFEFB4321690025EE0FF60
:10048E00EFB4300DC2A07B017A0279C37D0412391C
:01049E0064F9
:01049F00223A
:103F8100900395E4F0A37404F090039574FF75F029
:0B3F9100FF120A17AFF0FEEF4E70EEBB
:013F9C002202
:104086009003977401F0900397E0FF14F0EF70F639
:014096002207
:103F0700D294439110D294C297439180C297D2968C
:103F17005391BFD296D2A2439504D2A212408622D1
:023B31008F4AB9
:103B3300900398E4F0900398E0FF7E00C3EF9408AD
:103B4300EE64809480501DC297E54A30E704D29614
:103B53008002C296E54A25E0F54AD297900398E0A1
:043B630004F080D119
:013B6700223B
:1034A50090039A74FFF0900399E4F0900399E0FF7C
:1034B5007E00C3EF9408EE64809480503BC29790E1
:1034C500039AE0FFEF25E0FF90039AEFF0D29730E3
:1034D500961090039AE0FFEF4401FF90039AEFF0F6
:1034E500800E90039AE0FFEF54FEFF90039AEFF0F1
:0D34F500900399E004F080B390039AE0FF8B
:0135020022A6
:103C3E008F368D37D2965391BFC297439180C297DC
:103C4E00D2A2C294124086E536547FFF123B31AFAA
:103C5E0037123B31C297124086D294D2965391BFFF
:033C6E00D29622C9
:1037CF008F258B268A278928D2965391BFC297437C
:1037DF009180C297D2A2C294124086E5254480FF01
:1037EF00123B315391BFD2961234A5AB26AA27A90B
:1037FF0028EF1209EFC297124086D294D2965391B6
:04380F00BFD296226C
:1040130043B10853B2F743B10453B2FB43B1105356
:06402300B2EF123F07227C
:023FB6008F4B2F
:103FB8009003A074FFF07B017A0379A0AF4B12370E
:063FC800CF9003A0E0FF12
:013FCE0022D0
:102CC6000066EC1CF0801408910202D0AEE03500DC
:102CD60000F410E24220008141E27E1941CCCC187A
:102CE600190C00BBC09B06019F392929C0A2545369
:102CF6000000B40000010000420800550400000076
:102D06000000155555000B00000000000000006093
:102D1600FF00001F107083010086D0001F043F7F54
:102D26000066EC1CF0801408910202D0AEE035007B
:102D360000F410E24220008141E27E1941CCCC1819
:102D4600190C00BBC09B060A9F392929C0A25453FF
:102D56000000B40000010000500A00550400000005
:102D66000000155555000B00000000000000006033
:102D7600FF02001F107483010086D0001F043F5F0E
:1013A7004103590043034700000043034A0000007C
:1013B70042034D000042034F0000440351FFFFFF6B
:1013C700FF440355FFFFFFFF44033E0000000044B6
:0A13D70003420000000041033D0046
:1031A8001240131238137BFF7A2C79C675180C7FDE
:1031B800001239217BFF7A2C79D275180C7F0C12FA
:1031C80039217BFF7A2C79DE7518087F181239218E
:1031D8007BFF7A2C79E67518187F201239217BFF3E
:1031E8007A2C79FE75181D7F381239217BFF7A2DCC
:1031F800791B75180B7F551239217F09123FB6EFDD
:1032080054F8FF90033AEFF090033AE0FFEF4402DE
:10321800FD7F09123C3E123F27123AF97E00EF4E1D
:04322800700280FEB2
:01322C00227F
:103F27007F151240EE7D077F0A123CA47F3F1240A7
:0F3F3700F87F001232A17F011237431241472257
:094116008F4C900359E54CF02296
:06413B00900359E0FF2291
:0641410090033DE0FF22A7
:101A780090033B7401F0900359E0FFEF120BCD1A6D
:101A8800A9001AB1011AE4021B4E031B80041B9122
:101A9800051BEB061C4E071C61081C710900001C85
:101AA8008A90033BE4F0021C8A12414D121E9E12DA
:101AB8003CD5123FE61241657E00EF4E7008900358
:101AC800597409F080069003597402F0AE30AF31B2
:101AD800E4FCFD90033E120B90021C8A30B2069083
:101AE80003597403F07FFF7EFF7DFF7CFF90035155
:101AF800E0F8A3E0F9A3E0FAA3E0FBC3120B4A70F5
:101B080003021C8AAE30AF31E4FCFD90033EE0F8DE
:101B1800A3E0F9A3E0FAA3E0FBC3EF9BFFEE9AFE74
:101B2800ED99FDEC98FC900351E0F8A3E0F9A3E0EF
:101B3800FAA3E0FBC3120B4A4003021C8A90035924
:101B48007404F0021C8A12414D900347E0FBA3E0A5
:101B5800FAA3E0F990034DE0FCA3E0FD12000012A7
:101B68001E9E90033DEFF0124147900359E4F09018
:101B7800033B7402F0021C8A124147900359E4F0B7
:101B880090033B7403F0021C8A12414D121E9E12F0
:101B98003D06123FCF90034AE0FBA3E0FAA3E0F929
:101BA80090034FE0FCA3E0FD1200007F6E123FB6E9
:101BB8007E00EF20E1069003597409F012415F7E20
:101BC80000EF4E70089003597409F080069003598D
:101BD8007406F0AE30AF31E4FCFD900342120B9076
:101BE800021C8A30B3069003597407F07FFF7EFF0A
:101BF8007DFF7CFF900355E0F8A3E0F9A3E0FAA38A
:101C0800E0FBC3120B4A607AAE30AF31E4FCFD90C2
:101C18000342E0F8A3E0F9A3E0FAA3E0FBC3EF9BDB
:101C2800FFEE9AFEED99FDEC98FC900355E0F8A3C1
:101C3800E0F9A3E0FAA3E0FBC3120B4A5044900377
:101C4800597408F0803C121E9E124147900359E4D3
:101C5800F090033B7404F08029124147900359E443
:101C6800F090033B7405F0801912411F7F14123D58
:101C7800F212414D123F27900359E4F090033B7450
:071C880006F090033BE0FFB2
:011C8F002232
:103D97008F4D12411F7F14123DF212414DE54D60C8
:103DA700077F1D1240EE80057F1D1240EE121E9EFA
:0E3DB7007F001232A17F0112374312414722D2
:102E3B001238137BFF7A2D792675180C7F00123907
:102E4B00217BFF7A2D793275180C7F0C1239217B7F
:102E5B00FF7A2D793E7518087F181239217BFF7A7E
:102E6B002D79467518187F201239217BFF7A2D7921
:102E7B005E75181D7F381239217BFF7A2D797B7592
:102E8B00180B7F551239217F09123FB6EF54F8FF0B
:102E9B0090033CEFF090033CE0FFEF4402FD7F0911
:102EAB00123C3E7F0C1240EE7F00123C717F0112F0
:102EBB003A4E7F0112410C7F001232A17F01123773
:102ECB004312414743B10453B2FB53B1F743B2082A
:062EDB0043B11053B2EFF9
:012EE10022CE
:08411F007DFF7F7F123C3E2270
:0A40E4007F61123FB6EF540FFF2278
:0838DE008F298D2A8A2B8B2C07
:1038E600AD297F60123C3EC3E531952CE530952B22
:1038F60050231240E490035AEFF090035AE0FFE59C
:103906002A6F601190035AE0FF7E00EF64084E7044
:0A391600D6800280D290035AE0FF31
:013920002284
:0226E9008F4E12
:1026EB00E531240AFFE5303400FE90035BEEF0A3E6
:1026FB00EFF0E54E120BCD272002273804274008B8
:10270B002718102728202730400000274690035D0C
:10271B007401F0802690035D7402F0801E90035DBF
:10272B007404F0801690035D7406F0800E90035DC8
:10273B007403F0800690035D7405F090035BE0FE7C
:10274B00A3E0FFC3E5319FE5309E400302282F1223
:10275B0040E490035EEFF0AF4E7E00EF64204E60DE
:10276B000AAF4E7E00EF64404E701A90035EE0FF9E
:10277B007E00EF64034E603B90035EE0FF7E00EF54
:10278B0064054E602EAF4E7E00EF64044E600AAFC0
:10279B004E7E00EF64084E702E90035EE0FF7E00CD
:1027AB00EF64044E600D90035EE0FF7E00EF640665
:1027BB004E701490035BE0FAA3E0FB7D027F0212E4
:1027CB0038DE90035EEFF090035DE0FF90035EE078
:1027DB00FEEE6F601790035DE0FD90035BE0FAA3E4
:1027EB00E0FBAF4E1238DE90035EEFF090035EE03D
:1027FB00FF7E00EF64084E701490035BE0FAA3E0D9
:10280B00FB7D027F021238DE90035EEFF090035DDA
:10281B00E0FF90035EE0FEEE6F60030227467F0150
:06282B00220227467F0097
:012831002284
:064147007F101226E922A0
:06414D007F021226E922A8
:064153007F201226E92284
:064159007F041226E9229A
:06415F007F401226E92258
:064165007F081226E9228A
:0A40EE008F4FAD4F7F65123C3E225C
:103CA4008F388D3953381F7F66123FB6EF54E0FFCB
:103CB400EF4238AD387F66123C3E53391F7F67129E
:103CC4003FB6EF54E0FFEF4239AD397F67123C3E17
:013CD40022CD
:023F64008F3A92
:103F66007F66123FB68F3BE53A6005533BDF800321
:0A3F7600433B20AD3B7F66123C3E4A
:013F8000221E
:023B68008F507C
:103B6A007F54123FB690035FEFF090035FE0FFEFE0
:103B7A005480FF90035FEFF090035FE0FFE550543D
:103B8A007FFEEF4EFF90035FEFF090035FE0FD7F53
:043B9A0054123C3E47
:013B9E002204
:0233E4008F5107
:1033E6007F66123FB6900360EFF0AF517E00EF4E5E
:1033F600701E900360E0FFEF4480FF900360EFF0E3
:10340600900360E0FFEF54BFFF900360EFF080266B
:10341600AF517E00EF64014E701C900360E0FFEF39
:10342600547FFF900360EFF0900360E0FFEF4440AD
:10343600FF900360EFF0900360E0FD7F66123C3E74
:013446002263
:0A40F8008F52AD527F68123C3E2249
:0239DC008F5307
:1039DE007F69123FB6900361EFF0E55360109003DC
:1039EE0061E0FFEF54EFFF900361EFF0800E900364
:1039FE0061E0FFEF4410FF900361EFF0900361E090
:063A0E00FD7F69123C3E41
:013A1400228F
:023A15008F54CC
:103A17007F69123FB6900362EFF0E55460109003A0
:103A270062E0FFEF4402FF900362EFF0800E900325
:103A370062E0FFEF54FDFF900362EFF0900362E056
:063A4700FD7F69123C3E08
:013A4D002256
:103CD5007F69123FB6900363EFF0900363E0FFEF57
:103CE50054FEFF900363EFF0900363E0FFEF54FB96
:103CF500FF900363EFF0900363E0FD7F69123C3EA4
:013D0500229B
:103D06007F69123FB6900364EFF0900364E0FFEF23
:103D16004401FF900364EFF0900364E0FFEF440476
:103D2600FF900364EFF0900364E0FD7F69123C3E70
:013D3600226A
:084127007D047F6C123C3E2276
:103FCF007F6E123FB6900365EFF07D017F6C123C60
:063FDF003E900365E0FFC7
:013FE50022B9
:103FE6007F6E123FB6900366EFF07D027F6C123C47
:063FF6003E900366E0FFAF
:013FFC0022A2
:101E9E00900369E4F090036AE4F090036BE4F07F42
:101EAE0066123FB690036CEFF090036CE0FFEF30DC
:101EBE00E5047F0180027F0090036CEFF07F6D12CE
:101ECE003FB6900367EFF07F6A123FB6900368EF5C
:101EDE00F090036CE0FFEF601A900367E0FFEFF401
:101EEE00FF900367EFF0900368E0FFEFF4FF9003BD
:101EFE0068EFF0900367E0FFEF30E70E90036AE0C3
:101F0E00FFEF4420FF90036AEFF0900367E0FFEFCE
:101F1E0030E60E90036AE0FFEF4401FF90036AEF94
:101F2E00F0900367E0FFEF30E50E90036AE0FFEFFD
:101F3E004401FF90036AEFF0900367E0FFEF30E497
:101F4E001C90036AE0FFEF4410FF90036AEFF090DD
:101F5E00036BE0FFEF4410FF90036BEFF09003670D
:101F6E00E0FFEF30E31C90036AE0FFEF4408FF90C0
:101F7E00036AEFF090036BE0FFEF4408FF90036BF2
:101F8E00EFF0900367E0FFEF30E21C90036AE0FF92
:101F9E00EF4404FF90036AEFF090036BE0FFEF4411
:101FAE0004FF90036BEFF0900367E0FFEF30E11C4E
:101FBE0090036AE0FFEF4402FF90036AEFF0900394
:101FCE006BE0FFEF4402FF90036BEFF0900367E0CE
:101FDE00FFEF30E01C90036AE0FFEF4401FF900337
:101FEE006AEFF090036BE0FFEF4401FF90036BEF9D
:101FFE00F0900368E0FFEF30E51C900369E0FFEF1F
:10200E004402FF900369EFF090036BE0FFEF448012
:10201E00FF90036BEFF0900368E0FFEF30E41C904D
:10202E000369E0FFEF4401FF900369EFF090036B4B
:10203E00E0FFEF4440FF90036BEFF0900368E0FF8A
:10204E00EF30E31C900369E0FFEF4404FF90036957
:10205E00EFF090036BE0FFEF4420FF90036BEFF087
:10206E00900369E0FD7F6A123C3E90036AE0FD7FBB
:10207E006B123C3E90036CE0FFEF600D90036BE043
:0E208E00FFEFF4FF90036BEFF090036BE0FFA9
:01209C002221
:023C71008F556D
:103C73007F69123FB690036DEFF090036DE0FFEFA5
:103C8300549FFF90036DEFF090036DE0FFEF4555F8
:103C9300FF90036DEFF090036DE0FD7F69123C3EF2
:013CA30022FE
:023A4E008F5691
:103A50007F69123FB690036EEFF0E5566010900359
:103A60006EE0FFEF4480FF90036EEFF0800E900356
:103A70006EE0FFEF547FFF90036EEFF090036EE077
:063A8000FD7F69123C3ECF
:013A8600221D
:023A87008F5757
:103A89007F67123FB690036FEFF0E5576010900320
:103A99006FE0FFEF4420FF90036FEFF0800E90037B
:103AA9006FE0FFEF54DFFF90036FEFF090036FE0DB
:063AB900FD7F67123C3E98
:013ABF0022E4
:103AF9007F48123FB6900370EFF07DAA7F48123CD1
:103B09003E7F48123FB6900371EFF0900370E0FDDD
:103B19007F48123C3E900371E0FF7E00EF64AA4E9D
:073B290070037F01227F0001
:013B30002272
:06416B007F6F123FB62237
:104097007F70123FB67E00EF2480FFEE34FFFE22D2
:0A4102008F58AD587F63123C3E2237
:0A410C008F59AD597F64123C3E222A
:043503008E3C8F3D2E
:103507007F45123FB6900372EFF0900372E0FFEF32
:10351700548FFF900372EFF0900372E0FDE53CC417
:10352700F854F0C868FEE53DC4540F48FFEF5470E7
:10353700FFED4FFF900372EFF0900372E0FD7F45C0
:10354700123C3EAF3DEF54FFFF900372EFF0900344
:0835570072E0FD7F46123C3ECC
:01355F002249
:0232A1008F5A42
:1032A3007F0D123FB6900373EFF0E55A602C900345
:1032B30073E0FFEF4480FF900373EFF0900373E03C
:1032C300FFEF4440FF900373EFF0900373E0FFEFD1
:1032D3004420FF900373EFF0802A900373E0FFEF25
:1032E300547FFF900373EFF0900373E0FFEF54BF3D
:1032F300FF900373EFF0900373E0FFEF54DFFF9051
:0E3303000373EFF0900373E0FD7F0D123C3E6C
:013311002299
:023AC0008F5B1A
:103AC2007F67123FB6900374EFF0E55B60109003DE
:103AD20074E0FFEF4440FF900374EFF0800E900318
:103AE20074E0FFEF54BFFF900374EFF0900374E0B3
:063AF200FD7F67123C3E5F
:013AF80022AB
:023743008F5C99
:103745007F62123FB6900375EFF0900375E0FFEFCF
:1037550054EFFF900375EFF0E55C6010900375E0A2
:10376500FFEF4420FF900375EFF0800E900375E0A6
:10377500FFEF54DFFF900375EFF0900375E0FD7FD9
:0437850062123C3E52
:01378900221D
:1038130012411F7F14123DF212414D7F61123FB6D8
:10382300900376EFF0900376E0FFEF4410FF9003F0
:1038330076EFF0900376E0FFEF54DFFF900376EF2F
:10384300F0900376E0FD7F61123C3E7F001232A1CF
:03385300121E9EA4
:01385600224F
:083921008F148B158A1689171B
:10392900900377E4F0900377E0FFEFC395185028F0
:10393900900377E0FFEF2514FFAB15AA16A917909E
:103949000377E0FE8E827583001209C2FD123C3EA8
:0A395900900377E004F080CD7F01B9
:013963002241
:0300000002300CBF
:0C300C00787FE4F6D8FD75815D0230533A
:1008B300E709F608DFFA8046E709F208DFFA803E27
:1008C30088828C83E709F0A3DFFA8032E309F60814
:1008D300DFFA8078E309F208DFFA807088828C837C
:1008E300E309F0A3DFFA806489828A83E0A3F60830
:1008F300DFFA805889828A83E0A3F208DFFA804C0A
:1009030080D280FA80C680D4806980F280338010E0
:1009130080A680EA809A80A880DA80E280CA803349
:1009230089828A83ECFAE493A3C8C582C8CCC583C1
:10093300CCF0A3C8C582C8CCC583CCDFE9DEE78091
:100943000D89828A83E493A3F608DFF9ECFAA9F010
:10095300EDFB2289828A83ECFAE0A3C8C582C8CC66
:10096300C583CCF0A3C8C582C8CCC583CCDFEADE7F
:10097300E880DB89828A83E493A3F208DFF980CCE1
:1009830088F0EF60010E4E60C388F0ED2402B404DA
:100993000050B9F582EB2402B4040050AF23234581
:0609A3008223900903739A
:1009A900BB010689828A83E0225002E722BBFE024C
:0909B900E32289828A83E493227F
:1009C200BB010CE58229F582E5833AF583E02250EA
:1009D20006E92582F8E622BBFE06E92582F8E22234
:0D09E200E58229F582E5833AF583E493224E
:1009EF00BB010689828A83F0225002F722BBFE01E7
:0209FF00F322E1
:100A0100C5F0F8A3E028F0C5F0F8E5821582700280
:060A11001583E038F0221D
:100A1700A3F8E0C5F025F0F0E58215827002158392
:060A2700E0C838F0E822EF
:100A2D00E88FF0A4CC8BF0A42CFCE98EF0A42CFC68
:100A3D008AF0EDA42CFCEA8EF0A4CDA8F08BF0A4E6
:100A4D002DCC3825F0FDE98FF0A42CCD35F0FCEB45
:100A5D008EF0A4FEA9F0EB8FF0A4CFC5F02ECD390A
:0F0A6D00FEE43CFCEAA42DCE35F0FDE43CFC2277
:100A7C0075F008758200EF2FFFEE33FECD33CDCC31
:100A8C0033CCC58233C5829BED9AEC99E5829840B4
:100A9C000CF582EE9BFEED9AFDEC99FC0FD5F0D691
:100AAC00E4CEFBE4CDFAE4CCF9A88222B800C1B9BB
:100ABC000059BA002DEC8BF084CFCECDFCE5F0CBF9
:100ACC00F97818EF2FFFEE33FEED33FDEC33FCEB32
:100ADC0033FB10D703994004EB99FB0FD8E5E4F9ED
:100AEC00FA227818EF2FFFEE33FEED33FDEC33FCDA
:100AFC00C933C910D7059BE99A4007EC9BFCE99ACE
:100B0C00F90FD8E0E4C9FAE4CCFB2275F010EF2F12
:100B1C00FFEE33FEED33FDCC33CCC833C810D70712
:100B2C009BEC9AE899400AED9BFDEC9AFCE899F84D
:0E0B3C000FD5F0DAE4CDFBE4CCFAE4C8F922E0
:10385700C2D5E830E70FB2D5E4C39BFBE49AFAE49C
:1038670099F9E498F8EC30E717B2D512388D120AB7
:10387700B8E4C39BFBE49AFAE499F9E498F8800367
:10388700120AB830D50DE4C39FFFE49EFEE49DFD08
:04389700E49CFC228F
:100B4A00EB9FF5F0EA9E42F0E99D42F0E89C45F001
:010B5A002278
:100B5B007401FF3395E0FEFDFCA3A3A3E0CF2FF0C0
:100B6B00E582158270021583E0CE3EF0E582158298
:100B7B0070021583E0CD3DF0E5821582700215837E
:050B8B00E0CC3CF0226B
:0C0B9000ECF0A3EDF0A3EEF0A3EFF022D8
:100B9C00A8828583F0D083D082120BB3120BB312D0
:100BAC000BB3120BB3E473E493A3C583C5F0C583F5
:100BBC00C8C582C8F0A3C583C5F0C583C8C582C8A3
:010BCC002206
:100BCD00D083D082F8E4937012740193700DA3A3B7
:100BDD0093F8740193F5828883E4737402936860CB
:060BED00EFA3A3A380DFCB
:10301800022832E493A3F8E493A34003F68001F274
:1030280008DFF48029E493A3F85407240CC8C333B9
:10303800C4540F4420C8834004F456800146F6DF88
:10304800E4800B0102040810204080901194E47E73
:10305800019360BCA3FF543F30E509541FFEE4937D
:10306800A360010ECF54C025E060A840B8E493A344
:10307800FAE493A3F8E493A3C8C582C8CAC583CA6F
:10308800F0A3C8C582C8CAC583CADFE9DEE780BE27
:0113E100000B
:00000001FF
