:020000040000FA
:1000000080312328080008007E1480310B1C092849
:100010000A28192820004E180E28112820000E1436
:10002000132820000E108C313B24803127009301CF
:100030000B102000911C1D281E282128CA01CA0A65
:1000400091107E10090080312528FA0120308400AB
:1000500000308500313089312B218031A03084007F
:10006000003085004D3089312B21803120308400D3
:1000700001308500293089312B218031A030840066
:1000800001308500283089312B2180317E102000FD
:100090008D319A2DD6294008031D4F285028592804
:1000A000E830A2000330A3000130D1005108BA07A4
:1000B000FF2922082304031D5E285F28FF290A3038
:1000C000D1005108BA00FF2922082304031D692822
:1000D0006A2881280130D1005108BA07B830A2003F
:1000E0000B30A3006730F3000030F4006730D1001C
:1000F0005108F500F6018A31A72280312100D9018B
:10010000D90A20004208031986288728FF29420AB5
:1001100003198B288C28FF29893197218031FF29E9
:1001200022082304031D9528962897288C28420826
:1001300003199B289C28FF29420A031DA028A128F7
:10014000A228FF292B080319A628A728AE280230C9
:100150004206031DAC28AD288C2850284203031DFD
:10016000B228B3288C28502822082304031DB9285C
:10017000BA28FF290130D1005108BA07B830A200CF
:100180000B30A3006730F3000030F4006730D1007B
:100190005108F500F6018A31A72280312100D901EA
:1001A000D90AFF2922082304031DD728D828D928D3
:1001B0008C2842080319DD28DE28FF29420A031D86
:1001C000E228E328E428FF292B080319E828E92876
:1001D000FA2802304206031DEE28EF288C28E8306A
:1001E000A2000330A3000130D1005108BA07C001BA
:1001F000C00AFF294203031DFE28FF288C2850282F
:1002000022082304031D05290629FF290130D100F6
:100210005108BA07B830A2000B30A3006730F300D2
:100220000030F4006730D1005108F5000230D200F0
:100230005208F6008A31A7228031CE2822082304F2
:10024000031D2329242925298C284208031929293B
:100250002A29FF29420A031D2E292F293029FF2987
:100260002B08031934293529402902304206031D81
:100270003A293B298C281030A2002730A300F3280C
:100280004203031D442945298C281030A200273041
:10029000A300542822082304031D4F295029512963
:1002A0008C284208031955295629FF29420A031DA3
:1002B0005A295B295C29FF292B0803196029612928
:1002C0009B2902304206031D662967298C280930C4
:1002D0003A06031D6C296D2954287A08D10051086B
:1002E000F90079080319752976297829F9017A29FD
:1002F000F901F90A7908D1005108FA008931C121C0
:1003000080316730F3000030F40067302000D10006
:100310005108F5000430D2005208F6008A31A722B5
:1003200080312100D901D90A2000BE011430D1004A
:100330005108C5008C284203031D9F29A0298C2841
:1003400009303A06031DA529A62954287A08D100A8
:100350005108F90079080319AE29AF29B129F9012B
:10036000B329F901F90A7908D1005108FA00893155
:10037000C12180316730F3000030F4006730200085
:10038000D1005108F5000430D2005208F6008A313D
:10039000A72280312100D901D90A2000BE018C2872
:1003A0004008031DD429D529FF298C2820003A08AC
:1003B000D100D2015208003A0319DF29FF29510860
:1003C000013A03194B28033A03196428013A031927
:1003D0009028073A0319B428013A0319D228033A9E
:1003E00003190029013A03191E290F3A03194A2952
:1003F000013A03194A29033A0319D029FF290800B1
:100400002000C201FF30EA006A08C400023048063A
:10041000031D0B2A0C2A0D2AA82B00300D1A0130BF
:1004200089316D218231003020000E1A013089316E
:100430006D218231003020000C1A013089316D218C
:100440008231003020008C19013089316D218231D8
:10045000003020008E1A013089316D218231013047
:1004600089316D218231013089316D218231200045
:100470004408430603193D2A3E2A522A4408EA004A
:100480006A08C30089314E2182318931312182319C
:1004900088302100BA001330BB007430B800273018
:1004A000B900A82B01302100B6020030B73B360856
:1004B000370403195C2A5D2A5E2AA82B0130B60096
:1004C0000030B7002000440A0319672A682AD02A9E
:1004D00021003A083B0403196E2A6F2A732A01305F
:1004E000BA020030BB3B380839040319782A792A4C
:1004F0007D2A0130B8020030B93B8A31472282316F
:10050000200048030319852A862A922A3908031DE8
:100510008A2A8B2A922A210038083904031D912A3D
:10052000922AD02A20003908031D972A982AC52A22
:10053000B901B90A210038083904031DA02AA12AEB
:10054000AB2A6730B4000030B50067302000EA0005
:100550006A08B800B42A2830B4000030B5003C3036
:100560002000EA006A08B80021003508B30034080A
:10057000B20020003808EA006A082100DA000230E0
:100580002000EA006A08B700D02A023037020318B8
:10059000CA2ACB2AD02A0230EA006A08B700D02A39
:1005A0002000EC016C08003E840090300318013EEE
:1005B000850000084406031DDE2ADF2AE42A6C08B1
:1005C000EA006A08B600EE2A0130EA006A08EC0781
:1005D00011306C02031CED2AEE2AD22A6C08EA00C4
:1005E000EB016A082100B00020006B082100B10077
:1005F00020003D03031DFD2AFE2AFF2AA82B1130EF
:100600006C06031D042B052B102BC10189313121F0
:1006100082312000C001C00A893197218231A82B84
:1006200040080319142B152B6B2B440A0319192BA3
:100630001A2B6B2B05306C0603191F2B202B382B24
:1006400006306C060319252B262B382B07306C0639
:1006500003192B2B2C2B382B09306C060319312B4B
:10066000322B382B0C306C06031D372B382BA82B64
:100670005008031D3C2B3D2BA82B6B2B8D313825AF
:100680008231A82B5008031D462B472BA82B843101
:10069000BB248231A82B8931AC218231A82B8B312C
:1006A0002B238231A82B8A31E9228231A82B8A316F
:1006B000C8228231A82B8B310A238231A82B8031AA
:1006C00003208231A82B8731FF278231A82B873165
:1006D000ED278231A82B6C08EA00EB016B08003A89
:1006E0000319732BA82B6A08003A03193E2B013A11
:1006F0000319422B033A0319422B013A0319422BE7
:10070000073A0319422B013A03194B2B033A0319F9
:100710004B2B013A03194B2B0F3A03194F2B013A7C
:1007200003194B2B033A0319532B013A0319572B87
:10073000073A03194B2B013A03195B2B033A0319B0
:100740005F2B013A0319632B1F3A0319672BA82B60
:1007500008002000E60045302A020318B02BB12B18
:10076000DF2B3B03031DB52BB62BDF2B19304502C6
:100770000318BB2BBC2BDF2B4508193CE300630897
:10078000E7002A086707E3006308AA000030E400D6
:100790002A08453CE300031CE4036408803AE500B2
:1007A00080306502031DD62B1B306302031CD92B3E
:1007B000DA2BDF2B19302000E3006308C500193065
:1007C000200045020318E52BE62BEB2B3C08031D0C
:1007D000EA2BEB2BB92C3B08031DEF2BF02B282C1D
:1007E000BB01BB0A8D174608E3006308C500282C2F
:1007F0000830E3006308CB00912C0430E300630869
:10080000CB00912C0230E3006308CB00912CCB018C
:10081000CB0A912C1430E3006308CB00912C0C30F0
:10082000E3006308CB00912C0A30E3006308CB009F
:10083000912C0930E3006308CB00912C0630E300D3
:100840006308CB00912C0330E3006308CB00912CAC
:100850006608E300E4016408003A0319302C912C87
:100860006308013A0319F82B033A0319FD2B013AE7
:100870000319022C073A0319072C013A03190F2C0C
:10088000033A0319142C013A0319192C0E3A0319CF
:100890001E2C033A03190A2C063A0319232C912C17
:1008A0006730F3000030F4006730E3006308F500C0
:1008B000F6018A31A7228331AA2C6730F300003079
:1008C000F4006730E3006308F500F601F60A8A31A8
:1008D000A7228331AA2C6730F3000030F400673080
:1008E000E3006308F5000230E4006408F6008A3192
:1008F000A7228331AA2CF430F3000130F400F50173
:10090000F50AF6018A31A7228331AA2CE830F300D8
:100910000330F400F501F50AF6018A31A72283318C
:10092000AA2C6208E300E4016408003A0319992C38
:10093000AA2C6308013A0319502C033A03195D2CC1
:10094000013A03196B2C073A03197B2C103A03194F
:10095000862CAA2C89313F2183318C31E0248331CC
:100960008F312627833119302000E3006308BC0053
:10097000BA2C8D120800893187218431003A03197D
:10098000C22CC32C282D20002E08031DC82CC92CD6
:10099000D32C2D08031DCD2CCE2CD32C2C080319C1
:1009A000D22CD32CCB2D24082504031DD82CD92CD4
:1009B000CB2D3908031DDD2CDE2CCB2D21003A0870
:1009C0003B04031DE42CE52CCB2D20002E08031D39
:1009D000EA2CEB2CF02C2C080319EF2CF02CF82C23
:1009E0000A30E8006808BA00C201C001C00ACB2D75
:1009F000BA01BA0A6730F3000030F4006730E8004B
:100A00006808F500F601F60A8A31A7228431210030
:100A1000D901D90A20003B08031D0F2D102D172DD9
:100A2000BB01BB0A8D174608E8006808C500A03066
:100A3000A2000F30A300C201C101C001C00AAB0176
:100A4000AB0A2E080319252D262DCB2DAB01CB2D5E
:100A500020003608E8006808C2003A08031D312D5E
:100A6000322DCB2D4C080319362D372D452DCB2D8E
:100A7000AE01AE0A8830A4001330A500582DAD0198
:100A8000AD0A3A2DAC01AC0A3A2D4208E800E90162
:100A90006908003A03194D2D582D6808013A0319C9
:100AA000382D033A03193F2D013A0319422D582DD1
:100AB0007A0803195C2D5D2D632D04304206031D59
:100AC000622D632D732D89319721843120003608E2
:100AD000E8006808E20036088331A9238431210048
:100AE000C001C101CB2D3A08031D772D782DCB2DE8
:100AF0004C0803197C2D7D2D7E2DCB2D0230420616
:100B0000031D832D842DBB2D893197218431200035
:100B10003608E8006808E20036088331A9238431EA
:100B20002100C001C1012000BE01BE0AB830A000F2
:100B30000B30A1002100BC01BD01CB2D3E080319E3
:100B4000A22DA32DCB2D200821040319A82DA92DFA
:100B5000CB2DBE01A001A1013608E8006808E20023
:100B600036088331A92384312100C001C1018931B4
:100B700097218431CB2D4208E800E9016908003A49
:100B80000319C32DCB2D6808013A03199E2D023A93
:100B900003199E2DCB2D0800893128218531003A7B
:100BA000031DD32DD42DD52DC32E20003B08031DAE
:100BB000DA2DDB2DDE2DBB01BB0A8D1721003E088F
:100BC0003F040319E42DE52DFE2D33302000E8000D
:100BD0006808C50001302100BC070030BD3D013070
:100BE0003D02F43003193C02031CF72DF82DAC2E06
:100BF000BC01BD01203020008D06AC2EF430F30086
:100C00000130F400FA302000E8006808F5000230F6
:100C1000E9006908F6008A31A722853120008D128B
:100C2000CC01AC2E0130E8002908403E860001309E
:100C30008700680881073A300102031C202E212E0C
:100C40002A2E3030E8002908403E86000130870017
:100C5000680881006730F3000030F4006730E80076
:100C60006808F500F6018A31A7228531603021003D
:100C7000BE00EA30BF00C32E0130E8006808A907B3
:100C800009302902031C452E462E4B2E0830E80061
:100C90006808A900362E6730F3000030F400673092
:100CA000E8006808F500F601F60A8A31A7228531C6
:100CB000362E8931D9218531E830F3000330F40034
:100CC000F501F50AF6018A31A7228531362E083062
:100CD000290203186C2E6D2E6E2EC32E40308C31DF
:100CE0008D24853120005C082100AB0020005B08CA
:100CF0002100AA0020005A082100A900200059085C
:100D00002100A8002B08031D8F2EFF302802FF3082
:100D1000293BFF302A3B031C8E2E8F2EA02E6430E1
:100D2000F3000030F40064302000E8006808F500AB
:100D30000330E9006908F6008A31A7228531A92E1F
:100D400014302000E8006808E20014308331A92341
:100D500085312000CC01C32E20004208E800E901C3
:100D60006908003A0319B52EC32E6808013A031921
:100D7000122E033A03193C2E013A0319592E063A52
:100D80000319672EC32E08002000DB0054088A31A7
:100D90002822863174082000DD007308DC005C081E
:100DA000D6005B08A03E860001308700560881000F
:100DB0000130D6005608DB075D08D6005B08A03E70
:100DC000860001308700560881000130D6005608A1
:100DD000DB0753088A312822863174082000DD00A1
:100DE0007308DC005C08D6005B08A03E860001307A
:100DF0008700560881000130D6005608DB075D08E1
:100E0000D6005B08A03E86000130870056088100AE
:100E10000130D6005608DB0752088A312822863175
:100E200074082000DD007308DC005C08D6005B0855
:100E3000A03E860001308700560881000130D600B0
:100E40005608DB075D08D6005B08A03E860001302F
:100E50008700560881000130D6005608DB07550888
:100E60008A312822863174082000DD007308DC00F6
:100E70005C08D6005B08A03E86000130870056085B
:100E800081000130D6005608DB075D08D6005B08FC
:100E9000A03E860001308700560881000130D60050
:100EA0005608DB075208D6005608DD005508D60064
:100EB0005608DC005408D6005608DA005308D6005D
:100EC0005608D90059085C07D7005A085D3DD8007C
:100ED00058088A312822863174082000DD00730802
:100EE000DC005C08D6005B08A03E8600013087006D
:100EF000560881000130D6005608DB075D08D60091
:100F00005B08A03E86000130870056088100013052
:100F1000D6005608DB0757088A3128228631740824
:100F20002000DD007308DC005C08D6005B08A03EF2
:100F3000860001308700560881000130D60056082F
:100F4000DB075D08D6005B08A03E86000130870005
:100F5000560881000130D6005608DB070800003033
:100F60002100AF000030AE000030AD000130AC0019
:100F70002000D1015108F300F401F335F40DF335ED
:100F8000F40D1130730784009030743D8500003FEC
:100F9000F500013FF600023FF700033FF80051085B
:100FA000F9000130F935FF3E031DD22F7935DB3EC4
:100FB000860087017508C03F7608C13F7708C23FA9
:100FC0007808C33F0130F3007308D10704305102A1
:100FD000031CEB2FEC2FBA2F08002000AE01AD014F
:100FE000AC01B9018931312187312000C101C10A29
:100FF000C001FF30F3007308C200080008000800B9
:1012440008000800080008000800080020004C08F6
:101254000800640080010131890B2C29003420002E
:10126400B001B201B501B401B301080073088600EE
:101274007408870077088100080020000E194329AC
:10128400442945290E1508007830210099001A1EBA
:101294004C294D294929080001302100B6000030AD
:1012A400B7002000A401A501080027009101043023
:1012B40092008B152200171F602961295C29080000
:1012C40020009A0164309B009110210091144D304C
:1012D40020009C000800F30003102000C40D7308D4
:1012E400031975297629772944140800F400F501B7
:1012F400802900000130F3007308F50774087502B3
:10130400031C852986297B29080020004108031D28
:101314008C298D298F2901309629C101A401A501A9
:10132400893131218931003008002000BA010230AE
:10133400F30073082100D8000230F3007308D700CB
:101344002000200821040319A829A929AB29A001F8
:10135400A10108008931972189312000C201360892
:10136400E8006808E20036088331A923893189310D
:10137400312189312000C101C001C00A08000130B7
:101384008031022089310030F6000030F500103041
:10139400F4007030F3007A08F8007808F700893117
:1013A4003821893101308931272189310800200011
:1013B400A901F4013030F3007408403E8600013086
:1013C4008700730881000130F3007308F4070830C4
:1013D4007402031CEE29EF29DC292200C80108004D
:1013E4002000E800240825040319F929FA290C2A05
:1013F4000130A4020030A53B24082504031D032A60
:10140400042A0C2AE20168088331A92389312000C7
:10141400B101B10A080020000E19112A122A272A44
:101424000E158230893178218A31823089317821D0
:101434008A318230893178218A3182308931782128
:101444008A318230893178218A310800F600F90125
:101454000230F735F80D890B2B2A761C322A332AF1
:10146400352AF714362A77140310F60C0130F500E8
:101474007508F90708307902031C412A422A2A2AEE
:101484007808F4007708F300080020000E194B2AAE
:101494004C2A652A0E15F330210067052000D1007F
:1014A400FF30210068052000D200FF3021006905CB
:1014B4002000D300FF3021006A052000D400513001
:1014C4008B31C8238A31080020003F0803196B2A96
:1014D4006C2A852ABF013C080319712A722A742ACE
:1014E4000130BC023B03031D782A792A852A45086A
:1014F40003197D2A7E2A852A3A08031D822A832A13
:10150400852A0130C502080023008C018D018E015B
:101514002100951314308C00143024008C001030FA
:1015240021008D00D03024008D003A3021008E003F
:101534007C3024008E0020008D120D138E130E13A8
:101544000E110E108C128D13080020003908031D93
:10155400AC2AAD2AC72A74082100B5007308B40068
:101564007508F70077082000B80021003508B3009B
:101574003408B20020003808F70077082100DA00A8
:101584007608F70077082000B70008008931972112
:101594008A3120003408031DD02AD12AE42AB40158
:1015A400B40AB830A4000B30A5003B08031DDB2AA5
:1015B400DC2AE82ABB01BB0A8D174E30E900690812
:1015C400C500E82A0B308931F2218A3108008931BB
:1015D40097218A3120003208031DF12AF22A052BB3
:1015E400B201B20AB830A4000B30A5003B08031DB9
:1015F400FC2AFD2A092BBB01BB0A8D174E30E900DA
:101604006908C500092B0A308931F2218A310800A2
:10161400893197218B3120003308031D122B132BA2
:10162400262BB301B30AB830A4000B30A5003B0845
:10163400031D1D2B1E2B2A2BBB01BB0A8D174E30FD
:10164400E9006908C5002A2B0D308931F2218B315C
:101654000800893197218B312000C1013508031D11
:10166400342B352B482BB501B50AB830A4000B3008
:10167400A5003B08031D3F2B402B4C2BBB01BB0A91
:101684008D174E30E9006908C5004C2B08308931AC
:10169400F2218B310800F900893128218B31003A7D
:1016A4000319552B562B572B6E2B7908F800780805
:1016B4002000CC008931D9218B31E830F30003308C
:1016C400F400F501F50AF6018A31A7228B31603066
:1016D4002100BE00EA30BF0008006430F300730844
:1016E4002000C7001A30F3007308C6004608FF3E06
:1016F400F3007308C50089314E218B31FF3020007F
:10170400C300F3007308C400C201C101C10AC001CF
:10171400893131218B312000A401A5012100C001B0
:10172400C10108000030F6000030F5000030F4007C
:101734000030F3002000511CA02BA12BA92B55082D
:10174400F3075608F43D5708F53D5808F63D0130B7
:10175400D535D60DD70DD80D890BAA2B0130D4362B
:10176400D30CD20CD10C890BB12B54085304520462
:101774005104031DBE2BBF2B9C2B7608D400750887
:10178400D3007408D2007308D1000800F7002000C9
:101794000E130D130430F3007308F6007608770770
:1017A400F3007308860087017F3FF5000830F300DB
:1017B4007308F4000D13F51FE02BE12BE32B8E17B8
:1017C400E42B8E130D177508F3007308F507013029
:1017D400F4027408031DEF2BF02BDC2B0D130130E6
:1017E400F6027608031DF72BF82BD02B0E170E17D5
:1017F4008E130E1308002100420843040319032C1E
:10180400042C3A2C2308031D122C2208031D122C2D
:10181400613020020930213B031C112C122C152CA1
:101824002000C8013A2C2308031D222C2208031D82
:10183400222C613020020930213B0318222C232C56
:10184400352C2308031D312C2208031D312C99301B
:1018540020020830213B031C302C312C352C200075
:10186400C801C80A3A2C0230F30073082000C800EB
:10187400080020005003031D402C412C8C2C073001
:1018840021004805F00000304905F100700871049A
:10189400031D4D2C4E2C622C4908F1004808F00021
:1018A400F136F00CF136F00CF136F00C7008A03E75
:1018B4008600013087000108F20072082000CF0082
:1018C4002000CF1F662C672C6A2CCE01CE0A6B2C0D
:1018D400CE010310CF0D01302100C8070030C93DEF
:1018E40047084902031D782C46084802031C7B2C38
:1018F4007C2C8C2CC801C9010130F0007008200038
:10190400CD074D080319872C882C8C2CD0018D12FF
:101914000E110E1008002000E2000030E600003036
:10192400E5000030E4000030E300E70167086207E7
:10193400DD005D088600013087000108D03EDE002E
:101944005E08E1006108DD00DE01DF01E0016608F8
:10195400D4006508D3006408D2006308D1000030C5
:10196400D8000030D7000030D6000A30D5008B31C3
:1019740094238C3120005108DD075208DE3D5308C2
:10198400DF3D5408E03D6008E6005F08E5005E08BE
:10199400E4005D08E3000130DD005D08E70708307E
:1019A4006702031CD62CD72C982C6608DC0065082B
:1019B400DB006408DA006308D900080021005E082F
:1019C4002000D40021005D082000D30021005C0821
:1019D4002000D20021005B082000D10051308B315F
:1019E400C8238C311930893178218C310430DB3EA5
:1019F40086008701403F2000D100413FD200423F92
:101A0400D300433FD40051308B31C8238C3119307B
:101A1400893178218C310830DB3E86008701403FD4
:101A24002000D100413FD200423FD300433FD400C5
:101A340051308B31C8238C311930893178218C3164
:101A44000C30DB3E86008701403F2000D100413F3F
:101A5400D200423FD300433FD40051308B31C823DE
:101A64008C311930893178218C31080089319721E2
:101A74008D31200041080319402D412D7F2DC101D6
:101A84000530D1005108C200893131218D31200047
:101A9400B001B00AB830A4000B30A5002100400802
:101AA4004104031D562D572D6F2D20003B08031DA7
:101AB4005C2D5D2D642DBB01BB0A8D173330D10025
:101AC4005108C50010302100C0002730C100023089
:101AD4002000D1005108AF00992D01302000AF0241
:101AE400031D752D762D992D01308B314D238D31AC
:101AF4002000C201C001C00A992D30080319832DAA
:101B0400842D992D240825040319892D8A2D992DB6
:101B14000130A4020030A53B24082504031D932DA5
:101B2400942D992D02308B314D238D317A2D08005F
:101B34008A3186228D31893125218D3189314621A1
:101B44008D31893157218D31893122218D31873170
:101B5400AF278D318B316F238D31893162218D31E6
:101B6400893123218D310B178B17C02D8D178D16BD
:101B7400893124218D318E3113268D3120008E1D23
:101B8400C42DC52DB82D2100C201C3018E319C2660
:101B94008D318A3166228D318B31FD238D312000C8
:101BA4004508031DD62DD72DC82D3A08031DDB2D5E
:101BB400DC2DC82D3B03031DE02DE12DC82D023083
:101BC4002100300631040319E82DE92DC82D200029
:101BD4005008031DEE2DEF2DC82DBB018D13BD0143
:101BE400BD0A20003103031DF82DF92DFD2D893187
:101BF40026218D31F32D3108031D012E022EF32DE4
:101C040036080319062E072EF32D05303602031865
:101C14000C2E0D2EF32D8E319C268D31F92D803115
:101C240023288C2E893126218E3120000D1A1B2E5B
:101C34001C2E2D2E2808031D202E212E2D2EA8010A
:101C4400A80A8A310D228E318C31E0248E31200095
:101C5400A701CE010E100D1E302E312E322EA801FA
:101C64000E1A352E362E432E21005608031D3B2E08
:101C74003C2E432ED601D60A20000E11A701CE0118
:101C84000E1020000E1E472E482E4A2E2100D6018B
:101C940020000C1A4E2E4F2E602E21005508031DD5
:101CA400542E552E602ED501D50A8A310D228E313F
:101CB4008C31E0248E312000A701A70A20000C1EDD
:101CC400642E652E672E2100D50120000C1D6B2E7D
:101CD4006C2E852E2703031D702E712E852E210058
:101CE4005408031D762E772E852E20004E080319E6
:101CF4007C2E7E2E01307F2E0030F8007808CE0036
:101D04002100D401D40A20000C19892E8A2E8C2E8D
:101D14002100D40120008E1D902E912E142E873187
:101D2400FE278E3120008D138D12A8012100D601CB
:101D3400D501080020004A080319A12EA22E252F40
:101D4400CA0147080319A72EA82EAB2E0130C702DB
:101D5400B12E6430ED006D08C700BF01BF0A210039
:101D6400420843040319B72EB82EBC2E0130C20218
:101D74000030C33B3E083F040319C12EC22EC62EB9
:101D84000130BE020030BF3B2000220823040319A7
:101D9400CC2ECD2ED12E0130A2020030A33B210047
:101DA400400841040319D72ED82EDC2E0130C0027E
:101DB4000030C13B2000200821040319E22EE32E49
:101DC400E82E0130A0020030A13BE92EBE013E08FE
:101DD4000319ED2EEE2E072F200821040319F32EEC
:101DE400F42E072F01302100BC070030BD3D003028
:101DF4003D02643003193C02031C012F022F072FFC
:101E0400BC01BD01203020008D06200024082504DB
:101E140003190D2F0E2F122F0130A4020030A53B01
:101E2400823100228E3120003D03031D1A2F1B2F07
:101E34001C2F252F8531CC258E3180314A208E31BF
:101E4400893126218E31080008302000DE005E082A
:101E5400E1005530DE005E082300A0002000E00110
:101E6400E00A412F5530DE006008A03E86000130B4
:101E740087005E0881000130DE005E08E00760082C
:101E840061020318462F472F342F1530DE006108F6
:101E9400A13E8600013087005E0881008D164C0843
:101EA400031D552F562F8B2F6108DE00DF01DE3511
:101EB400DF0DDE35DF0DDE35DF0D5E08743E2100FB
:101EC400C600003020005F3D2100C7002F0820001D
:101ED400D40021002E082000D30021002D0820006A
:101EE400D20021002C082000D1004B08DE005E083F
:101EF400D5006108023E8631C4268F31FF302000B0
:101F0400DE006108AE3E8600013087005E08810075
:101F1400F52F6108DE00DF01DE35DF0DDE35DF0D74
:101F2400DE35DF0D5E08D43E2100C60000302000FF
:101F34005F3D2100C7002F082000D40021002E0897
:101F44002000D30021002D082000D20021002C08FD
:101F54002000D1008030DE005E08D5006108023E1A
:101F64008631C4268F3120004C03031DBA2FBB2FAA
:101F7400D52F21002B082000D40021002A0820009E
:101F8400D300210029082000D200210028082000C5
:101F9400D100FF30DE005E08D50061080E3E8631B8
:101FA400C4268F31EB2F21002B082000D400210000
:101FB4002A082000D300210029082000D200210093
:101FC40028082000D100D50161080E3E8631C426C0
:101FD4008F31FF302000DE006108BA3E86000130F8
:101FE40087005E0881002100C801C9012000CD01DD
:101FF400CF01D001D00ACE01CE0A0800FB34BF3491
:10200400DF34EF34F7349F34AF34B734BB34CF34D8
:10201400DB34EB34E734F334FD34FE34FF34003482
:10202400403488340034C1344D3415340034A6347B
:0E2034005934403400344F34D0342134003459
:020000040001F9
:04000E008409FF1C46
:00000001FF
