:020000040000FA
:1000000080311B28080008007E1480318B130B1CE4
:100010000A280B2811288D313125803127009301C2
:100020000B102000911C1528162818285217911023
:100030008B177E10090080311D28FA0120308400C2
:100040000030850033308931B5218031A030840003
:100050000030850047308931B5218031203084005F
:100060000130850038308931B52180317E10200083
:100070008E31382EBF29C41B3E283F284828E8303F
:10008000A8000330A9000130D3005308C107E829B4
:1000900028082904031D4D284E28E8290A30D300DA
:1000A0005308C100E82928082904031D58285928A5
:1000B0006F280130D3005308C107B830A8000B30B7
:1000C000A9006730F3000030F4006730D300530814
:1000D000F500F6018A31FA2280312000BB1545086F
:1000E000031973287428E829450A03197828792800
:1000F000E8298A3130228031E82928082904031DA3
:100100008228832884287928450803198828892883
:10011000E829450A031D8D288E288F28E829C41E4A
:10012000922893289A2802304506031D982899287A
:1001300079283F284503031D9E289F2879283F28BA
:1001400028082904031DA528A628E8290130D30082
:100150005308C107B830A8000B30A9006730F3007E
:100160000030F4006730D3005308F500F6018A31FF
:10017000FA2280312000BB15E82928082904031D34
:10018000C228C328C428792845080319C828C928C3
:10019000E829450A031DCD28CE28CF28E829C41E0A
:1001A000D228D328E32802304506031DD828D928B1
:1001B0007928E830A8000330A9000130D3005308A3
:1001C000C107C417E8294503031DE728E828792853
:1001D0003F2828082904031DEE28EF28E8290130CC
:1001E000D3005308C107B830A8000B30A90067300E
:1001F000F3000030F4006730D3005308F5000230FC
:10020000D4005408F6008A31FA2280312000BB1550
:10021000E82928082904031D0E290F291029792807
:100220004508031914291529E829450A031D192928
:100230001A291B29E829C41E1E291F292F2902302B
:100240004506031D2429252979281030A8002730C8
:10025000A9000130D3005308C107C417E82945039A
:10026000031D3329342979281030A8002730A9002C
:10027000432828082904031D3E293F2940297928BD
:100280004508031944294529E829450A031D492938
:100290004A294B29E829C41E4E294F2987290230B3
:1002A0004506031D54295529792809304106031DA7
:1002B0005A295B2943284B08D3005308F9007908D1
:1002C0000319632964296629F9016829F901F90AE2
:1002D0007908D3005308CB008A316F228031673010
:1002E000F3000030F40067302000D3005308F5001D
:1002F0000430D4005408F6008A31FA2280312000FC
:10030000BB15C3111430D3005308C8007928450326
:10031000031D8B298C29792809304106031D912959
:10032000922943284B08D3005308F9007908031990
:100330009A299B299D29F9019F29F901F90A790830
:10034000D3005308CB008A316F2280316730F3002D
:100350000030F40067302000D3005308F50004306B
:10036000D4005408F6008A31FA2280312000BB15EF
:10037000C3117928C41BBD29BE29E829792820008A
:100380004108D300D4015408003A0319C829E829C8
:100390005308013A03193B28033A03195328013A39
:1003A00003197D28073A0319A028013A0319BD282B
:1003B000033A0319E928013A031909290F3A0319E5
:1003C0003929013A03193929033A0319BA29E829C5
:1003D00008002000C501FF30EC006C08C7000230A7
:1003E0004C06031DF429F529F629842B00300D1A3B
:1003F00001308931F7218131003020000E1A01309F
:100400008931F7218131003020000C1A0130893107
:10041000F7218131003020008C1901308931F7211A
:100420008131003020008E1A01308931F72181316D
:1004300001308931F721813101308931F721813152
:100440002000470846060319262A272A3B2A470880
:10045000EC006C08C6008931D82181318931BB217B
:10046000813188302000A2001330A3007430A00036
:100470002730A100842B01302100C6020030C73B89
:10048000460847040319452A462A472A842B013087
:10049000C6000030C7002000470A0319502A512A1D
:1004A000B22A220823040319562A572A5B2A01304C
:1004B000A2020030A33B200821040319602A612A0C
:1004C000652A0130A0020030A13B8B3173238131BA
:1004D00020004C0303196D2A6E2A782A431B712AC7
:1004E000722A782A20082104031D772A782AB22A42
:1004F000431B7B2A7C2AA72A431720082104031DBB
:10050000822A832A8E2A67302100C4000030C50069
:1005100067302000EC006C08C000982A28302100C9
:10052000C4000030C5003C302000EC006C08C00066
:1005300021004508C3004408C20020004008EC0028
:100540006C08BF000230EC006C08BE00B22A02301A
:100550003E020318AC2AAD2AB22A0230EC006C0825
:10056000BE00B22AEE016E08003E840090300318EF
:10057000013E850000084706031DBF2AC02AC52A80
:100580006E08EC006C08BD00CF2A0130EC006C084E
:10059000EE0711306E02031CCE2ACF2AB32A6E0852
:1005A000EC00ED016C082100C00020006D08210066
:1005B000C1002000C31EDD2ADE2ADF2A842B113071
:1005C0006E06031DE42AE52AEF2A44138931BB2174
:1005D00081312000C4178A3130228131842BC41F1D
:1005E000F22AF32A472B470A0319F72AF82A472B3E
:1005F00005306E060319FD2AFE2A162B06306E06FC
:100600000319032B042B162B07306E060319092B35
:100610000A2B162B09306E0603190F2B102B162BE5
:100620000C306E06031D152B162B842B5218192B1C
:100630001A2B842B472B8D31DF258131842B5218C7
:10064000222B232B842B843194248131842B8A31D7
:1006500043228131842B8B3118238131842B8A31C1
:10066000C0228131842B8A31A3228131842B8A31AB
:10067000DD228131842B8931B1218131842B80317C
:1006800002208131842B8A3120228131842B6E0813
:10069000EC00ED016D08003A03194F2B842B6C0818
:1006A000003A03191B2B013A03191F2B033A0319B4
:1006B0001F2B013A03191F2B073A03191F2B013A6D
:1006C0000319272B033A0319272B013A0319272B68
:1006D0000F3A03192B2B013A0319272B033A03195D
:1006E0002F2B013A0319332B073A0319272B013A11
:1006F0000319372B033A03193B2B013A03193F2BFC
:100700001F3A0319432B842B08002000E8004530D2
:10071000380203188C2B8D2BBA2BD21E902B912BC9
:10072000BA2B193048020318962B972BBA2B48087E
:10073000193CE5006508E90038086907E500650827
:10074000B8000030E6003808453CE500031CE6032D
:100750006608803AE70080306702031DB12B1B302A
:100760006502031CB42BB52BBA2B19302000E50011
:100770006508C8001930200048020318C02BC12B9F
:10078000C62B4208031DC52BC62B922CD21AC92B8F
:10079000CA2B012CD2168D174908E5006508C80040
:1007A000012C0830E5006508CE006A2C0430E50015
:1007B0006508CE006A2C0230E5006508CE006A2C80
:1007C000CE01CE0A6A2C1430E5006508CE006A2CF2
:1007D0000C30E5006508CE006A2C0A30E50065089B
:1007E000CE006A2C0930E5006508CE006A2C063080
:1007F000E5006508CE006A2C0330E5006508CE00F0
:100800006A2C6808E500E6016608003A0319092C1D
:100810006A2C6508013A0319D12B033A0319D62B28
:10082000013A0319DB2B073A0319E02B013A0319AC
:10083000E82B033A0319ED2B013A0319F22B0E3A78
:100840000319F72B033A0319E32B063A0319FC2B80
:100850006A2C6730F3000030F4006730E50065086B
:10086000F500F6018A31FA228331832C6730F300D8
:100870000030F4006730E5006508F500F601F60A7F
:100880008A31FA228331832C6730F3000030F40080
:100890006730E5006508F5000230E6006608F600FE
:1008A0008A31FA228331832CF430F3000130F400D2
:1008B000F501F50AF6018A31FA228331832CE830FA
:1008C000F3000330F400F501F50AF6018A31FA224B
:1008D0008331832C6408E500E6016608003A0319B9
:1008E000722C832C6508013A0319292C033A031949
:1008F000362C013A0319442C073A0319542C103AA8
:1009000003195F2C832C8931C92183318D318725CF
:1009100083318F312A27833119302000E5006508A3
:10092000C200932C8D1208008A3111228431003AC2
:1009300003199B2C9C2CF12C20004318A02CA12CDB
:10094000A92CC318A42CA52CA92C431DA82CA92C78
:100950008D2D2E082F04031DAE2CAF2C8D2D431B87
:10096000B22CB32C8D2D22082304031DB82CB92CD6
:100970008D2D4318BC2CBD2CC12C431DC02CC12C6B
:10098000C82C0A30EA006A08C100C501C4178D2DC1
:10099000C101C10A6730F3000030F4006730EA009B
:1009A0006A08F500F601F60A8A31FA22843120003D
:1009B000BB15D21ADC2CDD2CE32CD2168D1749087E
:1009C000EA006A08C800A030A8000F30A900C501DD
:1009D0004413C417C416431CEE2CEF2C8D2DC412E7
:1009E0008D2D20003D08EA006A08C5004108031D5E
:1009F000FA2CFB2C8D2D4F080319FF2C002D0B2DED
:100A00008D2D43148830AE001330AF001E2DC3145B
:100A1000022D4315022D4508EA00EB016B08003A50
:100A20000319132D1E2D6A08013A0319012D033AEB
:100A30000319072D013A0319092D1E2D4B0803191F
:100A4000222D232D292D04304506031D282D292D67
:100A5000392D8A313022843120003D08EA006A08AD
:100A6000E4003D088331852384312000AC01AD01D1
:100A70008D2D4108031D3D2D3E2D8D2D4F08031951
:100A8000422D432D442D8D2D02304506031D492D49
:100A90004A2D7D2D8A313022843120003D08EA0024
:100AA0006A08E4003D088331852384312000AC01CD
:100AB000AD01C315B830A6000B30A700A401A501F5
:100AC0008D2DC31D642D652D8D2D2608270403193A
:100AD0006A2D6B2D8D2DC311A601A7013D08EA00DB
:100AE0006A08E4003D088331852384312000AC018D
:100AF000AD018A31302284318D2D4508EA00EB01A9
:100B00006B08003A0319852D8D2D6A08013A0319E7
:100B1000612D023A0319612D8D2D08008931B22112
:100B20008531003A031D952D962D972D7B2E2000A3
:100B3000D21A9B2D9C2D9E2DD2168D172A082B0480
:100B40000319A32DA42DBA2D3330EA006A08C8007A
:100B50000130A4070030A53D01302502F43003190F
:100B60002402031CB42DB52D652EA401A50120304F
:100B70008D06652EF430F3000130F400FA30EA00FF
:100B80006A08F5000230EB006B08F6008A31FA22A1
:100B9000853120008D12CF01652E0130EA00370823
:100BA000DC3E860087016A0881073A300102031C97
:100BB000DA2DDB2DE32D3030EA003708DC3E8600ED
:100BC00087016A0881006730F3000030F400673065
:100BD000EA006A08F500F6018A31FA2285316030B0
:100BE0002000AA00EA30AB007B2E0130EA006A0840
:100BF000B70709303702031CFE2DFF2D042E0830E5
:100C0000EA006A08B700EF2D6730F3000030F40007
:100C10006730EA006A08F500F601F60A8A31FA221E
:100C20008531EF2D8A3157228531E830F3000330CA
:100C3000F400F501F50AF6018A31FA228531EF2D2B
:100C4000083037020318252E262E272E7B2EDC3067
:100C50008C31DF24853120005E082100BB0020009C
:100C60005D082100BA0020005C082100B9002000C6
:100C70005B082100B8003B08031D482EFF303802F6
:100C8000FF30393BFF303A3B031C472E482E592E8C
:100C90006430F3000030F40064302000EA006A0899
:100CA000F5000330EB006B08F6008A31FA2285313B
:100CB000622E14302000EA006A08E4001430833108
:100CC000852385312000CF017B2E4508EA00EB010A
:100CD0006B08003A03196D2E7B2E6A08013A03193E
:100CE000CD2D033A0319F52D013A0319122E063AB8
:100CF0000319202E7B2E08002000DD0056088B31C2
:100D00005423863174082000DF007308DE005E087B
:100D1000D8005D08203E8600013087005808810019
:100D20000130D8005808DD075F08D8005D08203E74
:100D3000860001308700580881000130D80058082B
:100D4000DD0755088B315423863174082000DF00FD
:100D50007308DE005E08D8005D08203E8600013082
:100D60008700580881000130D8005808DD075F0867
:100D7000D8005D08203E86000130870058088100B9
:100D80000130D8005808DD0754088B3154238631D0
:100D900074082000DF007308DE005E08D8005D08DC
:100DA000203E860001308700580881000130D800BD
:100DB0005808DD075F08D8005D08203E8600013036
:100DC0008700580881000130D8005808DD0757080F
:100DD0008B315423863174082000DF007308DE0055
:100DE0005E08D8005D08203E860001308700580864
:100DF00081000130D8005808DD075F08D8005D0881
:100E0000203E860001308700580881000130D8005C
:100E10005808DD075408D8005808DF005708D800E4
:100E20005808DE005608D8005808DC005508D800DD
:100E30005808DB005B085E07D9005C085F3DDA00FC
:100E40005A088B315423863174082000DF00730860
:100E5000DE005E08D8005D08203E86000130870075
:100E6000580881000130D8005808DD075F08D80015
:100E70005D08203E8600013087005808810001305F
:100E8000D8005808DD0759088B315423863174087F
:100E90002000DF007308DE005E08D8005D08203EF9
:100EA000860001308700580881000130D8005808BA
:100EB000DD075F08D8005D08203E8600013087000E
:100EC000580881000130D8005808DD070800D72FE6
:100ED0008931AE21873120000D1A6F2F702F8E2F90
:100EE00064308A310222873120000D1A782F792F41
:100EF0008F2FFA187C2F7D2F8F2FFA14D2105211BA
:100F0000D2110130F9007908B60704303602031C0B
:100F10008A2F8B2F8F2FB601B60A8F2FFA10360328
:100F2000031D932F942FA22FD218972F982FA22F03
:100F3000D2148A31882287318D318725873120006C
:100F4000BB130E1002303606031DA72FA82FB02F9B
:100F50005219AB2FAC2FB02F52150E11BB130E1020
:100F600003303606031DB52FB62FC32FD219B92F64
:100F7000BA2FC32FD2158A31882287318D31872528
:100F800087312000BB170C1DC62FC72FD22FBB1FC8
:100F9000CA2FCB2FD22F3B1BCE2FCF2FD22F0130DA
:100FA0008E063B170C19D52FD62FD72F3B132000B9
:100FB0008E1DDB2FDC2F682F80310320873120002E
:100FC0008D138D12D2105211D21108002000EA00A8
:100FD0002E082F040319ED2FEE2FFF2F0130AE0244
:100FE0000030AF3B2E082F04031DF72FF82FFF2FE3
:100FF000E4016A088331852387312000C317080084
:101354000800080008000800080008000800080049
:1013640020004F080800640080010131890BB62970
:10137400003420004410C4104411C4114412080065
:10138400730886007408870077088100080020002D
:101394000E19CD29CE29CF290E1508007830210049
:1013A40099001A1ED629D729D32908000130210013
:1013B400C6000030C7002000AE01AF0108002700BE
:1013C4009101043092008B152200171FEA29EB29A2
:1013D400E629080020009A0164309B009110210046
:1013E40091144D3020009C000800F30003102000ED
:1013F400C70D73080319FF29002A012A471408009E
:10140400F400F5010A2A00000130F3007308F5071F
:1014140074087502031C0F2A102A052A08002000EC
:10142400441B152A162A182A01301F2A4413AE0118
:10143400AF018931BB218A310030080020004310FC
:10144400C310431143138931BB218A31200044174F
:10145400C413FF30F3007308C50008002000C10165
:101464000230F3007308BA000230F3007308B900C5
:101474002608270403193F2A402A422AA601A70165
:1014840008008A3130228A312000C5013D08EA0073
:101494006A08E4003D08833185238A318931BB2100
:1014A4008A3120004413C41708002000B701F40156
:1014B4003030F3007408DC3E860087017308810035
:1014C4000130F3007308F40708307402031C6B2A1C
:1014D4006C2A5A2A2100E401080001308931B02124
:1014E4008A310030F6000030F5001030F40070301E
:1014F400F30020004B08F8007808F7008931C22176
:101504008A3101308931AF218A31080020000E1957
:101514008C2A8D2AA22A0E1582308A3102228A311F
:1015240082308A3102228A3182308A3102228A311F
:1015340082308A3102228A3182308A3102228A310F
:1015440008008A3130228A312000C419AA2AAB2A21
:10155400BB2AC415B830AE000B30AF00D21AB32A80
:10156400B42ABF2AD2168D174E30EB006B08C80080
:10157400BF2A0B308731E6278A3108008A313022AE
:101584008A312000C418C72AC82AD82AC414B830FB
:10159400AE000B30AF00D21AD02AD12ADC2AD216E0
:1015A4008D174E30EB006B08C800DC2A0A308731F7
:1015B400E6278A3108008A3130228A312000441A11
:1015C400E42AE52AF52A4416B830AE000B30AF0001
:1015D400D21AED2AEE2AF92AD2168D174E30EB00D4
:1015E4006B08C800F92A0D308731E6278A310800D4
:1015F4002000431BFE2AFF2A172B74082100C50074
:101604007308C4007508F70077082000C0002100A3
:101614004508C3004408C20020004008F7007708CA
:10162400BF007608F7007708BE0008008A31302230
:101634008B31200044134419202B212B312B4415CA
:10164400B830AE000B30AF00D21A292B2A2B352B21
:10165400D2168D174E30EB006B08C800352B0830BE
:101664008731E6278B3108002000D21F3A2B3B2B11
:10167400532BD21342080319402B412B432B013027
:10168400C202D21E462B472B532B480803194B2B5F
:101694004C2B532B4108031D502B512B532B013042
:1016A400C8020800F600F9010230F735F80D890B7D
:1016B400572B761C5E2B5F2B612BF714622B771450
:1016C4000310F60C0130F5007508F90708307902AB
:1016D400031C6D2B6E2B562B7808F4007708F3004F
:1016E400080020000E19772B782B912B0E15F33060
:1016F400210058052000D300FF30210059052000A7
:10170400D400FF3021005A052000D500FF3021000D
:101714005B052000D60053308C312B248B3108001C
:1017240023008C018D018E01143021008C001430B3
:1017340024008C00503021008D00D03024008D0016
:101744003A3021008E003C3024008E0020008D129F
:101754000D138E130E130E110E108C128D13080020
:10176400F9008931B2218B31003A0319BA2BBB2B12
:10177400BC2BD32B7908F80078082000CF008A31DD
:1017840057228B31E830F3000330F400F501F50AF9
:10179400F6018A31FA228B3160302000AA00EA3047
:1017A400AB0008006430F30073082000CA001A304C
:1017B400F3007308C9004908FF3EF3007308C8002A
:1017C4008931D8218B31FF302000C600F300730823
:1017D400C700C5014417C4138931BB218B312000D4
:1017E400AE01AF01AC01AD0108000030F6000030DD
:1017F400F5000030F4000030F3002000531C032CEB
:10180400042C0C2C5708F3075808F43D5908F53DEF
:101814005A08F63D0130D735D80DD90DDA0D890BAC
:101824000D2C0130D636D50CD40CD30C890B142CCA
:101834005608550454045304031D212C222CFF2B59
:101844007608D6007508D5007408D4007308D30050
:101854000800F80020000E130D13F701770878072D
:10186400F3007308860087010108F4007408F60089
:101874000830F3007308F5000D13F61F422C432CB7
:10188400452C8E17462C8E130D177608F30073081B
:10189400F6070130F5027508031D512C522C3E2C1D
:1018A4000D130130F3007308F70704307702031CAB
:1018B4005C2C5D2C302C0E170E178E130E130800A3
:1018C40000302100BF000030BE000030BD000130F8
:1018D400BC002000D3015308F300F401F335F40DE8
:1018E400F335F40D1130730784009030743D850096
:1018F400003FF500013FF600023FF700033FF80008
:101904005308F9000130F935FF3E031D852C793564
:10191400CC3E860087017508C03F7608C13F770832
:10192400C23F7808C33F0130F3007308D307043083
:101934005302031C9E2C9F2C6D2C080020003008A1
:1019440031040319A62CA72CDE2C21003308031D17
:10195400B62C3208031DB62C613030020930313BFD
:10196400031CB52CB62CB92C2000CC01DE2C33087A
:10197400031DC62C3208031DC62C61303002093009
:10198400313B0318C62CC72CD92C3308031DD52C86
:101994003208031DD52C993030020830313B031C2A
:1019A400D42CD52CD92C2000CC01CC0ADE2C02302E
:1019B400F30073082000CC0008002000E40000308D
:1019C400E8000030E7000030E6000030E500E901FF
:1019D40069086407DF005F08860087010108D03EBC
:1019E400E0006008E3006308DF00E001E101E201D8
:1019F4006808D6006708D5006608D4006508D300D7
:101A04000030DA000030D9000030D8000A30D700A6
:101A14008B31F7238C3120005308DF075408E03D55
:101A24005508E13D5608E23D6208E8006108E70018
:101A34006008E6005F08E5000130DF005F08E907A1
:101A440008306902031C272D282DEA2C6808DE00C3
:101A54006708DD006608DC006508DB0008007A180A
:101A6400342D372D20000E14392D20000E10521C59
:101A74003C2D3D2D862D07303205F0000030330516
:101A8400F10070087104031D482D492D5C2D3308A5
:101A9400F1003208F000F136F00CF136F00CF136BA
:101AA400F00C7008203E8600013087000108F20027
:101AB4007208D100D11F5F2D602D622D7A14632D21
:101AC4007A100310D10D0130B2070030B33D21006C
:101AD4004B0820003302031D732D21004A08200007
:101AE4003202031C762D772D862DB201B30101300D
:101AF400F0007008D00750080319812D822D862D1F
:101B040052108D120E110E10080021004F082000F3
:101B1400D60021004E082000D50021004D082000E9
:101B2400D40021004C082000D30053308C312B24E6
:101B34008D3119308A3102228D310430CC3E860039
:101B44008701403F2000D300413FD400423FD500ED
:101B5400433FD60053308C312B248D3119308A31D8
:101B640002228D310830CC3E86008701403F2000A0
:101B7400D300413FD400423FD500433FD600533009
:101B84008C312B248D3119308A3102228D310C3065
:101B9400CC3E86008701403F2000D300413FD40063
:101BA400423FD500433FD60053308C312B248D3136
:101BB40019308A3102228D3108008A3130228D3168
:101BC4002000441FE62DE72D1C2E44130530D300BE
:101BD4005308C5008931BB218D3120004414B8302D
:101BE400AE000B30AF002C082D04031DFA2DFB2D85
:101BF4000E2ED21AFE2DFF2D052ED2168D17333040
:101C0400D3005308C8001030AC002730AD000230B8
:101C1400D3005308BC00372E0130BC02031D132E21
:101C2400142E372E01308B31B2238D312000C501A3
:101C3400C417372E441C1F2E202E372E2E082F0497
:101C44000319252E262E372E0130AE020030AF3B6D
:101C54002E082F04031D2F2E302E372E02308B31E9
:101C6400B2238D312000C501C41708008B319223A3
:101C74008E318931AD218E318931D0218E31893136
:101C8400E1218E318931AA218E318C3162248E3149
:101C94008B31D4238E318931EC218E318931AB21C2
:101CA4008E310B178B175E2E8D178D168931AC2153
:101CB4008E31873167278E3120008E1D622E632E70
:101CC400562EB001B1018E31AB268E318B313623C5
:101CD4008E318C31A0248E3120004808031D732ED0
:101CE400742E652E4108031D782E792E652ED21E82
:101CF4007C2E7D2E652E02302100400641040319FE
:101D0400842E852E652E20005218892E8A2E652E4B
:101D1400D2128D13C3162000C31F912E922E962E1D
:101D24008931AE218E318D2EC31B992E9A2E8D2E84
:101D34003D0803199E2E9F2E8D2E05303D0203185B
:101D4400A42EA52E8D2E8E31AB268E31922E80316F
:101D54001B282000521FAF2EB02E292F52134A08E1
:101D64000319B52EB62EB92E0130CA02BE2E643028
:101D7400EF006F08CA00D217300831040319C32ECC
:101D8400C42EC82E0130B0020030B13B2A082B0407
:101D94000319CD2ECE2ED22E0130AA020030AB3B39
:101DA400280829040319D72ED82EDC2E0130A802C6
:101DB4000030A93B2C082D040319E12EE22EE62E57
:101DC4000130AC020030AD3B260827040319EB2E8A
:101DD400EC2EF12E0130A6020030A73BF22EC311E7
:101DE400C31DF52EF62E0D2F260827040319FB2EEE
:101DF400FC2E0D2F0130A4070030A53D0030250234
:101E0400643003192402031C082F092F0D2FA40189
:101E1400A50120308D062E082F040319122F132F2D
:101E2400172F0130AE020030AF3B8131E9218E31F2
:101E34002000C31E1E2F1F2F202F292F85318E25F2
:101E44008E3180313A208E318931AE218E310800B5
:101E540008302000E0006008E3005530E00060082E
:101E64002200A0002000E201E20A452F5530E000E4
:101E74006208203E8600013087006008810001303E
:101E8400E0006008E2076208630203184A2F4B2F40
:101E9400382F1530E0006308213E860001308700AA
:101EA400600881008D164F08031D592F5A2F8F2F5C
:101EB4006308E000E101E035E10DE035E10DE035D6
:101EC400E10D6008743E2100CA0000302000613D2D
:101ED4002100CB003F082000D60021003E0820004E
:101EE400D50021003D082000D40021003C0820003A
:101EF400D3004E08E0006008D7006308023E863134
:101F04007C268F31FF302000E00063082E3E8600DF
:101F14000130870060088100F92F6308E000E101C7
:101F2400E035E10DE035E10DE035E10D6008D43E2A
:101F34002100CA0000302000613D2100CB003F0891
:101F44002000D60021003E082000D50021003D08D5
:101F54002000D40021003C082000D3008030E000A1
:101F64006008D7006308023E86317C268F3120004A
:101F74004F03031DBE2FBF2FD92F21003B08200084
:101F8400D60021003A082000D5002100390820009D
:101F9400D400210038082000D300FF30E00060089E
:101FA400D70063080E3E86317C268F31EF2F210047
:101FB4003B082000D60021003A082000D50021006B
:101FC40039082000D400210038082000D300D701AC
:101FD40063080E3E86317C268F31FF302000E000FE
:101FE40063083A3E86000130870060088100B20130
:101FF400B301D001D10152147A140800FB34BF3468
:10200400DF34EF34F7349F34AF34B734BB34CF34D8
:10201400DB34EB34E734F334FD34FE34FF34003482
:10202400403488340034C1344D3415340034A6347B
:0E2034005934403400344F34D0342134003459
:020000040001F9
:04000E008409FF1C46
:00000001FF
