:020000040000FA
:1000000080312328080008007E1480310B1C092849
:100010000A281928200050180E28112820000E1434
:10002000132820000E108C31982480312700930172
:100030000B102000911C1D281E282128CC01CC0A61
:1000400091107E10090080312528FA0120308400AB
:10005000003085003330893139218031A03084006F
:10006000003085004B3089313921803120308400C7
:10007000013085002930893139218031A030840058
:100080000130850028308931392180317E102000EF
:100090008D31A42DD6294208031D4F2850285928F8
:1000A000E830A2000330A3000130D3005308BC079E
:1000B000FF2922082304031D5E285F28FF290A3038
:1000C000D3005308BC00FF2922082304031D69281C
:1000D0006A2881280130D3005308BC07B830A20039
:1000E0000B30A3006730F3000030F4006730D3001A
:1000F0005308F500F6018A31C62280312100D7016C
:10010000D70A20004408031986288728FF29440AB3
:1001100003198B288C28FF298931B6218031FF29CA
:1001200022082304031D9528962897288C28440824
:1001300003199B289C28FF29440A031DA028A128F5
:10014000A228FF292D080319A628A728AE280230C7
:100150004406031DAC28AD288C2850284403031DF9
:10016000B228B3288C28502822082304031DB9285C
:10017000BA28FF290130D3005308BC07B830A200C9
:100180000B30A3006730F3000030F4006730D30079
:100190005308F500F6018A31C62280312100D701CB
:1001A000D70AFF2922082304031DD728D828D928D5
:1001B0008C2844080319DD28DE28FF29440A031D82
:1001C000E228E328E428FF292D080319E828E92874
:1001D000FA2802304406031DEE28EF288C28E83068
:1001E000A2000330A3000130D3005308BC07C201B2
:1001F000C20AFF294403031DFE28FF288C2850282B
:1002000022082304031D05290629FF290130D300F4
:100210005308BC07B830A2000B30A3006730F300CE
:100220000030F4006730D3005308F5000230D400EA
:100230005408F6008A31C6228031CE2822082304D1
:10024000031D2329242925298C2844080319292939
:100250002A29FF29440A031D2E292F293029FF2985
:100260002D08031934293529402902304406031D7D
:100270003A293B298C281030A2002730A300F3280C
:100280004403031D442945298C281030A20027303F
:10029000A300542822082304031D4F295029512963
:1002A0008C284408031955295629FF29440A031D9F
:1002B0005A295B295C29FF292D0803196029612926
:1002C0009B2902304406031D662967298C280930C2
:1002D0003C06031D6C296D2954287A08D300530865
:1002E000F90079080319752976297829F9017A29FD
:1002F000F901F90A7908D3005308FA008931E0219D
:1003000080316730F3000030F40067302000D30004
:100310005308F5000430D4005408F6008A31C62290
:1003200080312100D701D70A2000C0011430D3004A
:100330005308C7008C284403031D9F29A0298C283B
:1003400009303C06031DA529A62954287A08D300A4
:100350005308F90079080319AE29AF29B129F90129
:10036000B329F901F90A7908D3005308FA00893151
:10037000E02180316730F3000030F4006730200066
:10038000D3005308F5000430D4005408F6008A3135
:10039000C62280312100D701D70A2000C0018C2855
:1003A0004208031DD429D529FF298C2820003C08A8
:1003B000D300D4015408003A0319DF29FF29530858
:1003C000013A03194B28033A03196428013A031927
:1003D0009028073A0319B428013A0319D228033A9E
:1003E00003190029013A03191E290F3A03194A2952
:1003F000013A03194A29033A0319D029FF290800B1
:100400002000C401FF30EC006C08C60002304A0630
:10041000031D0B2A0C2A0D2AA22B00300D1A0130C5
:1004200089317B218231003020000E1A0130893160
:100430007B218231003020000C1A013089317B2170
:100440008231013089317B218231013089317B2138
:100450008231013089317B218231013089317B2128
:1004600082312000460845060319372A382A4C2ACB
:100470004608EC006C08C50089315C218231893165
:100480003F21823188302100BA001330BB00743024
:10049000B8002730B900A22B01302100B60200308D
:1004A000B73B360837040319562A572A582AA22B75
:1004B0000130B6000030B7002000460A0319612A57
:1004C000622ACA2A21003A083B040319682A692AC9
:1004D0006D2A0130BA020030BB3B380839040319D9
:1004E000722A732A772A0130B8020030B93B8A3168
:1004F0006622823120004A0303197F2A802A8C2A2F
:100500003B08031D842A852A8C2A210038083904D7
:10051000031D8B2A8C2ACA2A20003B08031D912A1E
:10052000922ABF2ABB01BB0A210038083904031DE7
:100530009A2A9B2AA52A6730B4000030B50067309C
:100540002000EC006C08BA00AE2A2830B40000305D
:10055000B5003C302000EC006C08BA0021003508E2
:10056000B3003408B20020003A08EC006C08210007
:10057000D80002302000EC006C08B900CA2A023012
:1005800039020318C42AC52ACA2A0230EC006C08B2
:10059000B900CA2A2000EE016E08003E84009030A7
:1005A0000318013E850000084606031DD82AD92AF3
:1005B000DE2A6E08EC006C08B800E82A0130EC0076
:1005C0006C08EE0711306E02031CE72AE82ACC2AD9
:1005D0006E08EC00ED016C082100B00020006D08F1
:1005E0002100B10020003F03031DF72AF82AF92A51
:1005F000A22B11306E06031DFE2AFF2A0A2BC3010F
:1006000089313F2182312000C201C20A8931B621DD
:100610008231A22B420803190E2B0F2B652B460AA1
:100620000319132B142B652B05306E060319192B98
:100630001A2B322B06306E0603191F2B202B322B60
:1006400007306E060319252B262B322B09306E0638
:1006500003192B2B2C2B322B0C306E06031D312B48
:10066000322BA22B5208031D362B372BA22B652BC6
:100670008D3142258231A22B5208031D402B412B84
:10068000A22B8431B5248231A22B8931CB21823136
:10069000A22B8B314A238231A22B8B31082382314A
:1006A000A22B8A31E7228231A22B8B31292382317E
:1006B000A22B803102208231A22B80310320823193
:1006C000A22B8931A5218231A22B6E08EC00ED010D
:1006D0006D08003A03196D2BA22B6C08003A031920
:1006E000382B013A03193C2B033A03193C2B013AEE
:1006F00003193C2B073A03193C2B013A0319452BEC
:10070000033A0319452B013A0319452B0F3A0319F4
:10071000492B013A0319452B033A03194D2B013A92
:100720000319512B073A0319452B013A0319552B8D
:10073000033A0319592B013A03195D2B1F3A031988
:10074000612BA22B08002000E80045302C02031882
:10075000AA2BAB2BD92B3D03031DAF2BB02BD92BD1
:10076000193047020318B52BB62BD92B4708193C73
:10077000E5006508E9002C086907E5006508AC009C
:100780000030E6002C08453CE500031CE603660843
:10079000803AE70080306702031DD02B1B306502D2
:1007A000031CD32BD42BD92B19302000E50065086E
:1007B000C7001930200047020318DF2BE02BE52B80
:1007C0003E08031DE42BE52BB32C3D08031DE92B4C
:1007D000EA2B222CBD01BD0A8D174808E5006508EB
:1007E000C700222C0830E5006508CD008B2C0430B2
:1007F000E5006508CD008B2C0230E5006508CD00D2
:100800008B2CCD01CD0A8B2C1430E5006508CD0072
:100810008B2C0C30E5006508CD008B2C0A30E500F0
:100820006508CD008B2C0930E5006508CD008B2CC8
:100830000630E5006508CD008B2C0330E500650827
:10084000CD008B2C6808E500E6016608003A031924
:100850002A2C8B2C6508013A0319F22B033A031951
:10086000F72B013A0319FC2B073A0319012C013A23
:100870000319092C033A03190E2C013A0319132CFE
:100880000E3A0319182C033A0319042C063A0319DB
:100890001D2C8B2C6730F3000030F4006730E5002E
:1008A0006508F500F6018A31C6228331A42C673031
:1008B000F3000030F4006730E5006508F500F6014C
:1008C000F60A8A31C6228331A42C6730F300003047
:1008D000F4006730E5006508F5000230E6006608C0
:1008E000F6008A31C6228331A42CF430F3000130A3
:1008F000F400F501F50AF6018A31C6228331A42CF1
:10090000E830F3000330F400F501F50AF6018A310E
:10091000C6228331A42C6408E500E6016608003A8B
:100920000319932CA42C6508013A03194A2C033AA5
:100930000319572C013A0319652C073A0319752C32
:10094000103A0319802CA42C89314D2183318C312C
:10095000EA2483318F312627833119302000E500C6
:100960006508BE00B42C8D120800893195218431B0
:10097000003A0319BC2CBD2C222D20003008031D89
:10098000C22CC32CCD2C2F08031DC72CC82CCD2C5A
:100990002E080319CC2CCD2CC52D24082504031DAD
:1009A000D22CD32CC52D3B08031DD72CD82CC52DFC
:1009B00021003A083B04031DDE2CDF2CC52D20004E
:1009C0003008031DE42CE52CEA2C2E080319E92C31
:1009D000EA2CF22C0A30EA006A08BC00C401C20109
:1009E000C20AC52DBC01BC0A6730F3000030F40018
:1009F0006730EA006A08F500F601F60A8A31C62275
:100A000084312100D701D70A20003D08031D092D9C
:100A10000A2D112DBD01BD0A8D174808EA006A088C
:100A2000C700A030A2000F30A300C401C301C2015F
:100A3000C20AAD01AD0A300803191F2D202DC52DA6
:100A4000AD01C52D20003808EA006A08C4003C0842
:100A5000031D2B2D2C2DC52D4E080319302D312DA6
:100A60003F2DC52DB001B00A8830A4001330A50079
:100A7000522DAF01AF0A342DAE01AE0A342D440819
:100A8000EA00EB016B08003A0319472D522D6A0862
:100A9000013A0319322D033A0319392D013A03198A
:100AA0003C2D522D7A080319562D572D5D2D0430FB
:100AB0004406031D5C2D5D2D6D2D8931B6218431D9
:100AC00020003808EA006A08E40038088331A323CC
:100AD00084312100C001C101C52D3C08031D712DC9
:100AE000722DC52D4E080319762D772D782DC52D25
:100AF00002304406031D7D2D7E2DB52D8931B62192
:100B0000843120003808EA006A08E400380883319C
:100B1000A32384312100C001C1012000C001C00A0B
:100B2000B830A0000B30A1002100BC01BD01C52DD3
:100B3000400803199C2D9D2DC52D20082104031963
:100B4000A22DA32DC52DC001A001A1013808EA00E6
:100B50006A08E40038088331A32384312100C001EE
:100B6000C1018931B6218431C52D4408EA00EB0169
:100B70006B08003A0319BD2DC52D6A08013A031907
:100B8000982D023A0319982DC52D08008731FC27AE
:100B90008531003A031DCD2DCE2DCF2DBD2E200049
:100BA0003D08031DD42DD52DD82DBD01BD0A8D17AF
:100BB00021003E083F040319DE2DDF2DF82D3330D0
:100BC0002000EA006A08C70001302100BC0700309D
:100BD000BD3D01303D02F43003193C02031CF12DF0
:100BE000F22DA62EBC01BD01203020008D06A62EC0
:100BF000F430F3000130F400FA302000EA006A0813
:100C0000F5000230EB006B08F6008A31C622853110
:100C100020008D12CE01A62E0130EA002B08403EA6
:100C20008600013087006A0881073A300102031C00
:100C30001A2E1B2E242E3030EA002B08403E860050
:100C4000013087006A0881006730F3000030F4004B
:100C50006730EA006A08F500F6018A31C62285315C
:100C600060302100BE00EA30BF00BD2E0130EA0036
:100C70006A08AB0709302B02031C3F2E402E452E7D
:100C80000830EA006A08AB00302E6730F30000300D
:100C9000F4006730EA006A08F500F601F60A8A31C6
:100CA000C6228531302E8931F8218531E830F300B4
:100CB0000330F400F501F50AF6018A31C6228531C8
:100CC000302E08302B020318662E672E682EBD2E9C
:100CD00040308731A927853120005E082100AB0014
:100CE00020005D082100AA0020005C082100A90066
:100CF00020005B082100A8002B08031D892EFF306F
:100D00002802FF30293BFF302A3B031C882E892E06
:100D10009A2E6430F3000030F40064302000EA00C2
:100D20006A08F5000330EB006B08F6008A31C62232
:100D30008531A32E14302000EA006A08E400143044
:100D40008331A32385312000CE01BD2E200044082D
:100D5000EA00EB016B08003A0319AF2EBD2E6A08BA
:100D6000013A03190C2E033A0319362E013A0319DE
:100D7000532E063A0319612EBD2E08002000DD0017
:100D800053088A314722863174082000DF00730837
:100D9000DE005F08D8005D08A03E860001308700B5
:100DA000580881000130D8005808DD075E08D800D7
:100DB0005D08A03E860001308700580881000130A0
:100DC000D8005808DD0754088A3147228631740854
:100DD0002000DF007308DE005F08D8005D08A03E39
:100DE000860001308700580881000130D80058087B
:100DF000DD075E08D8005D08A03E86000130870050
:100E0000580881000130D8005808DD0755088A319C
:100E10004722863174082000DF007308DE005F0877
:100E2000D8005D08A03E8600013087005808810088
:100E30000130D8005808DD075E08D8005D08A03EE4
:100E4000860001308700580881000130D80058081A
:100E5000DD0757088A314722863174082000DF00F9
:100E60007308DE005F08D8005D08A03E86000130F0
:100E70008700580881000130D8005808DD075E0857
:100E8000D8005D08A03E8600013087005808810028
:100E90000130D8005808DD075508D8005808DE0092
:100EA0005708D8005808DF005308D8005808DB005E
:100EB0005408D8005808DC005B085E07D9005C08BD
:100EC0005F3DDA0059088A314722863174082000D4
:100ED000DF007308DE005F08D8005D08A03E8600D2
:100EE00001308700580881000130D8005808DD071C
:100EF0005E08D8005D08A03E8600013087005808D3
:100F000081000130D8005808DD075A088A3147228D
:100F1000863174082000DF007308DE005F08D80007
:100F20005D08A03E8600013087005808810001302E
:100F3000D8005808DD075E08D8005D08A03E86008E
:100F400001308700580881000130D8005808DD07BB
:100F500008002000E4000030E8000030E700003026
:100F6000E6000030E500E90169086407DF005F087A
:100F70008600013087000108D03EE0006008E300F1
:100F80006308DF00E001E101E2016808D6006708BC
:100F9000D5006608D4006508D3000030DA000030C0
:100FA000D9000030D8000A30D7008B31B323873105
:100FB00020005308DF075408E03D5508E13D56087E
:100FC000E23D6208E8006108E7006008E6005F08AB
:100FD000E5000130DF005F08E90708306902031C03
:100FE000F22FF32FB42F6808DE006708DD006608D3
:100FF000DC006508DB00080020004E08080008003F
:1012640008000800080008000800080008006400DE
:1012740080010131890B3A2900342000B201B40104
:10128400B701B601B5010800730886007408870029
:1012940077088100080020000E195129522953298A
:1012A4000E1508007830210099001A1E5A295B296E
:1012B4005729080001302100B6000030B700200093
:1012C400A401A501080027009101043092008B15A8
:1012D4002200171F6E296F296A29080020009A012D
:1012E40064309B009110210091144D3020009C002B
:1012F4000800F30003102000C60D730803198329A6
:101304008429852946140800F400F5018E2900007B
:101314000130F3007308F50774087502031C932960
:1013240094298929080020004308031D9A299B2930
:101334009D290130A429C301A401A50189313F21BC
:101344008931003008002000B001AF01AE01BB01BB
:1013540089313F2189312000C301C30AC201FF3012
:10136400F3007308C40008002000BC010230F3003D
:1013740073082100D6000230F3007308D500200062
:10138400200821040319C729C829CA29A001A101D9
:1013940008008931B62189312000C4013808EA00E7
:1013A4006A08E40038088331A323893189313F2155
:1013B40089312000C301C201C20A08000130893109
:1013C400382189310030F6000030F5001030F40087
:1013D4007030F3007A08F8007808F7008931462164
:1013E4008931013089313721893108002000AB016E
:1013F400F4013030F3007408403E86000130870069
:10140400730881000130F3007308F4070830740294
:10141400031C0D2A0E2AFB292200C8010800200003
:10142400EA00240825040319182A192A2B2A013052
:10143400A4020030A53B24082504031D222A232AE4
:101444002B2AE4016A088331A3238A312000B301E3
:10145400B30A080020000E19302A312A462A0E1534
:101464008230893186218A318230893186218A31DC
:101474008230893186218A318230893186218A31CC
:101484008230893186218A310800F600F901023060
:10149400F735F80D890B4A2A761C512A522A542A08
:1014A400F714552A77140310F60C0130F50075086B
:1014B400F90708307902031C602A612A492A78084E
:1014C400F4007708F300080020000E196A2A6B2A3A
:1014D400842A0E15F330210065052000D300FF3067
:1014E400210066052000D400FF302100670520009C
:1014F400D500FF30210068052000D60053308B3121
:10150400E7238A3108002000410803198A2A8B2A1C
:10151400A42AC1013E080319902A912A932A013072
:10152400BE023D03031D972A982AA42A47080319DB
:101534009C2A9D2AA42A3C08031DA12AA22AA42A83
:101544000130C702080023008C018D018E012100A7
:10155400951314308C00143024008C0010302100BA
:101564008D00D03024008D003A3021008E007C3074
:1015740024008E0020008D120D138E130E130E11F5
:101584000E108C128D13080020003B08031DCB2A7B
:10159400CC2AE62A74082100B5007308B400750843
:1015A400F70077082000BA0021003508B30034089A
:1015B400B20020003A08F70077082100D800760826
:1015C400F70077082000B90008008931B6218A3174
:1015D40020003608031DEF2AF02A032BB601B60AB1
:1015E400B830A4000B30A5003D08031DFA2AFB2ADD
:1015F400072BBD01BD0A8D174E30EB006B08C700E9
:10160400072B0B308A3111228A3108008931B62127
:101614008B3120003408031D102B112B242BB40113
:10162400B40AB830A4000B30A5003D08031D1B2BE1
:101634001C2B282BBD01BD0A8D174E30EB006B0807
:10164400C700282B0A308A3111228B3108008931D6
:10165400B6218B3120003508031D312B322B452B4D
:10166400B501B50AB830A4000B30A5003D08031D30
:101674003C2B3D2B492BBD01BD0A8D174E30EB0091
:101684006B08C700492B0D308A3111228B310800B9
:101694008931B6218B312000C3013708031D532B38
:1016A400542B672BB701B70AB830A4000B30A50040
:1016B4003D08031D5E2B5F2B6B2BBD01BD0A8D17EF
:1016C4004E30EB006B08C7006B2B08308A311122B7
:1016D4008B310800F9008731FC278B31003A03195C
:1016E400742B752B762B8D2B7908F8007808200045
:1016F400CE008931F8218B31E830F3000330F40057
:10170400F501F50AF6018A31C6228B3160302100D9
:10171400BE00EA30BF0008006430F3007308200004
:10172400C9001A30F3007308C8004808FF3EF300EC
:101734007308C70089315C218B31FF302000C5005C
:10174400F3007308C600C401C301C30AC20189318E
:101754003F218B312000A401A5012100C001C1015A
:1017640008000030F6000030F5000030F4000030CE
:10177400F3002000531CBF2BC02BC82B5708F307C2
:101784005808F43D5908F53D5A08F63D0130D7355F
:10179400D80DD90DDA0D890BC92B0130D636D50CED
:1017A400D40CD30C890BD02B560855045404530481
:1017B400031DDD2BDE2BBB2B7608D6007508D50068
:1017C4007408D4007308D3000800F70020000E1337
:1017D4000D130430F3007308F60076087707F3005E
:1017E4007308860087017F3FF5000830F300730813
:1017F400F4000D13F51FFF2B002C022C8E17032C65
:101804008E130D177508F3007308F5070130F40201
:101814007408031D0E2C0F2CFB2B0D130130F60244
:101824007608031D162C172CEF2B0E170E178E138C
:101834000E1308002100420843040319222C232C10
:10184400592C2308031D312C2208031D312C61302F
:1018540020020930213B031C302C312C342C200075
:10186400CA01592C2308031D412C2208031D412CB5
:10187400613020020930213B0318412C422C542CA6
:101884002308031D502C2208031D502C99302002DC
:101894000830213B031C4F2C502C542C2000CA012F
:1018A400CA0A592C0230F30073082000CA00080049
:1018B40000302100AF000030AE000030AD00013038
:1018C400AC002000D3015308F300F401F335F40D08
:1018D400F335F40D1130730784009030743D8500A6
:1018E400003FF500013FF600023FF700033FF80018
:1018F4005308F9000130F935FF3E031D7D2C79357D
:10190400D93E860087017508C03F7608C13F770835
:10191400C23F7808C33F0130F3007308D307043093
:101924005302031C962C972C652C080020005203AC
:10193400031D9D2C9E2CE92C073021004805F00046
:1019440000304905F10070087104031DAA2CAB2C6A
:10195400BF2C4908F1004808F000F136F00CF136CC
:10196400F00CF136F00C7008A03E860001308700C0
:101974000108F20072082000D1002000D11FC32CFE
:10198400C42CC72CD001D00AC82CD0010310D10D0F
:1019940001302100C8070030C93D47084902031D32
:1019A400D52C46084802031CD82CD92CE92CC80194
:1019B400C9010130F00070082000CF074F08031957
:1019C400E42CE52CE92CD2018D120E110E10080026
:1019D40021005C082000D60021005B082000D5000F
:1019E40021005A082000D400210059082000D30007
:1019F40053308B31E7238C311930893186218C3176
:101A04000430D93E86008701403F2000D300413F87
:101A1400D400423FD500433FD60053308B31E723F7
:101A24008C311930893186218C310830D93E8600B9
:101A34008701403F2000D300413FD400423FD500FE
:101A4400433FD60053308B31E7238C311930893131
:101A540086218C310C30D93E86008701403F20001E
:101A6400D300413FD400423FD500433FD60053301A
:101A74008B31E7238C311930893186218C31080070
:101A84008931B6218D312000430803194A2D4B2D8D
:101A9400892DC3010530D3005308C40089313F2187
:101AA4008D312000B201B20AB830A4000B30A50079
:101AB400210040084104031D602D612D792D200073
:101AC4003D08031D662D672D6E2DBD01BD0A8D17C2
:101AD4003330D3005308C70010302100C000273032
:101AE400C10002302000D3005308B100A32D0130FF
:101AF4002000B102031D7F2D802DA32D01308B31D9
:101B04006C238D312000C401C201C20AA32D320806
:101B140003198D2D8E2DA32D240825040319932D2F
:101B2400942DA32D0130A4020030A53B24082504E4
:101B3400031D9D2D9E2DA32D02308B316C238D31E1
:101B4400842D08008A31A5228D31893135218D31CA
:101B5400893154218D31893165218D318931322189
:101B64008D318C315A248D318B318E238D318931D5
:101B740070218D31893133218D310B178B17CA2D8B
:101B84008D178D16893134218D318E311D268D317D
:101B940020008E1DCE2DCF2DC22D2100C201C301E8
:101BA4008E319C268D318A3185228D318C311C24D5
:101BB4008D3120004708031DE02DE12DD22D3C0876
:101BC400031DE52DE62DD22D3D03031DEA2DEB2D3E
:101BD400D22D02302100300631040319F22DF32DE9
:101BE400D22D20005208031DF82DF92DD22DBD0150
:101BF4008D13BF01BF0A20003303031D022E032EE1
:101C0400072E893136218D31FD2D3308031D0B2E0E
:101C14000C2EFD2D38080319102E112EFD2D053024
:101C240038020318162E172EFD2D8E319C268D3169
:101C3400032E803123288D2E893136218E312000C8
:101C44000D1A252E262E372E2A08031D2A2E2B2E5A
:101C5400372EAA01AA0A8A312C228E318C31EA2429
:101C64008E312000A901D0010E100D1E3A2E3B2EFC
:101C74003C2EAA010E1A3F2E402E4B2E2808031D7F
:101C8400442E452E4B2EA801A80A0E11A901D001FD
:101C94000E100E1E4E2E4F2E502EA8010C1A532E2F
:101CA400542E642E2708031D582E592E642EA70186
:101CB400A70A8A312C228E318C31EA248E312000FD
:101CC400A901A90A0C1E672E682E692EA7010C1DF6
:101CD4006C2E6D2E862E2903031D712E722E862ED8
:101CE40021005408031D772E782E862E20005008DC
:101CF40003197D2E7F2E0130802E0030F8007808E5
:101D0400D0002100D401D40A20000C198A2E8B2E75
:101D14008D2E2100D40120008E1D912E922E1E2E78
:101D24008731FF278E3120008D138D12AA01A8015F
:101D3400A701080020004C080319A12EA22E252F6C
:101D4400CC0149080319A72EA82EAB2E0130C902D5
:101D5400B12E6430EF006F08C900C101C10A21002F
:101D6400420843040319B72EB82EBC2E0130C20218
:101D74000030C33B3E083F040319C12EC22EC62EB9
:101D84000130BE020030BF3B2000220823040319A7
:101D9400CC2ECD2ED12E0130A2020030A33B210047
:101DA400400841040319D72ED82EDC2E0130C0027E
:101DB4000030C13B2000200821040319E22EE32E49
:101DC400E82E0130A0020030A13BE92EC0014008FA
:101DD4000319ED2EEE2E072F200821040319F32EEC
:101DE400F42E072F01302100BC070030BD3D003028
:101DF4003D02643003193C02031C012F022F072FFC
:101E0400BC01BD01203020008D06200024082504DB
:101E140003190D2F0E2F122F0130A4020030A53B01
:101E2400823100228E3120003F03031D1A2F1B2F05
:101E34001C2F252F8531C6258E3180314A208E31C5
:101E4400893136218E31080008302000E000600816
:101E5400E3005530E00060082300A0002000E20108
:101E6400E20A412F5530E0006208A03E86000130AE
:101E74008700600881000130E0006008E207620822
:101E840063020318462F472F342F1530E0006308F0
:101E9400A13E860001308700600881008D164E083F
:101EA400031D552F562F8B2F6308E000E101E03509
:101EB400E10DE035E10DE035E10D6008743E2100EF
:101EC400C60000302000613D2100C7002F0820001B
:101ED400D60021002E082000D50021002D08200066
:101EE400D40021002C082000D3004D08E000600835
:101EF400D7006308023E8631BE268F31FF302000B2
:101F0400E0006308AE3E860001308700600881006F
:101F1400F52F6308E000E101E035E10DE035E10D66
:101F2400E035E10D6008D43E2100C60000302000F9
:101F3400613D2100C7002F082000D60021002E0893
:101F44002000D50021002D082000D40021002C08F9
:101F54002000D3008030E0006008D7006308023E10
:101F64008631BE268F3120004E03031DBA2FBB2FAE
:101F7400D52F21002B082000D60021002A0820009C
:101F8400D500210029082000D400210028082000C1
:101F9400D300FF30E0006008D70063080E3E8631AE
:101FA400BE268F31EB2F21002B082000D600210004
:101FB4002A082000D500210029082000D40021008F
:101FC40028082000D300D70163080E3E8631BE26C0
:101FD4008F31FF302000E0006308BA3E86000130F4
:101FE4008700600881002100C801C9012000CF01D9
:101FF400D101D201D20AD001D00A0800FB34BF3487
:10200400DF34EF34F7349F34AF34B734BB34CF34D8
:10201400DB34EB34E734F334FD34FE34FF34003482
:10202400403488340034C1344D3415340034A6347B
:0E2034004134403400344F34D0342134003471
:020000040001F9
:04000E00A409FF1C26
:00000001FF
