:020000040000FA
:1000000080311B28080008007E1480318B130B1CE4
:100010000A280B2811288D313025803127009301C3
:100020000B102000911C1528162818285117911024
:100030008B177E10090080311D28FA0120308400C2
:100040000030850033308931D0218031A0308400E8
:100050000030850047308931D02180312030840044
:100060000130850038308931D02180317E10200068
:100070008E31382EBD29C31B3E283F284828E83042
:10008000A8000330A9000130D3005308C007E629B7
:1000900028082904031D4D284E28E6290A30D300DC
:1000A0005308C000E62928082904031D58285928A8
:1000B0006E280130D3005308C007B830A8000B30B9
:1000C000A9006730F3000030F4006730D300530814
:1000D000F500F6018B3119238031FA152000440810
:1000E000031973287428E629440A03197828792803
:1000F000E6298A314B228031E62928082904031D8C
:100100008228832884287928440803198828892884
:10011000E629440A031D8D288E288F28E629C31E50
:10012000922893289A2802304406031D982899287B
:1001300079283F284403031D9E289F2879283F28BB
:1001400028082904031DA528A628E6290130D30084
:100150005308C007B830A8000B30A9006730F3007F
:100160000030F4006730D3005308F500F6018B31FE
:1001700019238031FA15E62928082904031DC1280E
:10018000C228C328792844080319C728C828E629A3
:10019000440A031DCC28CD28CE28E629C31ED12829
:1001A000D228E22802304406031DD728D82879280F
:1001B000E830A8000330A9000130D3005308C0077D
:1001C000C317E6294403031DE628E72879283F28BA
:1001D00028082904031DED28EE28E6290130D30064
:1001E0005308C007B830A8000B30A9006730F300EF
:1001F0000030F4006730D3005308F5000230D4001B
:100200005408F6008B3119238031FA15E6292808A5
:100210002904031D0C290D290E29792844080319E6
:1002200012291329E629440A031D17291829192917
:10023000E629C31E1C291D292D2902304406031D51
:100240002229232979281030A8002730A90001305D
:10025000D3005308C007C317E6294403031D3129FF
:10026000322979281030A8002730A900432828080F
:100270002904031D3C293D293E29792844080319F6
:1002800042294329E629440A031D472948294929C7
:10029000E629C31E4C294D29852902304406031D39
:1002A00052295329792809304006031D5829592914
:1002B00043284A08D3005308F90079080319612933
:1002C00062296429F9016629F901F90A7908D3003C
:1002D0005308CA008A31722280316730F30000303F
:1002E000F40067302000D3005308F5000430D40038
:1002F0005408F6008B3119238031FA152000C21101
:100300001430D3005308C70079284403031D8929FA
:100310008A29792809304006031D8F29902943280E
:100320004A08D3005308F900790803199829992934
:100330009B29F9019D29F901F90A7908D30053088D
:10034000CA008A31722280316730F3000030F40035
:1003500067302000D3005308F5000430D40054085F
:10036000F6008B3119238031FA152000C21179284B
:10037000C31BBB29BC29E629792820004008D300EB
:10038000D4015408003A0319C629E6295308013A52
:1003900003193B28033A03195328013A03197D280E
:1003A000073A0319A028013A0319BC28033A031994
:1003B000E828013A031907290F3A03193729013AA6
:1003C00003193729033A0319B829E6290800200040
:1003D000C401FF30EC006C08C60002304B06031D60
:1003E000F229F329F429822B00300D1A01308A31C9
:1003F00012228131003020000E1A01308A3112227F
:100400008131003020000C1A01308A3112228131F2
:10041000003020008C1901308A31122281310030E5
:1004200020008E1A01308A311222813101308A3146
:100430001222813101308A31122281312000460896
:1004400045060319242A252A392A4608EC006C0897
:10045000C5008931F32181318931D621813188303C
:100460002000A2001330A3007430A0002730A100A8
:10047000822B01302100C6020030C73B46084704EA
:100480000319432A442A452A822B0130C600003032
:10049000C7002000460A03194E2A4F2AB02A220814
:1004A00023040319542A552A592A0130A202003084
:1004B000A33B2008210403195E2A5F2A632A013026
:1004C000A0020030A13B8B319223813120004B03ED
:1004D00003196B2A6C2A762A421B6F2A702A762A05
:1004E00020082104031D752A762AB02A421B792A86
:1004F0007A2AA52A421720082104031D802A812A6E
:100500008C2A67302100C4000030C500673020000D
:10051000EC006C08BF00962A28302100C40000308F
:10052000C5003C302000EC006C08BF0021004508ED
:10053000C3004408C20020003F08EC006C08BE0065
:100540000230EC006C08BD00B02A02303D020318F6
:10055000AA2AAB2AB02A0230EC006C08BD00B02AEF
:10056000EE016E08003E840090300318013E8500C5
:1005700000084606031DBD2ABE2AC32A6E08EC00E9
:100580006C08BC00CD2A0130EC006C08EE0711307D
:100590006E02031CCC2ACD2AB12A6E08EC00ED01B4
:1005A0006C082100C00020006D082100C10020005F
:1005B000C21EDB2ADC2ADD2A822B11306E06031DC7
:1005C000E22AE32AED2A43138931D6218131200022
:1005D000C3178A314B228131822BC31FF02AF12AA3
:1005E000452B460A0319F52AF62A452B05306E06D7
:1005F0000319FB2AFC2A142B06306E060319012B63
:10060000022B142B07306E060319072B082B142B13
:1006100009306E0603190D2B0E2B142B0C306E06B1
:10062000031D132B142B822B5118172B182B822BE5
:10063000452B8D31DF258131822B5118202B212B29
:10064000822B843192248131822B8A315E22813146
:10065000822B8B3137238131822B8A31DF2281310A
:10066000822B8A31C2228131822B8A31FC22813154
:10067000822B8931CC218131822B80310220813142
:10068000822B8A313B228131822B6E08EC00ED01F6
:100690006D08003A03194D2B822B6C08003A0319A0
:1006A000192B013A03191D2B033A03191D2B013A8B
:1006B00003191D2B073A03191D2B013A0319252B8A
:1006C000033A0319252B013A0319252B0F3A031975
:1006D000292B013A0319252B033A03192D2B013A33
:1006E0000319312B073A0319252B013A0319352B2E
:1006F000033A0319392B013A03193D2B1F3A031909
:10070000412B822B08002000E800453038020318F6
:100710008A2B8B2BB82BD11E8E2B8F2BB82B1930FD
:1007200047020318942B952BB82B4708193CE5007A
:100730006508E90038086907E5006508B800003079
:10074000E6003808453CE500031CE6036608803AED
:10075000E70080306702031DAF2B1B306502031CCE
:10076000B22BB32BB82B19302000E5006508C70069
:100770001930200047020318BE2BBF2BC42B4108A1
:10078000031DC32BC42B902CD11AC72BC82BFF2BB6
:10079000D1168D174808E5006508C700FF2B083003
:1007A000E5006508CD00682C0430E5006508CD0043
:1007B000682C0230E5006508CD00682CCD01CD0A1B
:1007C000682C1430E5006508CD00682C0C30E5007D
:1007D0006508CD00682C0A30E5006508CD00682C5E
:1007E0000930E5006508CD00682C0630E500650895
:1007F000CD00682C0330E5006508CD00682C680842
:10080000E500E6016608003A0319072C682C650824
:10081000013A0319CF2B033A0319D42B013A0319D8
:10082000D92B073A0319DE2B013A0319E62B033AB9
:100830000319EB2B013A0319F02B0E3A0319F52B90
:10084000033A0319E12B063A0319FA2B682C673097
:10085000F3000030F4006730E5006508F500F601AC
:100860008B3119238331812C6730F3000030F40081
:100870006730E5006508F500F601F60A8B311923AB
:100880008331812C6730F3000030F4006730E500DD
:100890006508F5000230E6006608F6008B31192382
:1008A0008331812CF430F3000130F400F501F50AB6
:1008B000F6018B3119238331812CE830F3000330AA
:1008C000F400F501F50AF6018B3119238331812CEF
:1008D0006408E500E6016608003A0319702C812CD3
:1008E0006508013A0319272C033A0319342C013AFD
:1008F0000319422C073A0319522C103A03195D2CA4
:10090000812C8931E42183318D31872583318F31E9
:100910002A27833119302000E5006508C100912C99
:100920008D1208008A312C228431003A0319992C47
:100930009A2CEF2C200042189E2C9F2CA72CC2181A
:10094000A22CA32CA72C421DA62CA72C8B2D2E0845
:100950002F04031DAC2CAD2C8B2D421BB02CB12CC5
:100960008B2D22082304031DB62CB72C8B2D421887
:10097000BA2CBB2CBF2C421DBE2CBF2CC62C0A305F
:10098000EA006A08C000C401C3178B2DC001C00A69
:100990006730F3000030F4006730EA006A08F500C1
:1009A000F601F60A8B3119238431FA152000D11A89
:1009B000DA2CDB2CE12CD1168D174808EA006A08E6
:1009C000C700A030A8000F30A900C4014313C3170B
:1009D000C316421CEC2CED2C8B2DC3128B2D20004A
:1009E0003C08EA006A08C4004008031DF82CF92CF2
:1009F0008B2D4E080319FD2CFE2C092D8B2D421436
:100A00008830AE001330AF001C2DC214002D4215EB
:100A1000002D4408EA00EB016B08003A0319112D80
:100A20001C2D6A08013A0319FF2C033A0319052DFE
:100A3000013A0319072D1C2D4A080319202D212DD9
:100A4000272D04304406031D262D272D372D8A31EE
:100A50004B22843120003C08EA006A08E4003C088C
:100A60008331832384312000AC01AD018B2D4008FC
:100A7000031D3B2D3C2D8B2D4E080319402D412D80
:100A8000422D8B2D02304406031D472D482D7B2D12
:100A90008A314B22843120003C08EA006A08E400D5
:100AA0003C088331832384312000AC01AD01C215A1
:100AB000B830A6000B30A700A401A5018B2DC21DE4
:100AC000622D632D8B2D260827040319682D692DAF
:100AD0008B2DC211A601A7013C08EA006A08E400B8
:100AE0003C088331832384312000AC01AD018A317D
:100AF0004B2284318B2D4408EA00EB016B08003A4D
:100B00000319832D8B2D6A08013A03195F2D023AD0
:100B100003195F2D8B2D08008931CD218531003AD5
:100B2000031D932D942D952D792E2000D11A992DEA
:100B30009A2D9C2DD1168D172A082B040319A12D4F
:100B4000A22DB82D3330EA006A08C7000130A4078F
:100B50000030A53D01302502F43003192402031CA6
:100B6000B22DB32D632EA401A50120308D06632E76
:100B7000F430F3000130F400FA30EA006A08F500BE
:100B80000230EB006B08F6008B3119238531200011
:100B90008D12CE01632E0130EA003708DC3E86005C
:100BA00087016A0881073A300102031CD82DD92D2C
:100BB000E12D3030EA003708DC3E860087016A0804
:100BC00081006730F3000030F4006730EA006A0803
:100BD000F500F6018B311923853160302000AA0021
:100BE000EA30AB00792E0130EA006A08B707093015
:100BF0003702031CFC2DFD2D022E0830EA006A0886
:100C0000B700ED2D6730F3000030F4006730EA00E4
:100C10006A08F500F601F60A8B3119238531ED2DAE
:100C20008731E8278531E830F3000330F400F5011F
:100C3000F50AF6018B3119238531ED2D0830370285
:100C40000318232E242E252E792EDC308C31DE2421
:100C5000853120005E082100BB0020005D082100D6
:100C6000BA0020005C082100B90020005B082100C8
:100C7000B8003B08031D462EFF303802FF30393BD9
:100C8000FF303A3B031C452E462E572E6430F300AE
:100C90000030F40064302000EA006A08F5000330F8
:100CA000EB006B08F6008B3119238531602E143070
:100CB0002000EA006A08E400143083318323853180
:100CC0002000CE01792E4408EA00EB016B08003ABF
:100CD00003196B2E792E6A08013A0319CB2D033ABA
:100CE0000319F32D013A0319102E063A03191E2E8B
:100CF000792E08002000DD0056088B3173238631E1
:100D000074082000DF007308DE005E08D8005D086C
:100D1000203E860001308700580881000130D8004D
:100D20005808DD075F08D8005D08203E86000130C6
:100D30008700580881000130D8005808DD075508A1
:100D40008B317323863174082000DF007308DE00C6
:100D50005E08D8005D08203E8600013087005808F4
:100D600081000130D8005808DD075F08D8005D0811
:100D7000203E860001308700580881000130D800ED
:100D80005808DD0754088B3173238631740820001E
:100D9000DF007308DE005E08D8005D08203E860094
:100DA00001308700580881000130D8005808DD075D
:100DB0005F08D8005D08203E860001308700580893
:100DC00081000130D8005808DD0757088B317323A4
:100DD000863174082000DF007308DE005E08D8004A
:100DE0005D08203E860001308700580881000130F0
:100DF000D8005808DD075F08D8005D08203E86004F
:100E000001308700580881000130D8005808DD07FC
:100E10005408D8005808DF005708D8005808DE00EA
:100E20005608D8005808DC005508D8005808DB00E0
:100E30005B085E07D9005C085F3DDA005A088B3119
:100E40007323863174082000DF007308DE005E081B
:100E5000D8005D08203E86000130870058088100D8
:100E60000130D8005808DD075F08D8005D08203E33
:100E7000860001308700580881000130D8005808EA
:100E8000DD0759088B317323863174082000DF0099
:100E90007308DE005E08D8005D08203E8600013041
:100EA0008700580881000130D8005808DD075F0826
:100EB000D8005D08203E8600013087005808810078
:100EC0000130D8005808DD070800D92F8931C92121
:100ED000873120000D1A6D2F6E2F902FFA18712F69
:100EE000722F902F64308A311D22873120000D1A15
:100EF0007A2F7B2F912FFA187E2F7F2F912FFA14A4
:100F0000D1105111D1110130F9007908B607043020
:100F10003602031C8C2F8D2F912FB601B60A912F0C
:100F2000FA103603031D952F962FA42FD118992F51
:100F30009A2FA42FD1148931E42187318D3187254F
:100F40008731FA1320000E1002303606031DA92F38
:100F5000AA2FB22F5119AD2FAE2FB22F51150E114E
:100F6000FA130E1003303606031DB72FB82FC42F07
:100F7000D119BB2FBC2FC42FD1158931E421873162
:100F80008D3187258731FA1720000C1DC82FC92FF6
:100F9000D42FFA1FCC2FCD2FD42F7A1BD02FD12FA7
:100FA000D42F01308E067A170C19D72FD82FD92FAE
:100FB0007A1320008E1DDD2FDE2F662F8031032057
:100FC000873120008D138D12D1105111D1110800DD
:100FD0002000B701F4013030F3007408DC3E8600D5
:100FE0008701730881000130F3007308F4070830AB
:100FF0007402031CFC2FFD2FEB2F2100E4010800DD
:10138A000800080008000800080008000800080013
:10139A0020004E080800640080010131890BD12920
:1013AA00003420004310C3104311C3114312080034
:1013BA0073088600740887007708810008002000F7
:1013CA000E19E829E929EA290E15080078302100C2
:1013DA0099001A1EF129F229EE290800013021008C
:1013EA00C6000030C7002000AE01AF010800270088
:1013FA009101043092008B152200171F052A062A34
:10140A00012A080020009A0164309B0091102100F3
:10141A0091144D3020009C000800F30003102000B6
:10142A00C60D730803191A2A1B2A1C2A4614080017
:10143A00F400F501252A00000130F3007308F507CE
:10144A0074087502031C2A2A2B2A202A0800200065
:10145A00431B302A312A332A01303A2A4313AE0178
:10146A00AF018931D6218A310030080020004210AC
:10147A00C210421142138931D6218A312000431702
:10148A00C313FF30F3007308C40008002000C00132
:10149A000230F3007308BA000230F3007308B9008F
:1014AA002608270403195A2A5B2A5D2AA601A701DE
:1014BA0008008A314B228A312000C4013C08EA0024
:1014CA006A08E4003C08833183238A318931D621B2
:1014DA008A3120004313C317080001308931CB2118
:1014EA008A310030F6000030F5001030F400703018
:1014FA00F30020004A08F8007808F7008931DD2156
:10150A008A3101308931CA218A3108002000EA0073
:10151A002E082F040319922A932AA42A0130AE0214
:10152A000030AF3B2E082F04031D9C2A9D2AA42AB3
:10153A00E4016A08833183238A312000C217080034
:10154A0023008C018D018E012100951314308C002B
:10155A0024008C01503021008D0024008D013A3086
:10156A0021008E0024008E0120000D138E130E130D
:10157A000E110E108C128D1308008A314B228A31FB
:10158A002000C319C92ACA2ADA2AC315B830AE00FC
:10159A000B30AF00D11AD22AD32ADE2AD1168D17E0
:1015AA004E30EB006B08C700DE2A0B308A318B22E3
:1015BA008A3108008A314B228A312000C318E62A70
:1015CA00E72AF72AC314B830AE000B30AF00D11A9D
:1015DA00EF2AF02AFB2AD1168D174E30EB006B0842
:1015EA00C700FB2A0A308A318B228A3108008A31E5
:1015FA004B228A312000431A032B042B142B431647
:10160A00B830AE000B30AF00D11A0C2B0D2B182BB3
:10161A00D1168D174E30EB006B08C700182B0D3012
:10162A008A318B228A3108002000421B1D2B1E2B77
:10163A00362B74082100C5007308C4007508F7002A
:10164A0077082000BF0021004508C3004408C200F3
:10165A0020003F08F7007708BE007608F7007708F1
:10166A00BD0008008A314B228B31200043134319F5
:10167A003F2B402B502B4315B830AE000B30AF0038
:10168A00D11A482B492B542BD1168D174E30EB000B
:10169A006B08C700542B08308A318B228B31080023
:1016AA002000D11F592B5A2B722BD1134108031931
:1016BA005F2B602B622B0130C102D11E652B662B7A
:1016CA00722B470803196A2B6B2B722B4008031DD8
:1016DA006F2B702B722B0130C7020800F600F9013C
:1016EA000230F735F80D890B762B761C7D2B7E2B75
:1016FA00802BF714812B77140310F60C0130F500B8
:10170A007508F90708307902031C8C2B8D2B752B71
:10171A007808F4007708F300080020000E19962BC9
:10172A00972BB02B0E15F330210058052000D3005B
:10173A00FF30210059052000D400FF3021005A054E
:10174A002000D500FF3021005B052000D600533071
:10175A008C312A248B310800F9008931CD218B3153
:10176A00003A0319B92BBA2BBB2BD22B7908F800F4
:10177A0078082000CE008731E8278B31E830F30063
:10178A000330F400F501F50AF6018B3119238B3188
:10179A0060302000AA00EA30AB0008006430F30091
:1017AA0073082000C9001A30F3007308C8004808FB
:1017BA00FF3EF3007308C7008931F3218B31FF30F4
:1017CA002000C500F3007308C600C4014317C31301
:1017DA008931D6218B312000AE01AF01AC01AD01B8
:1017EA0008000030F6000030F5000030F400003048
:1017FA00F3002000531C022C032C0B2C5708F30770
:10180A005808F43D5908F53D5A08F63D0130D735D8
:10181A00D80DD90DDA0D890B0C2C0130D636D50C22
:10182A00D40CD30C890B132C5608550454045304B6
:10183A00031D202C212CFE2B7608D6007508D50016
:10184A007408D4007308D3000800F80020000E13AF
:10185A000D13F70177087807F300730886008701EC
:10186A000108F4007408F6000830F3007308F50064
:10187A000D13F61F412C422C442C8E17452C8E1327
:10188A000D177608F3007308F6070130F50275089C
:10189A00031D502C512C3D2C0D130130F3007308FD
:1018AA00F70704307702031C5B2C5C2C2F2C0E17D5
:1018BA000E178E130E13080000302100BF000030EF
:1018CA00BE000030BD000130BC002000D301530827
:1018DA00F300F401F335F40DF335F40D1130730709
:1018EA0084009030743D8500003FF500013FF6000A
:1018FA00023FF700033FF8005308F9000130F935B9
:10190A00FF3E031D842C7935CC3E8600870175087D
:10191A00C03F7608C13F7708C23F7808C33F01300D
:10192A00F3007308D30704305302031C9D2C9E2C2A
:10193A006C2C08002000300831040319A52CA62CB1
:10194A00DD2C21003308031DB52C3208031DB52CEC
:10195A00613030020930313B031CB42CB52CB82C51
:10196A002000CB01DD2C3308031DC52C3208031DD2
:10197A00C52C613030020930313B0318C52CC62C06
:10198A00D82C3308031DD42C3208031DD42C9930CB
:10199A0030020830313B031CD32CD42CD82C200025
:1019AA00CB01CB0ADD2C0230F30073082000CB00F8
:1019BA0008002000E4000030E8000030E7000030B2
:1019CA00E6000030E500E90169086407DF005F0806
:1019DA00860087010108D03EE0006008E300630842
:1019EA00DF00E001E101E2016808D6006708D500DE
:1019FA006608D4006508D3000030DA000030D90048
:101A0A000030D8000A30D7008B31F6238C31200001
:101A1A005308DF075408E03D5508E13D5608E23D0A
:101A2A006208E8006108E7006008E6005F08E50070
:101A3A000130DF005F08E90708306902031C262D20
:101A4A00272DE92C6808DE006708DD006608DC003F
:101A5A006508DB00080020005218342D372D2000BD
:101A6A000E14392D20000E10511C3C2D3D2D862DB3
:101A7A0007303205F00000303305F10070087104B8
:101A8A00031D482D492D5C2D3308F1003208F00062
:101A9A00F136F00CF136F00CF136F00C7008203EFD
:101AAA008600013087000108F2007208D000D01FBA
:101ABA005F2D602D622D5214632D52100310D00D2C
:101ACA000130B2070030B33D21004B082000330239
:101ADA00031D732D21004A0820003202031C762DB3
:101AEA00772D862DB201B3010130F0007008CF07BF
:101AFA004F080319812D822D862D51108D120E113A
:101B0A000E10080021004F082000D60021004E08C0
:101B1A002000D50021004D082000D40021004C08E7
:101B2A002000D30053308C312A248D3119308A3168
:101B3A001D228D310430CC3E86008701403F2000B3
:101B4A00D300413FD400423FD500433FD600533033
:101B5A008C312A248D3119308A311D228D31083079
:101B6A00CC3E86008701403F2000D300413FD4008D
:101B7A00423FD500433FD60053308C312A248D3161
:101B8A0019308A311D228D310C30CC3E86008701F6
:101B9A00403F2000D300413FD400423FD500433F9D
:101BAA00D60053308C312A248D3119308A311D22C6
:101BBA008D3108008A314B228D312000431FE62DDA
:101BCA00E72D1C2E43130530D3005308C400893176
:101BDA00D6218D3120004314B830AE000B30AF004F
:101BEA002C082D04031DFA2DFB2D0E2ED11AFE2DC5
:101BFA00FF2D052ED1168D173330D3005308C70099
:101C0A001030AC002730AD000230D3005308BB00BF
:101C1A00372E0130BB02031D132E142E372E01302E
:101C2A008B31B1238D312000C401C317372E431CD9
:101C3A001F2E202E372E2E082F040319252E262E6E
:101C4A00372E0130AE020030AF3B2E082F04031DA1
:101C5A002F2E302E372E02308B31B1238D312000BA
:101C6A00C401C31708008A31A5228E318931C821DF
:101C7A008E318931EB218E318931FC218E318931C6
:101C8A00C5218E318C3161248E318B31D3238E3133
:101C9A008A3107228E318931C6218E310B178B1773
:101CAA005E2E8D178D168931C7218E3187316527B2
:101CBA008E3120008E1D622E632E562EB001B10188
:101CCA008E31AB268E318B3155238E318C319F2448
:101CDA008E3120004708031D732E742E652E40088E
:101CEA00031D782E792E652ED11E7C2E7D2E652E13
:101CFA0002302100400641040319842E852E652EE8
:101D0A0020005118892E8A2E652ED1128D13C216E3
:101D1A002000C21F912E922E962E8931C9218E3112
:101D2A008D2EC21B992E9A2E8D2E3C0803199E2E9B
:101D3A009F2E8D2E05303C020318A42EA52E8D2E23
:101D4A008E31AB268E31922E80311B282000511FF6
:101D5A00AF2EB02E292F511349080319B52EB62ECE
:101D6A00B92E0130C902BE2E6430EF006F08C900D7
:101D7A00D117300831040319C32EC42EC82E0130DE
:101D8A00B0020030B13B2A082B040319CD2ECE2E07
:101D9A00D22E0130AA020030AB3B280829040319CD
:101DAA00D72ED82EDC2E0130A8020030A93B2C08F1
:101DBA002D040319E12EE22EE62E0130AC0200308A
:101DCA00AD3B260827040319EB2EEC2EF12E013029
:101DDA00A6020030A73BF22EC211C21DF52EF62E26
:101DEA000D2F260827040319FB2EFC2E0D2F013078
:101DFA00A4070030A53D00302502643003192402EF
:101E0A00031C082F092F0D2FA401A50120308D06D0
:101E1A002E082F040319122F132F172F0130AE0289
:101E2A000030AF3B8131E7218E312000C21E1E2FC8
:101E3A001F2F202F292F85318C258E3180313A2072
:101E4A008E318931C9218E31080008302000E00026
:101E5A006008E3005530E00060082200A00020007E
:101E6A00E201E20A452F5530E0006208203E860072
:101E7A0001308700600881000130E0006008E20755
:101E8A006208630203184A2F4B2F382F1530E000DF
:101E9A006308213E860001308700600881008D16A4
:101EAA004E08031D592F5A2F8F2F6308E000E101B6
:101EBA00E035E10DE035E10DE035E10D6008743EF5
:101ECA002100CA0000302000613D2100CB003F08FC
:101EDA002000D60021003E082000D50021003D0840
:101EEA002000D40021003C082000D3004D08E00067
:101EFA006008D7006308023E86317A268F31FF30A8
:101F0A002000E00063082E3E86000130870060084A
:101F1A008100F92F6308E000E101E035E10DE035C9
:101F2A00E10DE035E10D6008D43E2100CA00003021
:101F3A002000613D2100CB003F082000D60021008F
:101F4A003E082000D50021003D082000D4002100D1
:101F5A003C082000D3008030E0006008D700630806
:101F6A00023E86317A268F3120004E03031DBE2F92
:101F7A00BF2FD92F21003B082000D60021003A08A4
:101F8A002000D500210039082000D400210038089B
:101F9A002000D300FF30E0006008D70063080E3E3F
:101FAA0086317A268F31EF2F21003B082000D60098
:101FBA0021003A082000D500210039082000D40069
:101FCA00210038082000D300D70163080E3E86316D
:101FDA007A268F31FF302000E00063083A3E8600FF
:101FEA000130870060088100B201B301CF01D0013E
:101FFA00511452140800FB34BF34DF34EF34F73481
:10200A009F34AF34B734BB34CF34DB34EB34E734EA
:10201A00F334FD34FE34FF34003440348834003461
:10202A00C1344D3415340034A634593440340034A4
:08203A004F34D034213400348E
:00000001FF
